{
  "_format": "hh-sol-artifact-1",
  "contractName": "Formicarium",
  "sourceName": "contracts/formicarium.sol",
  "abi": [
    {
      "inputs": [
        {
          "internalType": "address",
          "name": "_paymentToken",
          "type": "address"
        }
      ],
      "stateMutability": "nonpayable",
      "type": "constructor"
    },
    {
      "inputs": [
        {
          "internalType": "address",
          "name": "_orderId",
          "type": "address"
        }
      ],
      "name": "completeOrderProvider",
      "outputs": [],
      "stateMutability": "nonpayable",
      "type": "function"
    },
    {
      "inputs": [
        {
          "internalType": "address",
          "name": "_orderId",
          "type": "address"
        },
        {
          "internalType": "address",
          "name": "_printerId",
          "type": "address"
        },
        {
          "internalType": "uint256",
          "name": "_price",
          "type": "uint256"
        },
        {
          "internalType": "uint256",
          "name": "_duration",
          "type": "uint256"
        }
      ],
      "name": "createOrder",
      "outputs": [],
      "stateMutability": "nonpayable",
      "type": "function"
    },
    {
      "inputs": [],
      "name": "executeNewOrder",
      "outputs": [],
      "stateMutability": "nonpayable",
      "type": "function"
    },
    {
      "inputs": [],
      "name": "getActiveOrders",
      "outputs": [
        {
          "components": [
            {
              "internalType": "address",
              "name": "ID",
              "type": "address"
            },
            {
              "internalType": "address",
              "name": "printerId",
              "type": "address"
            },
            {
              "internalType": "address",
              "name": "customerId",
              "type": "address"
            },
            {
              "internalType": "uint256",
              "name": "initialPrice",
              "type": "uint256"
            },
            {
              "internalType": "uint256",
              "name": "currentPrice",
              "type": "uint256"
            },
            {
              "internalType": "uint256",
              "name": "duration",
              "type": "uint256"
            },
            {
              "internalType": "uint256",
              "name": "startTime",
              "type": "uint256"
            },
            {
              "internalType": "uint256",
              "name": "expirationTime",
              "type": "uint256"
            },
            {
              "internalType": "bool",
              "name": "isSigned",
              "type": "bool"
            },
            {
              "internalType": "bool",
              "name": "isCompletedProvider",
              "type": "bool"
            },
            {
              "internalType": "bool",
              "name": "isUncompleteCustomer",
              "type": "bool"
            }
          ],
          "internalType": "struct Formicarium.Order[]",
          "name": "",
          "type": "tuple[]"
        }
      ],
      "stateMutability": "view",
      "type": "function"
    },
    {
      "inputs": [],
      "name": "getAllPrinters",
      "outputs": [
        {
          "components": [
            {
              "internalType": "address",
              "name": "ID",
              "type": "address"
            },
            {
              "internalType": "string",
              "name": "printerDetails",
              "type": "string"
            },
            {
              "internalType": "address",
              "name": "currentOrderId",
              "type": "address"
            }
          ],
          "internalType": "struct Formicarium.Printer[]",
          "name": "",
          "type": "tuple[]"
        }
      ],
      "stateMutability": "view",
      "type": "function"
    },
    {
      "inputs": [
        {
          "internalType": "address",
          "name": "",
          "type": "address"
        }
      ],
      "name": "orders",
      "outputs": [
        {
          "internalType": "address",
          "name": "ID",
          "type": "address"
        },
        {
          "internalType": "address",
          "name": "printerId",
          "type": "address"
        },
        {
          "internalType": "address",
          "name": "customerId",
          "type": "address"
        },
        {
          "internalType": "uint256",
          "name": "initialPrice",
          "type": "uint256"
        },
        {
          "internalType": "uint256",
          "name": "currentPrice",
          "type": "uint256"
        },
        {
          "internalType": "uint256",
          "name": "duration",
          "type": "uint256"
        },
        {
          "internalType": "uint256",
          "name": "startTime",
          "type": "uint256"
        },
        {
          "internalType": "uint256",
          "name": "expirationTime",
          "type": "uint256"
        },
        {
          "internalType": "bool",
          "name": "isSigned",
          "type": "bool"
        },
        {
          "internalType": "bool",
          "name": "isCompletedProvider",
          "type": "bool"
        },
        {
          "internalType": "bool",
          "name": "isUncompleteCustomer",
          "type": "bool"
        }
      ],
      "stateMutability": "view",
      "type": "function"
    },
    {
      "inputs": [],
      "name": "owner",
      "outputs": [
        {
          "internalType": "address",
          "name": "",
          "type": "address"
        }
      ],
      "stateMutability": "view",
      "type": "function"
    },
    {
      "inputs": [],
      "name": "paymentToken",
      "outputs": [
        {
          "internalType": "contract IERC20",
          "name": "",
          "type": "address"
        }
      ],
      "stateMutability": "view",
      "type": "function"
    },
    {
      "inputs": [
        {
          "internalType": "uint256",
          "name": "",
          "type": "uint256"
        }
      ],
      "name": "printerAddresses",
      "outputs": [
        {
          "internalType": "address",
          "name": "",
          "type": "address"
        }
      ],
      "stateMutability": "view",
      "type": "function"
    },
    {
      "inputs": [
        {
          "internalType": "address",
          "name": "",
          "type": "address"
        }
      ],
      "name": "printers",
      "outputs": [
        {
          "internalType": "address",
          "name": "ID",
          "type": "address"
        },
        {
          "internalType": "string",
          "name": "printerDetails",
          "type": "string"
        },
        {
          "internalType": "address",
          "name": "currentOrderId",
          "type": "address"
        }
      ],
      "stateMutability": "view",
      "type": "function"
    },
    {
      "inputs": [
        {
          "internalType": "address",
          "name": "",
          "type": "address"
        },
        {
          "internalType": "uint256",
          "name": "",
          "type": "uint256"
        }
      ],
      "name": "providerOrders",
      "outputs": [
        {
          "internalType": "address",
          "name": "",
          "type": "address"
        }
      ],
      "stateMutability": "view",
      "type": "function"
    },
    {
      "inputs": [
        {
          "internalType": "address",
          "name": "_orderId",
          "type": "address"
        }
      ],
      "name": "refundOrderRequest",
      "outputs": [],
      "stateMutability": "nonpayable",
      "type": "function"
    },
    {
      "inputs": [
        {
          "internalType": "string",
          "name": "_printerDetails",
          "type": "string"
        }
      ],
      "name": "registerPrinter",
      "outputs": [],
      "stateMutability": "nonpayable",
      "type": "function"
    },
    {
      "inputs": [
        {
          "internalType": "address",
          "name": "_orderId",
          "type": "address"
        }
      ],
      "name": "reportUncompleteOrder",
      "outputs": [],
      "stateMutability": "nonpayable",
      "type": "function"
    },
    {
      "inputs": [
        {
          "internalType": "address",
          "name": "_orderId",
          "type": "address"
        }
      ],
      "name": "signOrder",
      "outputs": [],
      "stateMutability": "nonpayable",
      "type": "function"
    },
    {
      "inputs": [
        {
          "internalType": "address",
          "name": "_orderId",
          "type": "address"
        }
      ],
      "name": "transferFundsProivder",
      "outputs": [],
      "stateMutability": "nonpayable",
      "type": "function"
    }
  ],
  "bytecode": "0x608060405234801561001057600080fd5b506040516155433803806155438339818101604052810190610032919061011c565b336000806101000a81548173ffffffffffffffffffffffffffffffffffffffff021916908373ffffffffffffffffffffffffffffffffffffffff16021790555080600160006101000a81548173ffffffffffffffffffffffffffffffffffffffff021916908373ffffffffffffffffffffffffffffffffffffffff16021790555050610149565b600080fd5b600073ffffffffffffffffffffffffffffffffffffffff82169050919050565b60006100e9826100be565b9050919050565b6100f9816100de565b811461010457600080fd5b50565b600081519050610116816100f0565b92915050565b600060208284031215610132576101316100b9565b5b600061014084828501610107565b91505092915050565b6153eb806101586000396000f3fe608060405234801561001057600080fd5b50600436106100ff5760003560e01c80635fbbd6bf11610097578063c55a527111610066578063c55a52711461029a578063c8ef627d146102a4578063f40e8471146102c0578063fe879918146102fa576100ff565b80635fbbd6bf146102125780636a798d801461022e5780638da5cb5b1461024a578063ba0c24c314610268576100ff565b80633ba34363116100d35780633ba343631461018c5780634dc6d194146101a85780634e585810146101c65780635f199a83146101f6576100ff565b806286e68b1461010457806306fab27a14610122578063111741791461013e5780633013ce291461016e575b600080fd5b61010c610316565b6040516101199190613a22565b60405180910390f35b61013c60048036038101906101379190613a84565b610894565b005b61015860048036038101906101539190613add565b610dd7565b6040516101659190613b19565b60405180910390f35b610176610e16565b6040516101839190613b93565b60405180910390f35b6101a660048036038101906101a19190613a84565b610e3c565b005b6101b06114a8565b6040516101bd9190613d50565b60405180910390f35b6101e060048036038101906101db9190613d72565b611710565b6040516101ed9190613b19565b60405180910390f35b610210600480360381019061020b9190613a84565b61175e565b005b61022c60048036038101906102279190613ee7565b611b4f565b005b61024860048036038101906102439190613a84565b611db4565b005b61025261223d565b60405161025f9190613b19565b60405180910390f35b610282600480360381019061027d9190613a84565b612261565b60405161029193929190613f7a565b60405180910390f35b6102a2612353565b005b6102be60048036038101906102b99190613a84565b6124e8565b005b6102da60048036038101906102d59190613a84565b6129dc565b6040516102f19b9a99989796959493929190613fd6565b60405180910390f35b610314600480360381019061030f9190614081565b612abd565b005b60606000600560003373ffffffffffffffffffffffffffffffffffffffff1673ffffffffffffffffffffffffffffffffffffffff1681526020019081526020016000209050600080600090505b82805490508110156104b35760046000848381548110610386576103856140e8565b5b9060005260206000200160009054906101000a900473ffffffffffffffffffffffffffffffffffffffff1673ffffffffffffffffffffffffffffffffffffffff1673ffffffffffffffffffffffffffffffffffffffff16815260200190815260200160002060080160009054906101000a900460ff16801561049257506004600084838154811061041a576104196140e8565b5b9060005260206000200160009054906101000a900473ffffffffffffffffffffffffffffffffffffffff1673ffffffffffffffffffffffffffffffffffffffff1673ffffffffffffffffffffffffffffffffffffffff16815260200190815260200160002060080160019054906101000a900460ff16155b156104a65781806104a290614146565b9250505b8080600101915050610363565b5060008167ffffffffffffffff8111156104d0576104cf613dbc565b5b60405190808252806020026020018201604052801561050957816020015b6104f661372d565b8152602001906001900390816104ee5790505b5090506000805b84805490508110156108895760046000868381548110610533576105326140e8565b5b9060005260206000200160009054906101000a900473ffffffffffffffffffffffffffffffffffffffff1673ffffffffffffffffffffffffffffffffffffffff1673ffffffffffffffffffffffffffffffffffffffff16815260200190815260200160002060080160009054906101000a900460ff16801561063f5750600460008683815481106105c7576105c66140e8565b5b9060005260206000200160009054906101000a900473ffffffffffffffffffffffffffffffffffffffff1673ffffffffffffffffffffffffffffffffffffffff1673ffffffffffffffffffffffffffffffffffffffff16815260200190815260200160002060080160019054906101000a900460ff16155b1561087c576004600086838154811061065b5761065a6140e8565b5b9060005260206000200160009054906101000a900473ffffffffffffffffffffffffffffffffffffffff1673ffffffffffffffffffffffffffffffffffffffff1673ffffffffffffffffffffffffffffffffffffffff168152602001908152602001600020604051806101600160405290816000820160009054906101000a900473ffffffffffffffffffffffffffffffffffffffff1673ffffffffffffffffffffffffffffffffffffffff1673ffffffffffffffffffffffffffffffffffffffff1681526020016001820160009054906101000a900473ffffffffffffffffffffffffffffffffffffffff1673ffffffffffffffffffffffffffffffffffffffff1673ffffffffffffffffffffffffffffffffffffffff1681526020016002820160009054906101000a900473ffffffffffffffffffffffffffffffffffffffff1673ffffffffffffffffffffffffffffffffffffffff1673ffffffffffffffffffffffffffffffffffffffff16815260200160038201548152602001600482015481526020016005820154815260200160068201548152602001600782015481526020016008820160009054906101000a900460ff161515151581526020016008820160019054906101000a900460ff161515151581526020016008820160029054906101000a900460ff16151515158152505083838061085d90614146565b9450815181106108705761086f6140e8565b5b60200260200101819052505b8080600101915050610510565b508194505050505090565b3373ffffffffffffffffffffffffffffffffffffffff16600360003373ffffffffffffffffffffffffffffffffffffffff1673ffffffffffffffffffffffffffffffffffffffff16815260200190815260200160002060000160009054906101000a900473ffffffffffffffffffffffffffffffffffffffff1673ffffffffffffffffffffffffffffffffffffffff1614610964576040517f08c379a000000000000000000000000000000000000000000000000000000000815260040161095b90614200565b60405180910390fd5b8073ffffffffffffffffffffffffffffffffffffffff16600460008373ffffffffffffffffffffffffffffffffffffffff1673ffffffffffffffffffffffffffffffffffffffff16815260200190815260200160002060000160009054906101000a900473ffffffffffffffffffffffffffffffffffffffff1673ffffffffffffffffffffffffffffffffffffffff1614610a34576040517f08c379a0000000000000000000000000000000000000000000000000000000008152600401610a2b9061426c565b60405180910390fd5b3373ffffffffffffffffffffffffffffffffffffffff16600460008373ffffffffffffffffffffffffffffffffffffffff1673ffffffffffffffffffffffffffffffffffffffff16815260200190815260200160002060010160009054906101000a900473ffffffffffffffffffffffffffffffffffffffff1673ffffffffffffffffffffffffffffffffffffffff1614610b04576040517f08c379a0000000000000000000000000000000000000000000000000000000008152600401610afb906142fe565b60405180910390fd5b600460008273ffffffffffffffffffffffffffffffffffffffff1673ffffffffffffffffffffffffffffffffffffffff16815260200190815260200160002060080160009054906101000a900460ff16610b93576040517f08c379a0000000000000000000000000000000000000000000000000000000008152600401610b8a9061436a565b60405180910390fd5b6000600460008373ffffffffffffffffffffffffffffffffffffffff1673ffffffffffffffffffffffffffffffffffffffff1681526020019081526020016000206006015403610c18576040517f08c379a0000000000000000000000000000000000000000000000000000000008152600401610c0f906143d6565b60405180910390fd5b600460008273ffffffffffffffffffffffffffffffffffffffff1673ffffffffffffffffffffffffffffffffffffffff16815260200190815260200160002060080160019054906101000a900460ff1615610ca8576040517f08c379a0000000000000000000000000000000000000000000000000000000008152600401610c9f90614442565b60405180910390fd5b600460008273ffffffffffffffffffffffffffffffffffffffff1673ffffffffffffffffffffffffffffffffffffffff16815260200190815260200160002060050154600460008373ffffffffffffffffffffffffffffffffffffffff1673ffffffffffffffffffffffffffffffffffffffff16815260200190815260200160002060060154610d389190614462565b4210610d79576040517f08c379a0000000000000000000000000000000000000000000000000000000008152600401610d70906144e2565b60405180910390fd5b6001600460008373ffffffffffffffffffffffffffffffffffffffff1673ffffffffffffffffffffffffffffffffffffffff16815260200190815260200160002060080160016101000a81548160ff02191690831515021790555050565b60028181548110610de757600080fd5b906000526020600020016000915054906101000a900473ffffffffffffffffffffffffffffffffffffffff1681565b600160009054906101000a900473ffffffffffffffffffffffffffffffffffffffff1681565b8073ffffffffffffffffffffffffffffffffffffffff16600460008373ffffffffffffffffffffffffffffffffffffffff1673ffffffffffffffffffffffffffffffffffffffff16815260200190815260200160002060000160009054906101000a900473ffffffffffffffffffffffffffffffffffffffff1673ffffffffffffffffffffffffffffffffffffffff1614610f0c576040517f08c379a0000000000000000000000000000000000000000000000000000000008152600401610f039061426c565b60405180910390fd5b3373ffffffffffffffffffffffffffffffffffffffff16600460008373ffffffffffffffffffffffffffffffffffffffff1673ffffffffffffffffffffffffffffffffffffffff16815260200190815260200160002060010160009054906101000a900473ffffffffffffffffffffffffffffffffffffffff1673ffffffffffffffffffffffffffffffffffffffff1614610fdc576040517f08c379a0000000000000000000000000000000000000000000000000000000008152600401610fd390614574565b60405180910390fd5b600460008273ffffffffffffffffffffffffffffffffffffffff1673ffffffffffffffffffffffffffffffffffffffff16815260200190815260200160002060080160009054906101000a900460ff1661106b576040517f08c379a00000000000000000000000000000000000000000000000000000000081526004016110629061436a565b60405180910390fd5b600460008273ffffffffffffffffffffffffffffffffffffffff1673ffffffffffffffffffffffffffffffffffffffff16815260200190815260200160002060080160019054906101000a900460ff166110fa576040517f08c379a00000000000000000000000000000000000000000000000000000000081526004016110f1906145e0565b60405180910390fd5b600460008273ffffffffffffffffffffffffffffffffffffffff1673ffffffffffffffffffffffffffffffffffffffff16815260200190815260200160002060080160029054906101000a900460ff161561118a576040517f08c379a000000000000000000000000000000000000000000000000000000000815260040161118190614672565b60405180910390fd5b61012c600460008373ffffffffffffffffffffffffffffffffffffffff1673ffffffffffffffffffffffffffffffffffffffff16815260200190815260200160002060050154600460008473ffffffffffffffffffffffffffffffffffffffff1673ffffffffffffffffffffffffffffffffffffffff1681526020019081526020016000206006015461121d9190614462565b6112279190614462565b421015611269576040517f08c379a0000000000000000000000000000000000000000000000000000000008152600401611260906146de565b60405180910390fd5b600160009054906101000a900473ffffffffffffffffffffffffffffffffffffffff1673ffffffffffffffffffffffffffffffffffffffff1663a9059cbb33600460008573ffffffffffffffffffffffffffffffffffffffff1673ffffffffffffffffffffffffffffffffffffffff168152602001908152602001600020600301546040518363ffffffff1660e01b81526004016113089291906146fe565b6020604051808303816000875af1158015611327573d6000803e3d6000fd5b505050506040513d601f19601f8201168201806040525081019061134b9190614753565b61138a576040517f08c379a0000000000000000000000000000000000000000000000000000000008152600401611381906147cc565b60405180910390fd5b600460008273ffffffffffffffffffffffffffffffffffffffff1673ffffffffffffffffffffffffffffffffffffffff168152602001908152602001600020600080820160006101000a81549073ffffffffffffffffffffffffffffffffffffffff02191690556001820160006101000a81549073ffffffffffffffffffffffffffffffffffffffff02191690556002820160006101000a81549073ffffffffffffffffffffffffffffffffffffffff0219169055600382016000905560048201600090556005820160009055600682016000905560078201600090556008820160006101000a81549060ff02191690556008820160016101000a81549060ff02191690556008820160026101000a81549060ff0219169055505050565b6060600060028054905067ffffffffffffffff8111156114cb576114ca613dbc565b5b60405190808252806020026020018201604052801561150457816020015b6114f16137cf565b8152602001906001900390816114e95790505b50905060005b60028054905081101561170857600360006002838154811061152f5761152e6140e8565b5b9060005260206000200160009054906101000a900473ffffffffffffffffffffffffffffffffffffffff1673ffffffffffffffffffffffffffffffffffffffff1673ffffffffffffffffffffffffffffffffffffffff1681526020019081526020016000206040518060600160405290816000820160009054906101000a900473ffffffffffffffffffffffffffffffffffffffff1673ffffffffffffffffffffffffffffffffffffffff1673ffffffffffffffffffffffffffffffffffffffff1681526020016001820180546116059061481b565b80601f01602080910402602001604051908101604052809291908181526020018280546116319061481b565b801561167e5780601f106116535761010080835404028352916020019161167e565b820191906000526020600020905b81548152906001019060200180831161166157829003601f168201915b505050505081526020016002820160009054906101000a900473ffffffffffffffffffffffffffffffffffffffff1673ffffffffffffffffffffffffffffffffffffffff1673ffffffffffffffffffffffffffffffffffffffff16815250508282815181106116f0576116ef6140e8565b5b6020026020010181905250808060010191505061150a565b508091505090565b6005602052816000526040600020818154811061172c57600080fd5b906000526020600020016000915091509054906101000a900473ffffffffffffffffffffffffffffffffffffffff1681565b3373ffffffffffffffffffffffffffffffffffffffff16600360003373ffffffffffffffffffffffffffffffffffffffff1673ffffffffffffffffffffffffffffffffffffffff16815260200190815260200160002060000160009054906101000a900473ffffffffffffffffffffffffffffffffffffffff1673ffffffffffffffffffffffffffffffffffffffff161461182e576040517f08c379a000000000000000000000000000000000000000000000000000000000815260040161182590614200565b60405180910390fd5b8073ffffffffffffffffffffffffffffffffffffffff16600460008373ffffffffffffffffffffffffffffffffffffffff1673ffffffffffffffffffffffffffffffffffffffff16815260200190815260200160002060000160009054906101000a900473ffffffffffffffffffffffffffffffffffffffff1673ffffffffffffffffffffffffffffffffffffffff16146118fe576040517f08c379a00000000000000000000000000000000000000000000000000000000081526004016118f59061426c565b60405180910390fd5b3373ffffffffffffffffffffffffffffffffffffffff16600460008373ffffffffffffffffffffffffffffffffffffffff1673ffffffffffffffffffffffffffffffffffffffff16815260200190815260200160002060010160009054906101000a900473ffffffffffffffffffffffffffffffffffffffff1673ffffffffffffffffffffffffffffffffffffffff16146119ce576040517f08c379a00000000000000000000000000000000000000000000000000000000081526004016119c5906148be565b60405180910390fd5b600460008273ffffffffffffffffffffffffffffffffffffffff1673ffffffffffffffffffffffffffffffffffffffff168152602001908152602001600020600701544210611a52576040517f08c379a0000000000000000000000000000000000000000000000000000000008152600401611a499061492a565b60405180910390fd5b60001515600460008373ffffffffffffffffffffffffffffffffffffffff1673ffffffffffffffffffffffffffffffffffffffff16815260200190815260200160002060080160009054906101000a900460ff16151514611ae8576040517f08c379a0000000000000000000000000000000000000000000000000000000008152600401611adf90614996565b60405180910390fd5b611af133613284565b6001600460008373ffffffffffffffffffffffffffffffffffffffff1673ffffffffffffffffffffffffffffffffffffffff16815260200190815260200160002060080160006101000a81548160ff02191690831515021790555050565b600073ffffffffffffffffffffffffffffffffffffffff16600360003373ffffffffffffffffffffffffffffffffffffffff1673ffffffffffffffffffffffffffffffffffffffff16815260200190815260200160002060000160009054906101000a900473ffffffffffffffffffffffffffffffffffffffff1673ffffffffffffffffffffffffffffffffffffffff1614611c20576040517f08c379a0000000000000000000000000000000000000000000000000000000008152600401611c1790614a02565b60405180910390fd5b60405180606001604052803373ffffffffffffffffffffffffffffffffffffffff168152602001828152602001600073ffffffffffffffffffffffffffffffffffffffff16815250600360003373ffffffffffffffffffffffffffffffffffffffff1673ffffffffffffffffffffffffffffffffffffffff16815260200190815260200160002060008201518160000160006101000a81548173ffffffffffffffffffffffffffffffffffffffff021916908373ffffffffffffffffffffffffffffffffffffffff1602179055506020820151816001019081611d039190614bc4565b5060408201518160020160006101000a81548173ffffffffffffffffffffffffffffffffffffffff021916908373ffffffffffffffffffffffffffffffffffffffff1602179055509050506002339080600181540180825580915050600190039060005260206000200160009091909190916101000a81548173ffffffffffffffffffffffffffffffffffffffff021916908373ffffffffffffffffffffffffffffffffffffffff16021790555050565b8073ffffffffffffffffffffffffffffffffffffffff16600460008373ffffffffffffffffffffffffffffffffffffffff1673ffffffffffffffffffffffffffffffffffffffff16815260200190815260200160002060000160009054906101000a900473ffffffffffffffffffffffffffffffffffffffff1673ffffffffffffffffffffffffffffffffffffffff1614611e84576040517f08c379a0000000000000000000000000000000000000000000000000000000008152600401611e7b9061426c565b60405180910390fd5b3373ffffffffffffffffffffffffffffffffffffffff16600460008373ffffffffffffffffffffffffffffffffffffffff1673ffffffffffffffffffffffffffffffffffffffff16815260200190815260200160002060020160009054906101000a900473ffffffffffffffffffffffffffffffffffffffff1673ffffffffffffffffffffffffffffffffffffffff1614611f54576040517f08c379a0000000000000000000000000000000000000000000000000000000008152600401611f4b90614ce2565b60405180910390fd5b600460008273ffffffffffffffffffffffffffffffffffffffff1673ffffffffffffffffffffffffffffffffffffffff16815260200190815260200160002060080160009054906101000a900460ff16611fe3576040517f08c379a0000000000000000000000000000000000000000000000000000000008152600401611fda9061436a565b60405180910390fd5b600460008273ffffffffffffffffffffffffffffffffffffffff1673ffffffffffffffffffffffffffffffffffffffff16815260200190815260200160002060080160019054906101000a900460ff16612072576040517f08c379a0000000000000000000000000000000000000000000000000000000008152600401612069906145e0565b60405180910390fd5b600460008273ffffffffffffffffffffffffffffffffffffffff1673ffffffffffffffffffffffffffffffffffffffff16815260200190815260200160002060080160029054906101000a900460ff16612101576040517f08c379a00000000000000000000000000000000000000000000000000000000081526004016120f890614d74565b60405180910390fd5b61012c600460008373ffffffffffffffffffffffffffffffffffffffff1673ffffffffffffffffffffffffffffffffffffffff16815260200190815260200160002060050154600460008473ffffffffffffffffffffffffffffffffffffffff1673ffffffffffffffffffffffffffffffffffffffff168152602001908152602001600020600601546121949190614462565b61219e9190614462565b42106121df576040517f08c379a00000000000000000000000000000000000000000000000000000000081526004016121d690614de0565b60405180910390fd5b6000600460008373ffffffffffffffffffffffffffffffffffffffff1673ffffffffffffffffffffffffffffffffffffffff16815260200190815260200160002060080160026101000a81548160ff02191690831515021790555050565b60008054906101000a900473ffffffffffffffffffffffffffffffffffffffff1681565b60036020528060005260406000206000915090508060000160009054906101000a900473ffffffffffffffffffffffffffffffffffffffff16908060010180546122aa9061481b565b80601f01602080910402602001604051908101604052809291908181526020018280546122d69061481b565b80156123235780601f106122f857610100808354040283529160200191612323565b820191906000526020600020905b81548152906001019060200180831161230657829003601f168201915b5050505050908060020160009054906101000a900473ffffffffffffffffffffffffffffffffffffffff16905083565b3373ffffffffffffffffffffffffffffffffffffffff16600360003373ffffffffffffffffffffffffffffffffffffffff1673ffffffffffffffffffffffffffffffffffffffff16815260200190815260200160002060000160009054906101000a900473ffffffffffffffffffffffffffffffffffffffff1673ffffffffffffffffffffffffffffffffffffffff1614612423576040517f08c379a000000000000000000000000000000000000000000000000000000000815260040161241a90614200565b60405180910390fd5b600061242d6135b5565b9050600073ffffffffffffffffffffffffffffffffffffffff168173ffffffffffffffffffffffffffffffffffffffff160361249e576040517f08c379a000000000000000000000000000000000000000000000000000000000815260040161249590614e4c565b60405180910390fd5b42600460008373ffffffffffffffffffffffffffffffffffffffff1673ffffffffffffffffffffffffffffffffffffffff1681526020019081526020016000206006018190555050565b8073ffffffffffffffffffffffffffffffffffffffff16600460008373ffffffffffffffffffffffffffffffffffffffff1673ffffffffffffffffffffffffffffffffffffffff16815260200190815260200160002060000160009054906101000a900473ffffffffffffffffffffffffffffffffffffffff1673ffffffffffffffffffffffffffffffffffffffff16146125b8576040517f08c379a00000000000000000000000000000000000000000000000000000000081526004016125af9061426c565b60405180910390fd5b3373ffffffffffffffffffffffffffffffffffffffff16600460008373ffffffffffffffffffffffffffffffffffffffff1673ffffffffffffffffffffffffffffffffffffffff16815260200190815260200160002060020160009054906101000a900473ffffffffffffffffffffffffffffffffffffffff1673ffffffffffffffffffffffffffffffffffffffff1614612688576040517f08c379a000000000000000000000000000000000000000000000000000000000815260040161267f90614ede565b60405180910390fd5b600460008273ffffffffffffffffffffffffffffffffffffffff1673ffffffffffffffffffffffffffffffffffffffff16815260200190815260200160002060080160009054906101000a900460ff1615612718576040517f08c379a000000000000000000000000000000000000000000000000000000000815260040161270f90614f4a565b60405180910390fd5b600460008273ffffffffffffffffffffffffffffffffffffffff1673ffffffffffffffffffffffffffffffffffffffff1681526020019081526020016000206007015442101561279d576040517f08c379a000000000000000000000000000000000000000000000000000000000815260040161279490614fb6565b60405180910390fd5b600160009054906101000a900473ffffffffffffffffffffffffffffffffffffffff1673ffffffffffffffffffffffffffffffffffffffff1663a9059cbb33600460008573ffffffffffffffffffffffffffffffffffffffff1673ffffffffffffffffffffffffffffffffffffffff168152602001908152602001600020600301546040518363ffffffff1660e01b815260040161283c9291906146fe565b6020604051808303816000875af115801561285b573d6000803e3d6000fd5b505050506040513d601f19601f8201168201806040525081019061287f9190614753565b6128be576040517f08c379a00000000000000000000000000000000000000000000000000000000081526004016128b5906147cc565b60405180910390fd5b600460008273ffffffffffffffffffffffffffffffffffffffff1673ffffffffffffffffffffffffffffffffffffffff168152602001908152602001600020600080820160006101000a81549073ffffffffffffffffffffffffffffffffffffffff02191690556001820160006101000a81549073ffffffffffffffffffffffffffffffffffffffff02191690556002820160006101000a81549073ffffffffffffffffffffffffffffffffffffffff0219169055600382016000905560048201600090556005820160009055600682016000905560078201600090556008820160006101000a81549060ff02191690556008820160016101000a81549060ff02191690556008820160026101000a81549060ff0219169055505050565b60046020528060005260406000206000915090508060000160009054906101000a900473ffffffffffffffffffffffffffffffffffffffff16908060010160009054906101000a900473ffffffffffffffffffffffffffffffffffffffff16908060020160009054906101000a900473ffffffffffffffffffffffffffffffffffffffff16908060030154908060040154908060050154908060060154908060070154908060080160009054906101000a900460ff16908060080160019054906101000a900460ff16908060080160029054906101000a900460ff1690508b565b600073ffffffffffffffffffffffffffffffffffffffff16600460008673ffffffffffffffffffffffffffffffffffffffff1673ffffffffffffffffffffffffffffffffffffffff16815260200190815260200160002060000160009054906101000a900473ffffffffffffffffffffffffffffffffffffffff1673ffffffffffffffffffffffffffffffffffffffff1614612b8e576040517f08c379a0000000000000000000000000000000000000000000000000000000008152600401612b8590615022565b60405180910390fd5b8273ffffffffffffffffffffffffffffffffffffffff16600360008573ffffffffffffffffffffffffffffffffffffffff1673ffffffffffffffffffffffffffffffffffffffff16815260200190815260200160002060000160009054906101000a900473ffffffffffffffffffffffffffffffffffffffff1673ffffffffffffffffffffffffffffffffffffffff1614612c5e576040517f08c379a0000000000000000000000000000000000000000000000000000000008152600401612c559061508e565b60405180910390fd5b60008211612ca1576040517f08c379a0000000000000000000000000000000000000000000000000000000008152600401612c98906150fa565b60405180910390fd5b60008111612ce4576040517f08c379a0000000000000000000000000000000000000000000000000000000008152600401612cdb90615166565b60405180910390fd5b81600160009054906101000a900473ffffffffffffffffffffffffffffffffffffffff1673ffffffffffffffffffffffffffffffffffffffff166370a08231336040518263ffffffff1660e01b8152600401612d409190613b19565b602060405180830381865afa158015612d5d573d6000803e3d6000fd5b505050506040513d601f19601f82011682018060405250810190612d81919061519b565b1015612dc2576040517f08c379a0000000000000000000000000000000000000000000000000000000008152600401612db990615214565b60405180910390fd5b81600160009054906101000a900473ffffffffffffffffffffffffffffffffffffffff1673ffffffffffffffffffffffffffffffffffffffff1663dd62ed3e33306040518363ffffffff1660e01b8152600401612e20929190615234565b602060405180830381865afa158015612e3d573d6000803e3d6000fd5b505050506040513d601f19601f82011682018060405250810190612e61919061519b565b1015612ea2576040517f08c379a0000000000000000000000000000000000000000000000000000000008152600401612e99906152cf565b60405180910390fd5b600160009054906101000a900473ffffffffffffffffffffffffffffffffffffffff1673ffffffffffffffffffffffffffffffffffffffff166323b872dd3330856040518463ffffffff1660e01b8152600401612f01939291906152ef565b6020604051808303816000875af1158015612f20573d6000803e3d6000fd5b505050506040513d601f19601f82011682018060405250810190612f449190614753565b612f83576040517f08c379a0000000000000000000000000000000000000000000000000000000008152600401612f7a906147cc565b60405180910390fd5b612f8c83613284565b6040518061016001604052808573ffffffffffffffffffffffffffffffffffffffff1681526020018473ffffffffffffffffffffffffffffffffffffffff1681526020013373ffffffffffffffffffffffffffffffffffffffff168152602001838152602001600081526020018281526020016000815260200161012c426130149190614462565b815260200160001515815260200160001515815260200160011515815250600460008673ffffffffffffffffffffffffffffffffffffffff1673ffffffffffffffffffffffffffffffffffffffff16815260200190815260200160002060008201518160000160006101000a81548173ffffffffffffffffffffffffffffffffffffffff021916908373ffffffffffffffffffffffffffffffffffffffff16021790555060208201518160010160006101000a81548173ffffffffffffffffffffffffffffffffffffffff021916908373ffffffffffffffffffffffffffffffffffffffff16021790555060408201518160020160006101000a81548173ffffffffffffffffffffffffffffffffffffffff021916908373ffffffffffffffffffffffffffffffffffffffff160217905550606082015181600301556080820151816004015560a0820151816005015560c0820151816006015560e082015181600701556101008201518160080160006101000a81548160ff0219169083151502179055506101208201518160080160016101000a81548160ff0219169083151502179055506101408201518160080160026101000a81548160ff021916908315150217905550905050600560008473ffffffffffffffffffffffffffffffffffffffff1673ffffffffffffffffffffffffffffffffffffffff168152602001908152602001600020849080600181540180825580915050600190039060005260206000200160009091909190916101000a81548173ffffffffffffffffffffffffffffffffffffffff021916908373ffffffffffffffffffffffffffffffffffffffff16021790555050505050565b6000600560008373ffffffffffffffffffffffffffffffffffffffff1673ffffffffffffffffffffffffffffffffffffffff16815260200190815260200160002090506000818054905090506000805b828110156135565760008482815481106132f1576132f06140e8565b5b9060005260206000200160009054906101000a900473ffffffffffffffffffffffffffffffffffffffff169050600460008273ffffffffffffffffffffffffffffffffffffffff1673ffffffffffffffffffffffffffffffffffffffff16815260200190815260200160002060080160019054906101000a900460ff16806133ba575042600460008373ffffffffffffffffffffffffffffffffffffffff1673ffffffffffffffffffffffffffffffffffffffff16815260200190815260200160002060070154105b156134df57600460008273ffffffffffffffffffffffffffffffffffffffff1673ffffffffffffffffffffffffffffffffffffffff168152602001908152602001600020600080820160006101000a81549073ffffffffffffffffffffffffffffffffffffffff02191690556001820160006101000a81549073ffffffffffffffffffffffffffffffffffffffff02191690556002820160006101000a81549073ffffffffffffffffffffffffffffffffffffffff0219169055600382016000905560048201600090556005820160009055600682016000905560078201600090556008820160006101000a81549060ff02191690556008820160016101000a81549060ff02191690556008820160026101000a81549060ff02191690555050613548565b808584806134ec90614146565b9550815481106134ff576134fe6140e8565b5b9060005260206000200160006101000a81548173ffffffffffffffffffffffffffffffffffffffff021916908373ffffffffffffffffffffffffffffffffffffffff1602179055505b5080806001019150506132d4565b505b80838054905011156135af578280548061357557613574615326565b5b6001900381819060005260206000200160006101000a81549073ffffffffffffffffffffffffffffffffffffffff02191690559055613558565b50505050565b6000806135c0610316565b905060008151036135d557600091505061372a565b6000815167ffffffffffffffff8111156135f2576135f1613dbc565b5b6040519080825280602002602001820160405280156136205781602001602082028036833780820191505090505b50905060005b82518110156136a357828181518110613642576136416140e8565b5b602002602001015160600151838281518110613661576136606140e8565b5b6020026020010151608001516136779190615384565b82828151811061368a576136896140e8565b5b6020026020010181815250508080600101915050613626565b5060008060005b835181101561370357828482815181106136c7576136c66140e8565b5b602002602001015111156136f6578381815181106136e8576136e76140e8565b5b602002602001015192508091505b80806001019150506136aa565b50838181518110613717576137166140e8565b5b6020026020010151600001519450505050505b90565b604051806101600160405280600073ffffffffffffffffffffffffffffffffffffffff168152602001600073ffffffffffffffffffffffffffffffffffffffff168152602001600073ffffffffffffffffffffffffffffffffffffffff16815260200160008152602001600081526020016000815260200160008152602001600081526020016000151581526020016000151581526020016000151581525090565b6040518060600160405280600073ffffffffffffffffffffffffffffffffffffffff16815260200160608152602001600073ffffffffffffffffffffffffffffffffffffffff1681525090565b600081519050919050565b600082825260208201905092915050565b6000819050602082019050919050565b600073ffffffffffffffffffffffffffffffffffffffff82169050919050565b600061387382613848565b9050919050565b61388381613868565b82525050565b6000819050919050565b61389c81613889565b82525050565b60008115159050919050565b6138b7816138a2565b82525050565b610160820160008201516138d4600085018261387a565b5060208201516138e7602085018261387a565b5060408201516138fa604085018261387a565b50606082015161390d6060850182613893565b5060808201516139206080850182613893565b5060a082015161393360a0850182613893565b5060c082015161394660c0850182613893565b5060e082015161395960e0850182613893565b5061010082015161396e6101008501826138ae565b506101208201516139836101208501826138ae565b506101408201516139986101408501826138ae565b50505050565b60006139aa83836138bd565b6101608301905092915050565b6000602082019050919050565b60006139cf8261381c565b6139d98185613827565b93506139e483613838565b8060005b83811015613a155781516139fc888261399e565b9750613a07836139b7565b9250506001810190506139e8565b5085935050505092915050565b60006020820190508181036000830152613a3c81846139c4565b905092915050565b6000604051905090565b600080fd5b600080fd5b613a6181613868565b8114613a6c57600080fd5b50565b600081359050613a7e81613a58565b92915050565b600060208284031215613a9a57613a99613a4e565b5b6000613aa884828501613a6f565b91505092915050565b613aba81613889565b8114613ac557600080fd5b50565b600081359050613ad781613ab1565b92915050565b600060208284031215613af357613af2613a4e565b5b6000613b0184828501613ac8565b91505092915050565b613b1381613868565b82525050565b6000602082019050613b2e6000830184613b0a565b92915050565b6000819050919050565b6000613b59613b54613b4f84613848565b613b34565b613848565b9050919050565b6000613b6b82613b3e565b9050919050565b6000613b7d82613b60565b9050919050565b613b8d81613b72565b82525050565b6000602082019050613ba86000830184613b84565b92915050565b600081519050919050565b600082825260208201905092915050565b6000819050602082019050919050565b600081519050919050565b600082825260208201905092915050565b60005b83811015613c14578082015181840152602081019050613bf9565b60008484015250505050565b6000601f19601f8301169050919050565b6000613c3c82613bda565b613c468185613be5565b9350613c56818560208601613bf6565b613c5f81613c20565b840191505092915050565b6000606083016000830151613c82600086018261387a565b5060208301518482036020860152613c9a8282613c31565b9150506040830151613caf604086018261387a565b508091505092915050565b6000613cc68383613c6a565b905092915050565b6000602082019050919050565b6000613ce682613bae565b613cf08185613bb9565b935083602082028501613d0285613bca565b8060005b85811015613d3e5784840389528151613d1f8582613cba565b9450613d2a83613cce565b925060208a01995050600181019050613d06565b50829750879550505050505092915050565b60006020820190508181036000830152613d6a8184613cdb565b905092915050565b60008060408385031215613d8957613d88613a4e565b5b6000613d9785828601613a6f565b9250506020613da885828601613ac8565b9150509250929050565b600080fd5b600080fd5b7f4e487b7100000000000000000000000000000000000000000000000000000000600052604160045260246000fd5b613df482613c20565b810181811067ffffffffffffffff82111715613e1357613e12613dbc565b5b80604052505050565b6000613e26613a44565b9050613e328282613deb565b919050565b600067ffffffffffffffff821115613e5257613e51613dbc565b5b613e5b82613c20565b9050602081019050919050565b82818337600083830152505050565b6000613e8a613e8584613e37565b613e1c565b905082815260208101848484011115613ea657613ea5613db7565b5b613eb1848285613e68565b509392505050565b600082601f830112613ece57613ecd613db2565b5b8135613ede848260208601613e77565b91505092915050565b600060208284031215613efd57613efc613a4e565b5b600082013567ffffffffffffffff811115613f1b57613f1a613a53565b5b613f2784828501613eb9565b91505092915050565b600082825260208201905092915050565b6000613f4c82613bda565b613f568185613f30565b9350613f66818560208601613bf6565b613f6f81613c20565b840191505092915050565b6000606082019050613f8f6000830186613b0a565b8181036020830152613fa18185613f41565b9050613fb06040830184613b0a565b949350505050565b613fc181613889565b82525050565b613fd0816138a2565b82525050565b600061016082019050613fec600083018e613b0a565b613ff9602083018d613b0a565b614006604083018c613b0a565b614013606083018b613fb8565b614020608083018a613fb8565b61402d60a0830189613fb8565b61403a60c0830188613fb8565b61404760e0830187613fb8565b614055610100830186613fc7565b614063610120830185613fc7565b614071610140830184613fc7565b9c9b505050505050505050505050565b6000806000806080858703121561409b5761409a613a4e565b5b60006140a987828801613a6f565b94505060206140ba87828801613a6f565b93505060406140cb87828801613ac8565b92505060606140dc87828801613ac8565b91505092959194509250565b7f4e487b7100000000000000000000000000000000000000000000000000000000600052603260045260246000fd5b7f4e487b7100000000000000000000000000000000000000000000000000000000600052601160045260246000fd5b600061415182613889565b91507fffffffffffffffffffffffffffffffffffffffffffffffffffffffffffffffff820361418357614182614117565b5b600182019050919050565b7f4f6e6c79207072696e7465722063616e2063616c6c20746869732066756e637460008201527f696f6e0000000000000000000000000000000000000000000000000000000000602082015250565b60006141ea602383613f30565b91506141f58261418e565b604082019050919050565b60006020820190508181036000830152614219816141dd565b9050919050565b7f4f7264657220646f6573206e6f74206578697374000000000000000000000000600082015250565b6000614256601483613f30565b915061426182614220565b602082019050919050565b6000602082019050818103600083015261428581614249565b9050919050565b7f4f6e6c7920736572766963652070726f76696465722063616e20636f6d706c6560008201527f7465206f72646572000000000000000000000000000000000000000000000000602082015250565b60006142e8602883613f30565b91506142f38261428c565b604082019050919050565b60006020820190508181036000830152614317816142db565b9050919050565b7f4f72646572206e6f74207369676e656400000000000000000000000000000000600082015250565b6000614354601083613f30565b915061435f8261431e565b602082019050919050565b6000602082019050818103600083015261438381614347565b9050919050565b7f4f72646572206e6f742073746172746564000000000000000000000000000000600082015250565b60006143c0601183613f30565b91506143cb8261438a565b602082019050919050565b600060208201905081810360008301526143ef816143b3565b9050919050565b7f4f7264657220616c726561647920636f6d706c65746564000000000000000000600082015250565b600061442c601783613f30565b9150614437826143f6565b602082019050919050565b6000602082019050818103600083015261445b8161441f565b9050919050565b600061446d82613889565b915061447883613889565b92508282019050808211156144905761448f614117565b5b92915050565b7f4f72646572206475726174696f6e206578706972656400000000000000000000600082015250565b60006144cc601683613f30565b91506144d782614496565b602082019050919050565b600060208201905081810360008301526144fb816144bf565b9050919050565b7f4f6e6c7920736572766963652070726f76696465722063616e207472616e736660008201527f65722066756e6473000000000000000000000000000000000000000000000000602082015250565b600061455e602883613f30565b915061456982614502565b604082019050919050565b6000602082019050818103600083015261458d81614551565b9050919050565b7f4f72646572206e6f7420636f6d706c657465642062792070726f766964657200600082015250565b60006145ca601f83613f30565b91506145d582614594565b602082019050919050565b600060208201905081810360008301526145f9816145bd565b9050919050565b7f4f72646572207265706f7274656420617320756e636f6d706c6574652062792060008201527f637573746f6d6572000000000000000000000000000000000000000000000000602082015250565b600061465c602883613f30565b915061466782614600565b604082019050919050565b6000602082019050818103600083015261468b8161464f565b9050919050565b7f5265706f7274696e672074696d65206e6f742065787069726564207965740000600082015250565b60006146c8601e83613f30565b91506146d382614692565b602082019050919050565b600060208201905081810360008301526146f7816146bb565b9050919050565b60006040820190506147136000830185613b0a565b6147206020830184613fb8565b9392505050565b614730816138a2565b811461473b57600080fd5b50565b60008151905061474d81614727565b92915050565b60006020828403121561476957614768613a4e565b5b60006147778482850161473e565b91505092915050565b7f546f6b656e207472616e73666572206661696c65640000000000000000000000600082015250565b60006147b6601583613f30565b91506147c182614780565b602082019050919050565b600060208201905081810360008301526147e5816147a9565b9050919050565b7f4e487b7100000000000000000000000000000000000000000000000000000000600052602260045260246000fd5b6000600282049050600182168061483357607f821691505b602082108103614846576148456147ec565b5b50919050565b7f4f6e6c7920736572766963652070726f76696465722063616e207369676e206f60008201527f7264657200000000000000000000000000000000000000000000000000000000602082015250565b60006148a8602483613f30565b91506148b38261484c565b604082019050919050565b600060208201905081810360008301526148d78161489b565b9050919050565b7f4f72646572206578706972656400000000000000000000000000000000000000600082015250565b6000614914600d83613f30565b915061491f826148de565b602082019050919050565b6000602082019050818103600083015261494381614907565b9050919050565b7f4f7264657220616c7265616479207369676e6564000000000000000000000000600082015250565b6000614980601483613f30565b915061498b8261494a565b602082019050919050565b600060208201905081810360008301526149af81614973565b9050919050565b7f5072696e74657220616c72656164792072656769737465726564000000000000600082015250565b60006149ec601a83613f30565b91506149f7826149b6565b602082019050919050565b60006020820190508181036000830152614a1b816149df565b9050919050565b60008190508160005260206000209050919050565b60006020601f8301049050919050565b600082821b905092915050565b600060088302614a847fffffffffffffffffffffffffffffffffffffffffffffffffffffffffffffffff82614a47565b614a8e8683614a47565b95508019841693508086168417925050509392505050565b6000614ac1614abc614ab784613889565b613b34565b613889565b9050919050565b6000819050919050565b614adb83614aa6565b614aef614ae782614ac8565b848454614a54565b825550505050565b600090565b614b04614af7565b614b0f818484614ad2565b505050565b5b81811015614b3357614b28600082614afc565b600181019050614b15565b5050565b601f821115614b7857614b4981614a22565b614b5284614a37565b81016020851015614b61578190505b614b75614b6d85614a37565b830182614b14565b50505b505050565b600082821c905092915050565b6000614b9b60001984600802614b7d565b1980831691505092915050565b6000614bb48383614b8a565b9150826002028217905092915050565b614bcd82613bda565b67ffffffffffffffff811115614be657614be5613dbc565b5b614bf0825461481b565b614bfb828285614b37565b600060209050601f831160018114614c2e5760008415614c1c578287015190505b614c268582614ba8565b865550614c8e565b601f198416614c3c86614a22565b60005b82811015614c6457848901518255600182019150602085019450602081019050614c3f565b86831015614c815784890151614c7d601f891682614b8a565b8355505b6001600288020188555050505b505050505050565b7f4f6e6c7920637573746f6d65722063616e20636f6e6669726d206f7264657200600082015250565b6000614ccc601f83613f30565b9150614cd782614c96565b602082019050919050565b60006020820190508181036000830152614cfb81614cbf565b9050919050565b7f4f7264657220616c7265616479207265706f7274656420617320756e636f6d7060008201527f6c65746520627920637573746f6d657200000000000000000000000000000000602082015250565b6000614d5e603083613f30565b9150614d6982614d02565b604082019050919050565b60006020820190508181036000830152614d8d81614d51565b9050919050565b7f5265706f72742074696d65206578706972656400000000000000000000000000600082015250565b6000614dca601383613f30565b9150614dd582614d94565b602082019050919050565b60006020820190508181036000830152614df981614dbd565b9050919050565b7f4e6f20616374697665206f726465727320746f20657865637574650000000000600082015250565b6000614e36601b83613f30565b9150614e4182614e00565b602082019050919050565b60006020820190508181036000830152614e6581614e29565b9050919050565b7f4f6e6c7920637573746f6d65722063616e20726566756e64206f72646572207260008201527f6571756573740000000000000000000000000000000000000000000000000000602082015250565b6000614ec8602683613f30565b9150614ed382614e6c565b604082019050919050565b60006020820190508181036000830152614ef781614ebb565b9050919050565b7f4f72646572207265717565737420616c7265616479207369676e656400000000600082015250565b6000614f34601c83613f30565b9150614f3f82614efe565b602082019050919050565b60006020820190508181036000830152614f6381614f27565b9050919050565b7f4f726465722072657175657374206973206e6f74206578706972656420796574600082015250565b6000614fa0602083613f30565b9150614fab82614f6a565b602082019050919050565b60006020820190508181036000830152614fcf81614f93565b9050919050565b7f4f7264657220616c726561647920657869737473000000000000000000000000600082015250565b600061500c601483613f30565b915061501782614fd6565b602082019050919050565b6000602082019050818103600083015261503b81614fff565b9050919050565b7f5072696e74657220646f6573206e6f7420657869737400000000000000000000600082015250565b6000615078601683613f30565b915061508382615042565b602082019050919050565b600060208201905081810360008301526150a78161506b565b9050919050565b7f5072696365206d7573742062652067726561746572207468616e203000000000600082015250565b60006150e4601c83613f30565b91506150ef826150ae565b602082019050919050565b60006020820190508181036000830152615113816150d7565b9050919050565b7f4475726174696f6e206d7573742062652067726561746572207468616e203000600082015250565b6000615150601f83613f30565b915061515b8261511a565b602082019050919050565b6000602082019050818103600083015261517f81615143565b9050919050565b60008151905061519581613ab1565b92915050565b6000602082840312156151b1576151b0613a4e565b5b60006151bf84828501615186565b91505092915050565b7f496e73756666696369656e742062616c616e6365000000000000000000000000600082015250565b60006151fe601483613f30565b9150615209826151c8565b602082019050919050565b6000602082019050818103600083015261522d816151f1565b9050919050565b60006040820190506152496000830185613b0a565b6152566020830184613b0a565b9392505050565b7f436f6e7472616374206e6f7420617070726f76656420746f207472616e73666560008201527f7220746f6b656e73000000000000000000000000000000000000000000000000602082015250565b60006152b9602883613f30565b91506152c48261525d565b604082019050919050565b600060208201905081810360008301526152e8816152ac565b9050919050565b60006060820190506153046000830186613b0a565b6153116020830185613b0a565b61531e6040830184613fb8565b949350505050565b7f4e487b7100000000000000000000000000000000000000000000000000000000600052603160045260246000fd5b7f4e487b7100000000000000000000000000000000000000000000000000000000600052601260045260246000fd5b600061538f82613889565b915061539a83613889565b9250826153aa576153a9615355565b5b82820490509291505056fea2646970667358221220708b6af9b8e0c6f7aea4fda30de44e3e3db6aae24294e296e86f2f5291245c6364736f6c634300081c0033",
  "linkReferences": {},
  "deployedLinkReferences": {}
}