{
  "_format": "hh-sol-artifact-1",
  "contractName": "Formicarium",
  "sourceName": "contracts/Formicarium.sol",
  "abi": [
    {
      "inputs": [
        {
          "internalType": "address",
          "name": "_paymentToken",
          "type": "address"
        }
      ],
      "stateMutability": "nonpayable",
      "type": "constructor"
    },
    {
      "inputs": [
        {
          "internalType": "address",
          "name": "_orderId",
          "type": "address"
        }
      ],
      "name": "completeOrderProvider",
      "outputs": [],
      "stateMutability": "nonpayable",
      "type": "function"
    },
    {
      "inputs": [
        {
          "internalType": "address",
          "name": "_orderId",
          "type": "address"
        },
        {
          "internalType": "address",
          "name": "_printerId",
          "type": "address"
        },
        {
          "internalType": "uint256",
          "name": "_minimalPrice",
          "type": "uint256"
        },
        {
          "internalType": "uint256",
          "name": "_actualPrice",
          "type": "uint256"
        },
        {
          "internalType": "uint256",
          "name": "_duration",
          "type": "uint256"
        }
      ],
      "name": "createOrder",
      "outputs": [],
      "stateMutability": "nonpayable",
      "type": "function"
    },
    {
      "inputs": [],
      "name": "executeNewOrder",
      "outputs": [],
      "stateMutability": "nonpayable",
      "type": "function"
    },
    {
      "inputs": [],
      "name": "getActiveOrders",
      "outputs": [
        {
          "components": [
            {
              "internalType": "address",
              "name": "ID",
              "type": "address"
            },
            {
              "internalType": "address",
              "name": "printerId",
              "type": "address"
            },
            {
              "internalType": "address",
              "name": "customerId",
              "type": "address"
            },
            {
              "internalType": "uint256",
              "name": "minimalPrice",
              "type": "uint256"
            },
            {
              "internalType": "uint256",
              "name": "actualPrice",
              "type": "uint256"
            },
            {
              "internalType": "uint256",
              "name": "duration",
              "type": "uint256"
            },
            {
              "internalType": "uint256",
              "name": "startTime",
              "type": "uint256"
            },
            {
              "internalType": "uint256",
              "name": "expirationTime",
              "type": "uint256"
            },
            {
              "internalType": "bool",
              "name": "isSigned",
              "type": "bool"
            },
            {
              "internalType": "bool",
              "name": "isCompletedProvider",
              "type": "bool"
            },
            {
              "internalType": "bool",
              "name": "isUncompleteCustomer",
              "type": "bool"
            }
          ],
          "internalType": "struct Formicarium.Order[]",
          "name": "",
          "type": "tuple[]"
        }
      ],
      "stateMutability": "view",
      "type": "function"
    },
    {
      "inputs": [],
      "name": "getAllPrinters",
      "outputs": [
        {
          "components": [
            {
              "internalType": "address",
              "name": "ID",
              "type": "address"
            },
            {
              "internalType": "string",
              "name": "printerDetails",
              "type": "string"
            },
            {
              "internalType": "address",
              "name": "currentOrderId",
              "type": "address"
            }
          ],
          "internalType": "struct Formicarium.Printer[]",
          "name": "",
          "type": "tuple[]"
        }
      ],
      "stateMutability": "view",
      "type": "function"
    },
    {
      "inputs": [
        {
          "internalType": "address",
          "name": "",
          "type": "address"
        }
      ],
      "name": "orders",
      "outputs": [
        {
          "internalType": "address",
          "name": "ID",
          "type": "address"
        },
        {
          "internalType": "address",
          "name": "printerId",
          "type": "address"
        },
        {
          "internalType": "address",
          "name": "customerId",
          "type": "address"
        },
        {
          "internalType": "uint256",
          "name": "minimalPrice",
          "type": "uint256"
        },
        {
          "internalType": "uint256",
          "name": "actualPrice",
          "type": "uint256"
        },
        {
          "internalType": "uint256",
          "name": "duration",
          "type": "uint256"
        },
        {
          "internalType": "uint256",
          "name": "startTime",
          "type": "uint256"
        },
        {
          "internalType": "uint256",
          "name": "expirationTime",
          "type": "uint256"
        },
        {
          "internalType": "bool",
          "name": "isSigned",
          "type": "bool"
        },
        {
          "internalType": "bool",
          "name": "isCompletedProvider",
          "type": "bool"
        },
        {
          "internalType": "bool",
          "name": "isUncompleteCustomer",
          "type": "bool"
        }
      ],
      "stateMutability": "view",
      "type": "function"
    },
    {
      "inputs": [],
      "name": "owner",
      "outputs": [
        {
          "internalType": "address",
          "name": "",
          "type": "address"
        }
      ],
      "stateMutability": "view",
      "type": "function"
    },
    {
      "inputs": [],
      "name": "paymentToken",
      "outputs": [
        {
          "internalType": "contract IERC20",
          "name": "",
          "type": "address"
        }
      ],
      "stateMutability": "view",
      "type": "function"
    },
    {
      "inputs": [
        {
          "internalType": "uint256",
          "name": "",
          "type": "uint256"
        }
      ],
      "name": "printerAddresses",
      "outputs": [
        {
          "internalType": "address",
          "name": "",
          "type": "address"
        }
      ],
      "stateMutability": "view",
      "type": "function"
    },
    {
      "inputs": [
        {
          "internalType": "address",
          "name": "",
          "type": "address"
        }
      ],
      "name": "printers",
      "outputs": [
        {
          "internalType": "address",
          "name": "ID",
          "type": "address"
        },
        {
          "internalType": "string",
          "name": "printerDetails",
          "type": "string"
        },
        {
          "internalType": "address",
          "name": "currentOrderId",
          "type": "address"
        }
      ],
      "stateMutability": "view",
      "type": "function"
    },
    {
      "inputs": [
        {
          "internalType": "address",
          "name": "",
          "type": "address"
        },
        {
          "internalType": "uint256",
          "name": "",
          "type": "uint256"
        }
      ],
      "name": "providerOrders",
      "outputs": [
        {
          "internalType": "address",
          "name": "",
          "type": "address"
        }
      ],
      "stateMutability": "view",
      "type": "function"
    },
    {
      "inputs": [
        {
          "internalType": "address",
          "name": "_orderId",
          "type": "address"
        }
      ],
      "name": "refundOrderRequest",
      "outputs": [],
      "stateMutability": "nonpayable",
      "type": "function"
    },
    {
      "inputs": [
        {
          "internalType": "string",
          "name": "_printerDetails",
          "type": "string"
        }
      ],
      "name": "registerPrinter",
      "outputs": [],
      "stateMutability": "nonpayable",
      "type": "function"
    },
    {
      "inputs": [
        {
          "internalType": "address",
          "name": "_orderId",
          "type": "address"
        }
      ],
      "name": "reportUncompleteOrder",
      "outputs": [],
      "stateMutability": "nonpayable",
      "type": "function"
    },
    {
      "inputs": [
        {
          "internalType": "address",
          "name": "_orderId",
          "type": "address"
        }
      ],
      "name": "signOrder",
      "outputs": [],
      "stateMutability": "nonpayable",
      "type": "function"
    },
    {
      "inputs": [
        {
          "internalType": "address",
          "name": "_orderId",
          "type": "address"
        }
      ],
      "name": "transferFundsProivder",
      "outputs": [],
      "stateMutability": "nonpayable",
      "type": "function"
    }
  ],
  "bytecode": "0x608060405234801561001057600080fd5b506040516156ca3803806156ca8339818101604052810190610032919061011c565b336000806101000a81548173ffffffffffffffffffffffffffffffffffffffff021916908373ffffffffffffffffffffffffffffffffffffffff16021790555080600160006101000a81548173ffffffffffffffffffffffffffffffffffffffff021916908373ffffffffffffffffffffffffffffffffffffffff16021790555050610149565b600080fd5b600073ffffffffffffffffffffffffffffffffffffffff82169050919050565b60006100e9826100be565b9050919050565b6100f9816100de565b811461010457600080fd5b50565b600081519050610116816100f0565b92915050565b600060208284031215610132576101316100b9565b5b600061014084828501610107565b91505092915050565b615572806101586000396000f3fe608060405234801561001057600080fd5b50600436106100ff5760003560e01c80635f199a8311610097578063ba0c24c311610066578063ba0c24c314610284578063c55a5271146102b6578063c8ef627d146102c0578063f40e8471146102dc576100ff565b80635f199a83146102125780635fbbd6bf1461022e5780636a798d801461024a5780638da5cb5b14610266576100ff565b80633ba34363116100d35780633ba343631461018c5780634dc6d194146101a85780634e585810146101c6578063518e62db146101f6576100ff565b806286e68b1461010457806306fab27a14610122578063111741791461013e5780633013ce291461016e575b600080fd5b61010c610316565b6040516101199190613a97565b60405180910390f35b61013c60048036038101906101379190613af9565b610894565b005b61015860048036038101906101539190613b52565b610dd7565b6040516101659190613b8e565b60405180910390f35b610176610e16565b6040516101839190613c08565b60405180910390f35b6101a660048036038101906101a19190613af9565b610e3c565b005b6101b06114a8565b6040516101bd9190613dc5565b60405180910390f35b6101e060048036038101906101db9190613de7565b611710565b6040516101ed9190613b8e565b60405180910390f35b610210600480360381019061020b9190613e27565b61175e565b005b61022c60048036038101906102279190613af9565b611fd7565b005b61024860048036038101906102439190613fd7565b6123c8565b005b610264600480360381019061025f9190613af9565b61262d565b005b61026e612ab7565b60405161027b9190613b8e565b60405180910390f35b61029e60048036038101906102999190613af9565b612adb565b6040516102ad9392919061406a565b60405180910390f35b6102be612bcd565b005b6102da60048036038101906102d59190613af9565b612d62565b005b6102f660048036038101906102f19190613af9565b613218565b60405161030d9b9a999897969594939291906140c6565b60405180910390f35b60606000600560003373ffffffffffffffffffffffffffffffffffffffff1673ffffffffffffffffffffffffffffffffffffffff1681526020019081526020016000209050600080600090505b82805490508110156104b3576004600084838154811061038657610385614171565b5b9060005260206000200160009054906101000a900473ffffffffffffffffffffffffffffffffffffffff1673ffffffffffffffffffffffffffffffffffffffff1673ffffffffffffffffffffffffffffffffffffffff16815260200190815260200160002060080160009054906101000a900460ff16801561049257506004600084838154811061041a57610419614171565b5b9060005260206000200160009054906101000a900473ffffffffffffffffffffffffffffffffffffffff1673ffffffffffffffffffffffffffffffffffffffff1673ffffffffffffffffffffffffffffffffffffffff16815260200190815260200160002060080160019054906101000a900460ff16155b156104a65781806104a2906141cf565b9250505b8080600101915050610363565b5060008167ffffffffffffffff8111156104d0576104cf613eac565b5b60405190808252806020026020018201604052801561050957816020015b6104f66137a2565b8152602001906001900390816104ee5790505b5090506000805b8480549050811015610889576004600086838154811061053357610532614171565b5b9060005260206000200160009054906101000a900473ffffffffffffffffffffffffffffffffffffffff1673ffffffffffffffffffffffffffffffffffffffff1673ffffffffffffffffffffffffffffffffffffffff16815260200190815260200160002060080160009054906101000a900460ff16801561063f5750600460008683815481106105c7576105c6614171565b5b9060005260206000200160009054906101000a900473ffffffffffffffffffffffffffffffffffffffff1673ffffffffffffffffffffffffffffffffffffffff1673ffffffffffffffffffffffffffffffffffffffff16815260200190815260200160002060080160019054906101000a900460ff16155b1561087c576004600086838154811061065b5761065a614171565b5b9060005260206000200160009054906101000a900473ffffffffffffffffffffffffffffffffffffffff1673ffffffffffffffffffffffffffffffffffffffff1673ffffffffffffffffffffffffffffffffffffffff168152602001908152602001600020604051806101600160405290816000820160009054906101000a900473ffffffffffffffffffffffffffffffffffffffff1673ffffffffffffffffffffffffffffffffffffffff1673ffffffffffffffffffffffffffffffffffffffff1681526020016001820160009054906101000a900473ffffffffffffffffffffffffffffffffffffffff1673ffffffffffffffffffffffffffffffffffffffff1673ffffffffffffffffffffffffffffffffffffffff1681526020016002820160009054906101000a900473ffffffffffffffffffffffffffffffffffffffff1673ffffffffffffffffffffffffffffffffffffffff1673ffffffffffffffffffffffffffffffffffffffff16815260200160038201548152602001600482015481526020016005820154815260200160068201548152602001600782015481526020016008820160009054906101000a900460ff161515151581526020016008820160019054906101000a900460ff161515151581526020016008820160029054906101000a900460ff16151515158152505083838061085d906141cf565b9450815181106108705761086f614171565b5b60200260200101819052505b8080600101915050610510565b508194505050505090565b3373ffffffffffffffffffffffffffffffffffffffff16600360003373ffffffffffffffffffffffffffffffffffffffff1673ffffffffffffffffffffffffffffffffffffffff16815260200190815260200160002060000160009054906101000a900473ffffffffffffffffffffffffffffffffffffffff1673ffffffffffffffffffffffffffffffffffffffff1614610964576040517f08c379a000000000000000000000000000000000000000000000000000000000815260040161095b90614289565b60405180910390fd5b8073ffffffffffffffffffffffffffffffffffffffff16600460008373ffffffffffffffffffffffffffffffffffffffff1673ffffffffffffffffffffffffffffffffffffffff16815260200190815260200160002060000160009054906101000a900473ffffffffffffffffffffffffffffffffffffffff1673ffffffffffffffffffffffffffffffffffffffff1614610a34576040517f08c379a0000000000000000000000000000000000000000000000000000000008152600401610a2b906142f5565b60405180910390fd5b3373ffffffffffffffffffffffffffffffffffffffff16600460008373ffffffffffffffffffffffffffffffffffffffff1673ffffffffffffffffffffffffffffffffffffffff16815260200190815260200160002060010160009054906101000a900473ffffffffffffffffffffffffffffffffffffffff1673ffffffffffffffffffffffffffffffffffffffff1614610b04576040517f08c379a0000000000000000000000000000000000000000000000000000000008152600401610afb90614387565b60405180910390fd5b600460008273ffffffffffffffffffffffffffffffffffffffff1673ffffffffffffffffffffffffffffffffffffffff16815260200190815260200160002060080160009054906101000a900460ff16610b93576040517f08c379a0000000000000000000000000000000000000000000000000000000008152600401610b8a906143f3565b60405180910390fd5b6000600460008373ffffffffffffffffffffffffffffffffffffffff1673ffffffffffffffffffffffffffffffffffffffff1681526020019081526020016000206006015403610c18576040517f08c379a0000000000000000000000000000000000000000000000000000000008152600401610c0f9061445f565b60405180910390fd5b600460008273ffffffffffffffffffffffffffffffffffffffff1673ffffffffffffffffffffffffffffffffffffffff16815260200190815260200160002060080160019054906101000a900460ff1615610ca8576040517f08c379a0000000000000000000000000000000000000000000000000000000008152600401610c9f906144cb565b60405180910390fd5b600460008273ffffffffffffffffffffffffffffffffffffffff1673ffffffffffffffffffffffffffffffffffffffff16815260200190815260200160002060050154600460008373ffffffffffffffffffffffffffffffffffffffff1673ffffffffffffffffffffffffffffffffffffffff16815260200190815260200160002060060154610d3891906144eb565b4210610d79576040517f08c379a0000000000000000000000000000000000000000000000000000000008152600401610d709061456b565b60405180910390fd5b6001600460008373ffffffffffffffffffffffffffffffffffffffff1673ffffffffffffffffffffffffffffffffffffffff16815260200190815260200160002060080160016101000a81548160ff02191690831515021790555050565b60028181548110610de757600080fd5b906000526020600020016000915054906101000a900473ffffffffffffffffffffffffffffffffffffffff1681565b600160009054906101000a900473ffffffffffffffffffffffffffffffffffffffff1681565b8073ffffffffffffffffffffffffffffffffffffffff16600460008373ffffffffffffffffffffffffffffffffffffffff1673ffffffffffffffffffffffffffffffffffffffff16815260200190815260200160002060000160009054906101000a900473ffffffffffffffffffffffffffffffffffffffff1673ffffffffffffffffffffffffffffffffffffffff1614610f0c576040517f08c379a0000000000000000000000000000000000000000000000000000000008152600401610f03906142f5565b60405180910390fd5b3373ffffffffffffffffffffffffffffffffffffffff16600460008373ffffffffffffffffffffffffffffffffffffffff1673ffffffffffffffffffffffffffffffffffffffff16815260200190815260200160002060010160009054906101000a900473ffffffffffffffffffffffffffffffffffffffff1673ffffffffffffffffffffffffffffffffffffffff1614610fdc576040517f08c379a0000000000000000000000000000000000000000000000000000000008152600401610fd3906145fd565b60405180910390fd5b600460008273ffffffffffffffffffffffffffffffffffffffff1673ffffffffffffffffffffffffffffffffffffffff16815260200190815260200160002060080160009054906101000a900460ff1661106b576040517f08c379a0000000000000000000000000000000000000000000000000000000008152600401611062906143f3565b60405180910390fd5b600460008273ffffffffffffffffffffffffffffffffffffffff1673ffffffffffffffffffffffffffffffffffffffff16815260200190815260200160002060080160019054906101000a900460ff166110fa576040517f08c379a00000000000000000000000000000000000000000000000000000000081526004016110f190614669565b60405180910390fd5b600460008273ffffffffffffffffffffffffffffffffffffffff1673ffffffffffffffffffffffffffffffffffffffff16815260200190815260200160002060080160029054906101000a900460ff161561118a576040517f08c379a0000000000000000000000000000000000000000000000000000000008152600401611181906146fb565b60405180910390fd5b61012c600460008373ffffffffffffffffffffffffffffffffffffffff1673ffffffffffffffffffffffffffffffffffffffff16815260200190815260200160002060050154600460008473ffffffffffffffffffffffffffffffffffffffff1673ffffffffffffffffffffffffffffffffffffffff1681526020019081526020016000206006015461121d91906144eb565b61122791906144eb565b421015611269576040517f08c379a000000000000000000000000000000000000000000000000000000000815260040161126090614767565b60405180910390fd5b600160009054906101000a900473ffffffffffffffffffffffffffffffffffffffff1673ffffffffffffffffffffffffffffffffffffffff1663a9059cbb33600460008573ffffffffffffffffffffffffffffffffffffffff1673ffffffffffffffffffffffffffffffffffffffff168152602001908152602001600020600401546040518363ffffffff1660e01b8152600401611308929190614787565b6020604051808303816000875af1158015611327573d6000803e3d6000fd5b505050506040513d601f19601f8201168201806040525081019061134b91906147dc565b61138a576040517f08c379a000000000000000000000000000000000000000000000000000000000815260040161138190614855565b60405180910390fd5b600460008273ffffffffffffffffffffffffffffffffffffffff1673ffffffffffffffffffffffffffffffffffffffff168152602001908152602001600020600080820160006101000a81549073ffffffffffffffffffffffffffffffffffffffff02191690556001820160006101000a81549073ffffffffffffffffffffffffffffffffffffffff02191690556002820160006101000a81549073ffffffffffffffffffffffffffffffffffffffff0219169055600382016000905560048201600090556005820160009055600682016000905560078201600090556008820160006101000a81549060ff02191690556008820160016101000a81549060ff02191690556008820160026101000a81549060ff0219169055505050565b6060600060028054905067ffffffffffffffff8111156114cb576114ca613eac565b5b60405190808252806020026020018201604052801561150457816020015b6114f1613844565b8152602001906001900390816114e95790505b50905060005b60028054905081101561170857600360006002838154811061152f5761152e614171565b5b9060005260206000200160009054906101000a900473ffffffffffffffffffffffffffffffffffffffff1673ffffffffffffffffffffffffffffffffffffffff1673ffffffffffffffffffffffffffffffffffffffff1681526020019081526020016000206040518060600160405290816000820160009054906101000a900473ffffffffffffffffffffffffffffffffffffffff1673ffffffffffffffffffffffffffffffffffffffff1673ffffffffffffffffffffffffffffffffffffffff168152602001600182018054611605906148a4565b80601f0160208091040260200160405190810160405280929190818152602001828054611631906148a4565b801561167e5780601f106116535761010080835404028352916020019161167e565b820191906000526020600020905b81548152906001019060200180831161166157829003601f168201915b505050505081526020016002820160009054906101000a900473ffffffffffffffffffffffffffffffffffffffff1673ffffffffffffffffffffffffffffffffffffffff1673ffffffffffffffffffffffffffffffffffffffff16815250508282815181106116f0576116ef614171565b5b6020026020010181905250808060010191505061150a565b508091505090565b6005602052816000526040600020818154811061172c57600080fd5b906000526020600020016000915091509054906101000a900473ffffffffffffffffffffffffffffffffffffffff1681565b600073ffffffffffffffffffffffffffffffffffffffff16600460008773ffffffffffffffffffffffffffffffffffffffff1673ffffffffffffffffffffffffffffffffffffffff16815260200190815260200160002060000160009054906101000a900473ffffffffffffffffffffffffffffffffffffffff1673ffffffffffffffffffffffffffffffffffffffff161461182f576040517f08c379a000000000000000000000000000000000000000000000000000000000815260040161182690614921565b60405180910390fd5b600073ffffffffffffffffffffffffffffffffffffffff168573ffffffffffffffffffffffffffffffffffffffff160361189e576040517f08c379a00000000000000000000000000000000000000000000000000000000081526004016118959061498d565b60405180910390fd5b8373ffffffffffffffffffffffffffffffffffffffff16600360008673ffffffffffffffffffffffffffffffffffffffff1673ffffffffffffffffffffffffffffffffffffffff16815260200190815260200160002060000160009054906101000a900473ffffffffffffffffffffffffffffffffffffffff1673ffffffffffffffffffffffffffffffffffffffff161461196e576040517f08c379a0000000000000000000000000000000000000000000000000000000008152600401611965906149f9565b60405180910390fd5b600083116119b1576040517f08c379a00000000000000000000000000000000000000000000000000000000081526004016119a890614a65565b60405180910390fd5b828210156119f4576040517f08c379a00000000000000000000000000000000000000000000000000000000081526004016119eb90614af7565b60405180910390fd5b60008111611a37576040517f08c379a0000000000000000000000000000000000000000000000000000000008152600401611a2e90614b63565b60405180910390fd5b81600160009054906101000a900473ffffffffffffffffffffffffffffffffffffffff1673ffffffffffffffffffffffffffffffffffffffff166370a08231336040518263ffffffff1660e01b8152600401611a939190613b8e565b602060405180830381865afa158015611ab0573d6000803e3d6000fd5b505050506040513d601f19601f82011682018060405250810190611ad49190614b98565b1015611b15576040517f08c379a0000000000000000000000000000000000000000000000000000000008152600401611b0c90614c11565b60405180910390fd5b81600160009054906101000a900473ffffffffffffffffffffffffffffffffffffffff1673ffffffffffffffffffffffffffffffffffffffff1663dd62ed3e33306040518363ffffffff1660e01b8152600401611b73929190614c31565b602060405180830381865afa158015611b90573d6000803e3d6000fd5b505050506040513d601f19601f82011682018060405250810190611bb49190614b98565b1015611bf5576040517f08c379a0000000000000000000000000000000000000000000000000000000008152600401611bec90614ccc565b60405180910390fd5b600160009054906101000a900473ffffffffffffffffffffffffffffffffffffffff1673ffffffffffffffffffffffffffffffffffffffff166323b872dd3330856040518463ffffffff1660e01b8152600401611c5493929190614cec565b6020604051808303816000875af1158015611c73573d6000803e3d6000fd5b505050506040513d601f19601f82011682018060405250810190611c9791906147dc565b611cd6576040517f08c379a0000000000000000000000000000000000000000000000000000000008152600401611ccd90614855565b60405180910390fd5b611cdf846132f9565b6040518061016001604052808673ffffffffffffffffffffffffffffffffffffffff1681526020018573ffffffffffffffffffffffffffffffffffffffff1681526020013373ffffffffffffffffffffffffffffffffffffffff1681526020018481526020018381526020018281526020016000815260200161012c42611d6691906144eb565b815260200160001515815260200160001515815260200160001515815250600460008773ffffffffffffffffffffffffffffffffffffffff1673ffffffffffffffffffffffffffffffffffffffff16815260200190815260200160002060008201518160000160006101000a81548173ffffffffffffffffffffffffffffffffffffffff021916908373ffffffffffffffffffffffffffffffffffffffff16021790555060208201518160010160006101000a81548173ffffffffffffffffffffffffffffffffffffffff021916908373ffffffffffffffffffffffffffffffffffffffff16021790555060408201518160020160006101000a81548173ffffffffffffffffffffffffffffffffffffffff021916908373ffffffffffffffffffffffffffffffffffffffff160217905550606082015181600301556080820151816004015560a0820151816005015560c0820151816006015560e082015181600701556101008201518160080160006101000a81548160ff0219169083151502179055506101208201518160080160016101000a81548160ff0219169083151502179055506101408201518160080160026101000a81548160ff021916908315150217905550905050600560008573ffffffffffffffffffffffffffffffffffffffff1673ffffffffffffffffffffffffffffffffffffffff168152602001908152602001600020859080600181540180825580915050600190039060005260206000200160009091909190916101000a81548173ffffffffffffffffffffffffffffffffffffffff021916908373ffffffffffffffffffffffffffffffffffffffff1602179055505050505050565b3373ffffffffffffffffffffffffffffffffffffffff16600360003373ffffffffffffffffffffffffffffffffffffffff1673ffffffffffffffffffffffffffffffffffffffff16815260200190815260200160002060000160009054906101000a900473ffffffffffffffffffffffffffffffffffffffff1673ffffffffffffffffffffffffffffffffffffffff16146120a7576040517f08c379a000000000000000000000000000000000000000000000000000000000815260040161209e90614289565b60405180910390fd5b8073ffffffffffffffffffffffffffffffffffffffff16600460008373ffffffffffffffffffffffffffffffffffffffff1673ffffffffffffffffffffffffffffffffffffffff16815260200190815260200160002060000160009054906101000a900473ffffffffffffffffffffffffffffffffffffffff1673ffffffffffffffffffffffffffffffffffffffff1614612177576040517f08c379a000000000000000000000000000000000000000000000000000000000815260040161216e906142f5565b60405180910390fd5b3373ffffffffffffffffffffffffffffffffffffffff16600460008373ffffffffffffffffffffffffffffffffffffffff1673ffffffffffffffffffffffffffffffffffffffff16815260200190815260200160002060010160009054906101000a900473ffffffffffffffffffffffffffffffffffffffff1673ffffffffffffffffffffffffffffffffffffffff1614612247576040517f08c379a000000000000000000000000000000000000000000000000000000000815260040161223e90614d95565b60405180910390fd5b600460008273ffffffffffffffffffffffffffffffffffffffff1673ffffffffffffffffffffffffffffffffffffffff1681526020019081526020016000206007015442106122cb576040517f08c379a00000000000000000000000000000000000000000000000000000000081526004016122c290614e01565b60405180910390fd5b60001515600460008373ffffffffffffffffffffffffffffffffffffffff1673ffffffffffffffffffffffffffffffffffffffff16815260200190815260200160002060080160009054906101000a900460ff16151514612361576040517f08c379a000000000000000000000000000000000000000000000000000000000815260040161235890614e6d565b60405180910390fd5b61236a336132f9565b6001600460008373ffffffffffffffffffffffffffffffffffffffff1673ffffffffffffffffffffffffffffffffffffffff16815260200190815260200160002060080160006101000a81548160ff02191690831515021790555050565b600073ffffffffffffffffffffffffffffffffffffffff16600360003373ffffffffffffffffffffffffffffffffffffffff1673ffffffffffffffffffffffffffffffffffffffff16815260200190815260200160002060000160009054906101000a900473ffffffffffffffffffffffffffffffffffffffff1673ffffffffffffffffffffffffffffffffffffffff1614612499576040517f08c379a000000000000000000000000000000000000000000000000000000000815260040161249090614ed9565b60405180910390fd5b60405180606001604052803373ffffffffffffffffffffffffffffffffffffffff168152602001828152602001600073ffffffffffffffffffffffffffffffffffffffff16815250600360003373ffffffffffffffffffffffffffffffffffffffff1673ffffffffffffffffffffffffffffffffffffffff16815260200190815260200160002060008201518160000160006101000a81548173ffffffffffffffffffffffffffffffffffffffff021916908373ffffffffffffffffffffffffffffffffffffffff160217905550602082015181600101908161257c919061509b565b5060408201518160020160006101000a81548173ffffffffffffffffffffffffffffffffffffffff021916908373ffffffffffffffffffffffffffffffffffffffff1602179055509050506002339080600181540180825580915050600190039060005260206000200160009091909190916101000a81548173ffffffffffffffffffffffffffffffffffffffff021916908373ffffffffffffffffffffffffffffffffffffffff16021790555050565b8073ffffffffffffffffffffffffffffffffffffffff16600460008373ffffffffffffffffffffffffffffffffffffffff1673ffffffffffffffffffffffffffffffffffffffff16815260200190815260200160002060000160009054906101000a900473ffffffffffffffffffffffffffffffffffffffff1673ffffffffffffffffffffffffffffffffffffffff16146126fd576040517f08c379a00000000000000000000000000000000000000000000000000000000081526004016126f4906142f5565b60405180910390fd5b3373ffffffffffffffffffffffffffffffffffffffff16600460008373ffffffffffffffffffffffffffffffffffffffff1673ffffffffffffffffffffffffffffffffffffffff16815260200190815260200160002060020160009054906101000a900473ffffffffffffffffffffffffffffffffffffffff1673ffffffffffffffffffffffffffffffffffffffff16146127cd576040517f08c379a00000000000000000000000000000000000000000000000000000000081526004016127c4906151b9565b60405180910390fd5b600460008273ffffffffffffffffffffffffffffffffffffffff1673ffffffffffffffffffffffffffffffffffffffff16815260200190815260200160002060080160009054906101000a900460ff1661285c576040517f08c379a0000000000000000000000000000000000000000000000000000000008152600401612853906143f3565b60405180910390fd5b600460008273ffffffffffffffffffffffffffffffffffffffff1673ffffffffffffffffffffffffffffffffffffffff16815260200190815260200160002060080160019054906101000a900460ff166128eb576040517f08c379a00000000000000000000000000000000000000000000000000000000081526004016128e290614669565b60405180910390fd5b600460008273ffffffffffffffffffffffffffffffffffffffff1673ffffffffffffffffffffffffffffffffffffffff16815260200190815260200160002060080160029054906101000a900460ff161561297b576040517f08c379a00000000000000000000000000000000000000000000000000000000081526004016129729061524b565b60405180910390fd5b61012c600460008373ffffffffffffffffffffffffffffffffffffffff1673ffffffffffffffffffffffffffffffffffffffff16815260200190815260200160002060050154600460008473ffffffffffffffffffffffffffffffffffffffff1673ffffffffffffffffffffffffffffffffffffffff16815260200190815260200160002060060154612a0e91906144eb565b612a1891906144eb565b4210612a59576040517f08c379a0000000000000000000000000000000000000000000000000000000008152600401612a50906152b7565b60405180910390fd5b6000600460008373ffffffffffffffffffffffffffffffffffffffff1673ffffffffffffffffffffffffffffffffffffffff16815260200190815260200160002060080160026101000a81548160ff02191690831515021790555050565b60008054906101000a900473ffffffffffffffffffffffffffffffffffffffff1681565b60036020528060005260406000206000915090508060000160009054906101000a900473ffffffffffffffffffffffffffffffffffffffff1690806001018054612b24906148a4565b80601f0160208091040260200160405190810160405280929190818152602001828054612b50906148a4565b8015612b9d5780601f10612b7257610100808354040283529160200191612b9d565b820191906000526020600020905b815481529060010190602001808311612b8057829003601f168201915b5050505050908060020160009054906101000a900473ffffffffffffffffffffffffffffffffffffffff16905083565b3373ffffffffffffffffffffffffffffffffffffffff16600360003373ffffffffffffffffffffffffffffffffffffffff1673ffffffffffffffffffffffffffffffffffffffff16815260200190815260200160002060000160009054906101000a900473ffffffffffffffffffffffffffffffffffffffff1673ffffffffffffffffffffffffffffffffffffffff1614612c9d576040517f08c379a0000000000000000000000000000000000000000000000000000000008152600401612c9490614289565b60405180910390fd5b6000612ca761362a565b9050600073ffffffffffffffffffffffffffffffffffffffff168173ffffffffffffffffffffffffffffffffffffffff1603612d18576040517f08c379a0000000000000000000000000000000000000000000000000000000008152600401612d0f90615323565b60405180910390fd5b42600460008373ffffffffffffffffffffffffffffffffffffffff1673ffffffffffffffffffffffffffffffffffffffff1681526020019081526020016000206006018190555050565b8073ffffffffffffffffffffffffffffffffffffffff16600460008373ffffffffffffffffffffffffffffffffffffffff1673ffffffffffffffffffffffffffffffffffffffff16815260200190815260200160002060000160009054906101000a900473ffffffffffffffffffffffffffffffffffffffff1673ffffffffffffffffffffffffffffffffffffffff1614612e32576040517f08c379a0000000000000000000000000000000000000000000000000000000008152600401612e29906142f5565b60405180910390fd5b3373ffffffffffffffffffffffffffffffffffffffff16600460008373ffffffffffffffffffffffffffffffffffffffff1673ffffffffffffffffffffffffffffffffffffffff16815260200190815260200160002060020160009054906101000a900473ffffffffffffffffffffffffffffffffffffffff1673ffffffffffffffffffffffffffffffffffffffff1614612f02576040517f08c379a0000000000000000000000000000000000000000000000000000000008152600401612ef9906153b5565b60405180910390fd5b600460008273ffffffffffffffffffffffffffffffffffffffff1673ffffffffffffffffffffffffffffffffffffffff16815260200190815260200160002060080160009054906101000a900460ff1615612f92576040517f08c379a0000000000000000000000000000000000000000000000000000000008152600401612f8990615421565b60405180910390fd5b600460008273ffffffffffffffffffffffffffffffffffffffff1673ffffffffffffffffffffffffffffffffffffffff16815260200190815260200160002060070154421015613017576040517f08c379a000000000000000000000000000000000000000000000000000000000815260040161300e9061548d565b60405180910390fd5b600160009054906101000a900473ffffffffffffffffffffffffffffffffffffffff1673ffffffffffffffffffffffffffffffffffffffff1663a9059cbb33600460008573ffffffffffffffffffffffffffffffffffffffff1673ffffffffffffffffffffffffffffffffffffffff168152602001908152602001600020600401546040518363ffffffff1660e01b81526004016130b6929190614787565b6020604051808303816000875af11580156130d5573d6000803e3d6000fd5b505050506040513d601f19601f820116820180604052508101906130f991906147dc565b50600460008273ffffffffffffffffffffffffffffffffffffffff1673ffffffffffffffffffffffffffffffffffffffff168152602001908152602001600020600080820160006101000a81549073ffffffffffffffffffffffffffffffffffffffff02191690556001820160006101000a81549073ffffffffffffffffffffffffffffffffffffffff02191690556002820160006101000a81549073ffffffffffffffffffffffffffffffffffffffff0219169055600382016000905560048201600090556005820160009055600682016000905560078201600090556008820160006101000a81549060ff02191690556008820160016101000a81549060ff02191690556008820160026101000a81549060ff0219169055505050565b60046020528060005260406000206000915090508060000160009054906101000a900473ffffffffffffffffffffffffffffffffffffffff16908060010160009054906101000a900473ffffffffffffffffffffffffffffffffffffffff16908060020160009054906101000a900473ffffffffffffffffffffffffffffffffffffffff16908060030154908060040154908060050154908060060154908060070154908060080160009054906101000a900460ff16908060080160019054906101000a900460ff16908060080160029054906101000a900460ff1690508b565b6000600560008373ffffffffffffffffffffffffffffffffffffffff1673ffffffffffffffffffffffffffffffffffffffff16815260200190815260200160002090506000818054905090506000805b828110156135cb57600084828154811061336657613365614171565b5b9060005260206000200160009054906101000a900473ffffffffffffffffffffffffffffffffffffffff169050600460008273ffffffffffffffffffffffffffffffffffffffff1673ffffffffffffffffffffffffffffffffffffffff16815260200190815260200160002060080160019054906101000a900460ff168061342f575042600460008373ffffffffffffffffffffffffffffffffffffffff1673ffffffffffffffffffffffffffffffffffffffff16815260200190815260200160002060070154105b1561355457600460008273ffffffffffffffffffffffffffffffffffffffff1673ffffffffffffffffffffffffffffffffffffffff168152602001908152602001600020600080820160006101000a81549073ffffffffffffffffffffffffffffffffffffffff02191690556001820160006101000a81549073ffffffffffffffffffffffffffffffffffffffff02191690556002820160006101000a81549073ffffffffffffffffffffffffffffffffffffffff0219169055600382016000905560048201600090556005820160009055600682016000905560078201600090556008820160006101000a81549060ff02191690556008820160016101000a81549060ff02191690556008820160026101000a81549060ff021916905550506135bd565b80858480613561906141cf565b95508154811061357457613573614171565b5b9060005260206000200160006101000a81548173ffffffffffffffffffffffffffffffffffffffff021916908373ffffffffffffffffffffffffffffffffffffffff1602179055505b508080600101915050613349565b505b808380549050111561362457828054806135ea576135e96154ad565b5b6001900381819060005260206000200160006101000a81549073ffffffffffffffffffffffffffffffffffffffff021916905590556135cd565b50505050565b600080613635610316565b9050600081510361364a57600091505061379f565b6000815167ffffffffffffffff81111561366757613666613eac565b5b6040519080825280602002602001820160405280156136955781602001602082028036833780820191505090505b50905060005b8251811015613718578281815181106136b7576136b6614171565b5b6020026020010151606001518382815181106136d6576136d5614171565b5b6020026020010151608001516136ec919061550b565b8282815181106136ff576136fe614171565b5b602002602001018181525050808060010191505061369b565b5060008060005b8351811015613778578284828151811061373c5761373b614171565b5b6020026020010151111561376b5783818151811061375d5761375c614171565b5b602002602001015192508091505b808060010191505061371f565b5083818151811061378c5761378b614171565b5b6020026020010151600001519450505050505b90565b604051806101600160405280600073ffffffffffffffffffffffffffffffffffffffff168152602001600073ffffffffffffffffffffffffffffffffffffffff168152602001600073ffffffffffffffffffffffffffffffffffffffff16815260200160008152602001600081526020016000815260200160008152602001600081526020016000151581526020016000151581526020016000151581525090565b6040518060600160405280600073ffffffffffffffffffffffffffffffffffffffff16815260200160608152602001600073ffffffffffffffffffffffffffffffffffffffff1681525090565b600081519050919050565b600082825260208201905092915050565b6000819050602082019050919050565b600073ffffffffffffffffffffffffffffffffffffffff82169050919050565b60006138e8826138bd565b9050919050565b6138f8816138dd565b82525050565b6000819050919050565b613911816138fe565b82525050565b60008115159050919050565b61392c81613917565b82525050565b6101608201600082015161394960008501826138ef565b50602082015161395c60208501826138ef565b50604082015161396f60408501826138ef565b5060608201516139826060850182613908565b5060808201516139956080850182613908565b5060a08201516139a860a0850182613908565b5060c08201516139bb60c0850182613908565b5060e08201516139ce60e0850182613908565b506101008201516139e3610100850182613923565b506101208201516139f8610120850182613923565b50610140820151613a0d610140850182613923565b50505050565b6000613a1f8383613932565b6101608301905092915050565b6000602082019050919050565b6000613a4482613891565b613a4e818561389c565b9350613a59836138ad565b8060005b83811015613a8a578151613a718882613a13565b9750613a7c83613a2c565b925050600181019050613a5d565b5085935050505092915050565b60006020820190508181036000830152613ab18184613a39565b905092915050565b6000604051905090565b600080fd5b600080fd5b613ad6816138dd565b8114613ae157600080fd5b50565b600081359050613af381613acd565b92915050565b600060208284031215613b0f57613b0e613ac3565b5b6000613b1d84828501613ae4565b91505092915050565b613b2f816138fe565b8114613b3a57600080fd5b50565b600081359050613b4c81613b26565b92915050565b600060208284031215613b6857613b67613ac3565b5b6000613b7684828501613b3d565b91505092915050565b613b88816138dd565b82525050565b6000602082019050613ba36000830184613b7f565b92915050565b6000819050919050565b6000613bce613bc9613bc4846138bd565b613ba9565b6138bd565b9050919050565b6000613be082613bb3565b9050919050565b6000613bf282613bd5565b9050919050565b613c0281613be7565b82525050565b6000602082019050613c1d6000830184613bf9565b92915050565b600081519050919050565b600082825260208201905092915050565b6000819050602082019050919050565b600081519050919050565b600082825260208201905092915050565b60005b83811015613c89578082015181840152602081019050613c6e565b60008484015250505050565b6000601f19601f8301169050919050565b6000613cb182613c4f565b613cbb8185613c5a565b9350613ccb818560208601613c6b565b613cd481613c95565b840191505092915050565b6000606083016000830151613cf760008601826138ef565b5060208301518482036020860152613d0f8282613ca6565b9150506040830151613d2460408601826138ef565b508091505092915050565b6000613d3b8383613cdf565b905092915050565b6000602082019050919050565b6000613d5b82613c23565b613d658185613c2e565b935083602082028501613d7785613c3f565b8060005b85811015613db35784840389528151613d948582613d2f565b9450613d9f83613d43565b925060208a01995050600181019050613d7b565b50829750879550505050505092915050565b60006020820190508181036000830152613ddf8184613d50565b905092915050565b60008060408385031215613dfe57613dfd613ac3565b5b6000613e0c85828601613ae4565b9250506020613e1d85828601613b3d565b9150509250929050565b600080600080600060a08688031215613e4357613e42613ac3565b5b6000613e5188828901613ae4565b9550506020613e6288828901613ae4565b9450506040613e7388828901613b3d565b9350506060613e8488828901613b3d565b9250506080613e9588828901613b3d565b9150509295509295909350565b600080fd5b600080fd5b7f4e487b7100000000000000000000000000000000000000000000000000000000600052604160045260246000fd5b613ee482613c95565b810181811067ffffffffffffffff82111715613f0357613f02613eac565b5b80604052505050565b6000613f16613ab9565b9050613f228282613edb565b919050565b600067ffffffffffffffff821115613f4257613f41613eac565b5b613f4b82613c95565b9050602081019050919050565b82818337600083830152505050565b6000613f7a613f7584613f27565b613f0c565b905082815260208101848484011115613f9657613f95613ea7565b5b613fa1848285613f58565b509392505050565b600082601f830112613fbe57613fbd613ea2565b5b8135613fce848260208601613f67565b91505092915050565b600060208284031215613fed57613fec613ac3565b5b600082013567ffffffffffffffff81111561400b5761400a613ac8565b5b61401784828501613fa9565b91505092915050565b600082825260208201905092915050565b600061403c82613c4f565b6140468185614020565b9350614056818560208601613c6b565b61405f81613c95565b840191505092915050565b600060608201905061407f6000830186613b7f565b81810360208301526140918185614031565b90506140a06040830184613b7f565b949350505050565b6140b1816138fe565b82525050565b6140c081613917565b82525050565b6000610160820190506140dc600083018e613b7f565b6140e9602083018d613b7f565b6140f6604083018c613b7f565b614103606083018b6140a8565b614110608083018a6140a8565b61411d60a08301896140a8565b61412a60c08301886140a8565b61413760e08301876140a8565b6141456101008301866140b7565b6141536101208301856140b7565b6141616101408301846140b7565b9c9b505050505050505050505050565b7f4e487b7100000000000000000000000000000000000000000000000000000000600052603260045260246000fd5b7f4e487b7100000000000000000000000000000000000000000000000000000000600052601160045260246000fd5b60006141da826138fe565b91507fffffffffffffffffffffffffffffffffffffffffffffffffffffffffffffffff820361420c5761420b6141a0565b5b600182019050919050565b7f4f6e6c79207072696e7465722063616e2063616c6c20746869732066756e637460008201527f696f6e0000000000000000000000000000000000000000000000000000000000602082015250565b6000614273602383614020565b915061427e82614217565b604082019050919050565b600060208201905081810360008301526142a281614266565b9050919050565b7f4f7264657220646f6573206e6f74206578697374000000000000000000000000600082015250565b60006142df601483614020565b91506142ea826142a9565b602082019050919050565b6000602082019050818103600083015261430e816142d2565b9050919050565b7f4f6e6c7920736572766963652070726f76696465722063616e20636f6d706c6560008201527f7465206f72646572000000000000000000000000000000000000000000000000602082015250565b6000614371602883614020565b915061437c82614315565b604082019050919050565b600060208201905081810360008301526143a081614364565b9050919050565b7f4f72646572206e6f74207369676e656400000000000000000000000000000000600082015250565b60006143dd601083614020565b91506143e8826143a7565b602082019050919050565b6000602082019050818103600083015261440c816143d0565b9050919050565b7f4f72646572206e6f742073746172746564000000000000000000000000000000600082015250565b6000614449601183614020565b915061445482614413565b602082019050919050565b600060208201905081810360008301526144788161443c565b9050919050565b7f4f7264657220616c726561647920636f6d706c65746564000000000000000000600082015250565b60006144b5601783614020565b91506144c08261447f565b602082019050919050565b600060208201905081810360008301526144e4816144a8565b9050919050565b60006144f6826138fe565b9150614501836138fe565b9250828201905080821115614519576145186141a0565b5b92915050565b7f4f72646572206475726174696f6e206578706972656400000000000000000000600082015250565b6000614555601683614020565b91506145608261451f565b602082019050919050565b6000602082019050818103600083015261458481614548565b9050919050565b7f4f6e6c7920736572766963652070726f76696465722063616e207472616e736660008201527f65722066756e6473000000000000000000000000000000000000000000000000602082015250565b60006145e7602883614020565b91506145f28261458b565b604082019050919050565b60006020820190508181036000830152614616816145da565b9050919050565b7f4f72646572206e6f7420636f6d706c657465642062792070726f766964657200600082015250565b6000614653601f83614020565b915061465e8261461d565b602082019050919050565b6000602082019050818103600083015261468281614646565b9050919050565b7f4f72646572207265706f7274656420617320756e636f6d706c6574652062792060008201527f637573746f6d6572000000000000000000000000000000000000000000000000602082015250565b60006146e5602883614020565b91506146f082614689565b604082019050919050565b60006020820190508181036000830152614714816146d8565b9050919050565b7f5265706f7274696e672074696d65206e6f742065787069726564207965740000600082015250565b6000614751601e83614020565b915061475c8261471b565b602082019050919050565b6000602082019050818103600083015261478081614744565b9050919050565b600060408201905061479c6000830185613b7f565b6147a960208301846140a8565b9392505050565b6147b981613917565b81146147c457600080fd5b50565b6000815190506147d6816147b0565b92915050565b6000602082840312156147f2576147f1613ac3565b5b6000614800848285016147c7565b91505092915050565b7f546f6b656e207472616e73666572206661696c65640000000000000000000000600082015250565b600061483f601583614020565b915061484a82614809565b602082019050919050565b6000602082019050818103600083015261486e81614832565b9050919050565b7f4e487b7100000000000000000000000000000000000000000000000000000000600052602260045260246000fd5b600060028204905060018216806148bc57607f821691505b6020821081036148cf576148ce614875565b5b50919050565b7f4f7264657220616c726561647920657869737473000000000000000000000000600082015250565b600061490b601483614020565b9150614916826148d5565b602082019050919050565b6000602082019050818103600083015261493a816148fe565b9050919050565b7f496e76616c6964206f7264657220494400000000000000000000000000000000600082015250565b6000614977601083614020565b915061498282614941565b602082019050919050565b600060208201905081810360008301526149a68161496a565b9050919050565b7f5072696e74657220646f6573206e6f7420657869737400000000000000000000600082015250565b60006149e3601683614020565b91506149ee826149ad565b602082019050919050565b60006020820190508181036000830152614a12816149d6565b9050919050565b7f5072696365206d7573742062652067726561746572207468616e203000000000600082015250565b6000614a4f601c83614020565b9150614a5a82614a19565b602082019050919050565b60006020820190508181036000830152614a7e81614a42565b9050919050565b7f41637475616c207072696365206d75737420626520677265617465722074686160008201527f6e206f7220657175616c20746f206d696e696d616c2070726963650000000000602082015250565b6000614ae1603b83614020565b9150614aec82614a85565b604082019050919050565b60006020820190508181036000830152614b1081614ad4565b9050919050565b7f4475726174696f6e206d7573742062652067726561746572207468616e203000600082015250565b6000614b4d601f83614020565b9150614b5882614b17565b602082019050919050565b60006020820190508181036000830152614b7c81614b40565b9050919050565b600081519050614b9281613b26565b92915050565b600060208284031215614bae57614bad613ac3565b5b6000614bbc84828501614b83565b91505092915050565b7f496e73756666696369656e742062616c616e6365000000000000000000000000600082015250565b6000614bfb601483614020565b9150614c0682614bc5565b602082019050919050565b60006020820190508181036000830152614c2a81614bee565b9050919050565b6000604082019050614c466000830185613b7f565b614c536020830184613b7f565b9392505050565b7f436f6e7472616374206e6f7420617070726f76656420746f207472616e73666560008201527f7220746f6b656e73000000000000000000000000000000000000000000000000602082015250565b6000614cb6602883614020565b9150614cc182614c5a565b604082019050919050565b60006020820190508181036000830152614ce581614ca9565b9050919050565b6000606082019050614d016000830186613b7f565b614d0e6020830185613b7f565b614d1b60408301846140a8565b949350505050565b7f4f6e6c7920736572766963652070726f76696465722063616e207369676e206f60008201527f7264657200000000000000000000000000000000000000000000000000000000602082015250565b6000614d7f602483614020565b9150614d8a82614d23565b604082019050919050565b60006020820190508181036000830152614dae81614d72565b9050919050565b7f4f72646572206578706972656400000000000000000000000000000000000000600082015250565b6000614deb600d83614020565b9150614df682614db5565b602082019050919050565b60006020820190508181036000830152614e1a81614dde565b9050919050565b7f4f7264657220616c7265616479207369676e6564000000000000000000000000600082015250565b6000614e57601483614020565b9150614e6282614e21565b602082019050919050565b60006020820190508181036000830152614e8681614e4a565b9050919050565b7f5072696e74657220616c72656164792072656769737465726564000000000000600082015250565b6000614ec3601a83614020565b9150614ece82614e8d565b602082019050919050565b60006020820190508181036000830152614ef281614eb6565b9050919050565b60008190508160005260206000209050919050565b60006020601f8301049050919050565b600082821b905092915050565b600060088302614f5b7fffffffffffffffffffffffffffffffffffffffffffffffffffffffffffffffff82614f1e565b614f658683614f1e565b95508019841693508086168417925050509392505050565b6000614f98614f93614f8e846138fe565b613ba9565b6138fe565b9050919050565b6000819050919050565b614fb283614f7d565b614fc6614fbe82614f9f565b848454614f2b565b825550505050565b600090565b614fdb614fce565b614fe6818484614fa9565b505050565b5b8181101561500a57614fff600082614fd3565b600181019050614fec565b5050565b601f82111561504f5761502081614ef9565b61502984614f0e565b81016020851015615038578190505b61504c61504485614f0e565b830182614feb565b50505b505050565b600082821c905092915050565b600061507260001984600802615054565b1980831691505092915050565b600061508b8383615061565b9150826002028217905092915050565b6150a482613c4f565b67ffffffffffffffff8111156150bd576150bc613eac565b5b6150c782546148a4565b6150d282828561500e565b600060209050601f83116001811461510557600084156150f3578287015190505b6150fd858261507f565b865550615165565b601f19841661511386614ef9565b60005b8281101561513b57848901518255600182019150602085019450602081019050615116565b868310156151585784890151615154601f891682615061565b8355505b6001600288020188555050505b505050505050565b7f4f6e6c7920637573746f6d65722063616e20636f6e6669726d206f7264657200600082015250565b60006151a3601f83614020565b91506151ae8261516d565b602082019050919050565b600060208201905081810360008301526151d281615196565b9050919050565b7f4f7264657220616c7265616479207265706f7274656420617320756e636f6d7060008201527f6c65746520627920637573746f6d657200000000000000000000000000000000602082015250565b6000615235603083614020565b9150615240826151d9565b604082019050919050565b6000602082019050818103600083015261526481615228565b9050919050565b7f5265706f72742074696d65206578706972656400000000000000000000000000600082015250565b60006152a1601383614020565b91506152ac8261526b565b602082019050919050565b600060208201905081810360008301526152d081615294565b9050919050565b7f4e6f20616374697665206f726465727320746f20657865637574650000000000600082015250565b600061530d601b83614020565b9150615318826152d7565b602082019050919050565b6000602082019050818103600083015261533c81615300565b9050919050565b7f4f6e6c7920637573746f6d65722063616e20726566756e64206f72646572207260008201527f6571756573740000000000000000000000000000000000000000000000000000602082015250565b600061539f602683614020565b91506153aa82615343565b604082019050919050565b600060208201905081810360008301526153ce81615392565b9050919050565b7f4f72646572207265717565737420616c7265616479207369676e656400000000600082015250565b600061540b601c83614020565b9150615416826153d5565b602082019050919050565b6000602082019050818103600083015261543a816153fe565b9050919050565b7f4f726465722072657175657374206973206e6f74206578706972656420796574600082015250565b6000615477602083614020565b915061548282615441565b602082019050919050565b600060208201905081810360008301526154a68161546a565b9050919050565b7f4e487b7100000000000000000000000000000000000000000000000000000000600052603160045260246000fd5b7f4e487b7100000000000000000000000000000000000000000000000000000000600052601260045260246000fd5b6000615516826138fe565b9150615521836138fe565b925082615531576155306154dc565b5b82820490509291505056fea2646970667358221220987abead52c18c47ef6337e74d96164b059b9b74d80b542e29756063efb6393a64736f6c634300081c0033",
  "linkReferences": {},
  "deployedLinkReferences": {}
}