{
  "_format": "hh-sol-artifact-1",
  "contractName": "Formicarium",
  "sourceName": "contracts/Formicarium.sol",
  "abi": [
    {
      "inputs": [
        {
          "internalType": "address",
          "name": "_paymentToken",
          "type": "address"
        }
      ],
      "stateMutability": "nonpayable",
      "type": "constructor"
    },
    {
      "anonymous": false,
      "inputs": [
        {
          "indexed": true,
          "internalType": "address",
          "name": "orderId",
          "type": "address"
        },
        {
          "indexed": true,
          "internalType": "address",
          "name": "printerId",
          "type": "address"
        }
      ],
      "name": "OrderCompleted",
      "type": "event"
    },
    {
      "anonymous": false,
      "inputs": [
        {
          "indexed": true,
          "internalType": "address",
          "name": "orderId",
          "type": "address"
        },
        {
          "indexed": true,
          "internalType": "address",
          "name": "printerId",
          "type": "address"
        },
        {
          "indexed": false,
          "internalType": "uint256",
          "name": "minimalPrice",
          "type": "uint256"
        },
        {
          "indexed": false,
          "internalType": "uint256",
          "name": "actualPrice",
          "type": "uint256"
        },
        {
          "indexed": false,
          "internalType": "uint256",
          "name": "duration",
          "type": "uint256"
        }
      ],
      "name": "OrderCreated",
      "type": "event"
    },
    {
      "anonymous": false,
      "inputs": [
        {
          "indexed": true,
          "internalType": "address",
          "name": "orderId",
          "type": "address"
        },
        {
          "indexed": true,
          "internalType": "address",
          "name": "printerId",
          "type": "address"
        }
      ],
      "name": "OrderSigned",
      "type": "event"
    },
    {
      "anonymous": false,
      "inputs": [
        {
          "indexed": true,
          "internalType": "address",
          "name": "orderId",
          "type": "address"
        },
        {
          "indexed": true,
          "internalType": "address",
          "name": "printerId",
          "type": "address"
        }
      ],
      "name": "OrderStarted",
      "type": "event"
    },
    {
      "inputs": [
        {
          "internalType": "address",
          "name": "_orderId",
          "type": "address"
        }
      ],
      "name": "completeOrderProvider",
      "outputs": [],
      "stateMutability": "nonpayable",
      "type": "function"
    },
    {
      "inputs": [
        {
          "internalType": "address",
          "name": "_orderId",
          "type": "address"
        },
        {
          "internalType": "address",
          "name": "_printerId",
          "type": "address"
        },
        {
          "internalType": "uint256",
          "name": "_minimalPrice",
          "type": "uint256"
        },
        {
          "internalType": "uint256",
          "name": "_actualPrice",
          "type": "uint256"
        },
        {
          "internalType": "uint256",
          "name": "_duration",
          "type": "uint256"
        }
      ],
      "name": "createOrder",
      "outputs": [],
      "stateMutability": "nonpayable",
      "type": "function"
    },
    {
      "inputs": [],
      "name": "executeNewOrder",
      "outputs": [],
      "stateMutability": "nonpayable",
      "type": "function"
    },
    {
      "inputs": [],
      "name": "getActiveOrders",
      "outputs": [
        {
          "components": [
            {
              "internalType": "address",
              "name": "ID",
              "type": "address"
            },
            {
              "internalType": "address",
              "name": "printerId",
              "type": "address"
            },
            {
              "internalType": "address",
              "name": "customerId",
              "type": "address"
            },
            {
              "internalType": "uint256",
              "name": "minimalPrice",
              "type": "uint256"
            },
            {
              "internalType": "uint256",
              "name": "actualPrice",
              "type": "uint256"
            },
            {
              "internalType": "uint256",
              "name": "duration",
              "type": "uint256"
            },
            {
              "internalType": "uint256",
              "name": "startTime",
              "type": "uint256"
            },
            {
              "internalType": "uint256",
              "name": "expirationTime",
              "type": "uint256"
            },
            {
              "internalType": "bool",
              "name": "isSigned",
              "type": "bool"
            },
            {
              "internalType": "bool",
              "name": "isCompletedProvider",
              "type": "bool"
            },
            {
              "internalType": "bool",
              "name": "isUncompleteCustomer",
              "type": "bool"
            }
          ],
          "internalType": "struct Formicarium.Order[]",
          "name": "",
          "type": "tuple[]"
        }
      ],
      "stateMutability": "view",
      "type": "function"
    },
    {
      "inputs": [],
      "name": "getAllPrinters",
      "outputs": [
        {
          "components": [
            {
              "internalType": "address",
              "name": "ID",
              "type": "address"
            },
            {
              "internalType": "string",
              "name": "printerDetails",
              "type": "string"
            },
            {
              "internalType": "address",
              "name": "currentOrderId",
              "type": "address"
            }
          ],
          "internalType": "struct Formicarium.Printer[]",
          "name": "",
          "type": "tuple[]"
        }
      ],
      "stateMutability": "view",
      "type": "function"
    },
    {
      "inputs": [],
      "name": "getYourOrders",
      "outputs": [
        {
          "components": [
            {
              "internalType": "address",
              "name": "ID",
              "type": "address"
            },
            {
              "internalType": "address",
              "name": "printerId",
              "type": "address"
            },
            {
              "internalType": "address",
              "name": "customerId",
              "type": "address"
            },
            {
              "internalType": "uint256",
              "name": "minimalPrice",
              "type": "uint256"
            },
            {
              "internalType": "uint256",
              "name": "actualPrice",
              "type": "uint256"
            },
            {
              "internalType": "uint256",
              "name": "duration",
              "type": "uint256"
            },
            {
              "internalType": "uint256",
              "name": "startTime",
              "type": "uint256"
            },
            {
              "internalType": "uint256",
              "name": "expirationTime",
              "type": "uint256"
            },
            {
              "internalType": "bool",
              "name": "isSigned",
              "type": "bool"
            },
            {
              "internalType": "bool",
              "name": "isCompletedProvider",
              "type": "bool"
            },
            {
              "internalType": "bool",
              "name": "isUncompleteCustomer",
              "type": "bool"
            }
          ],
          "internalType": "struct Formicarium.Order[]",
          "name": "",
          "type": "tuple[]"
        }
      ],
      "stateMutability": "view",
      "type": "function"
    },
    {
      "inputs": [
        {
          "internalType": "address",
          "name": "",
          "type": "address"
        }
      ],
      "name": "orders",
      "outputs": [
        {
          "internalType": "address",
          "name": "ID",
          "type": "address"
        },
        {
          "internalType": "address",
          "name": "printerId",
          "type": "address"
        },
        {
          "internalType": "address",
          "name": "customerId",
          "type": "address"
        },
        {
          "internalType": "uint256",
          "name": "minimalPrice",
          "type": "uint256"
        },
        {
          "internalType": "uint256",
          "name": "actualPrice",
          "type": "uint256"
        },
        {
          "internalType": "uint256",
          "name": "duration",
          "type": "uint256"
        },
        {
          "internalType": "uint256",
          "name": "startTime",
          "type": "uint256"
        },
        {
          "internalType": "uint256",
          "name": "expirationTime",
          "type": "uint256"
        },
        {
          "internalType": "bool",
          "name": "isSigned",
          "type": "bool"
        },
        {
          "internalType": "bool",
          "name": "isCompletedProvider",
          "type": "bool"
        },
        {
          "internalType": "bool",
          "name": "isUncompleteCustomer",
          "type": "bool"
        }
      ],
      "stateMutability": "view",
      "type": "function"
    },
    {
      "inputs": [],
      "name": "owner",
      "outputs": [
        {
          "internalType": "address",
          "name": "",
          "type": "address"
        }
      ],
      "stateMutability": "view",
      "type": "function"
    },
    {
      "inputs": [],
      "name": "paymentToken",
      "outputs": [
        {
          "internalType": "contract IERC20",
          "name": "",
          "type": "address"
        }
      ],
      "stateMutability": "view",
      "type": "function"
    },
    {
      "inputs": [
        {
          "internalType": "uint256",
          "name": "",
          "type": "uint256"
        }
      ],
      "name": "printerAddresses",
      "outputs": [
        {
          "internalType": "address",
          "name": "",
          "type": "address"
        }
      ],
      "stateMutability": "view",
      "type": "function"
    },
    {
      "inputs": [
        {
          "internalType": "address",
          "name": "",
          "type": "address"
        }
      ],
      "name": "printers",
      "outputs": [
        {
          "internalType": "address",
          "name": "ID",
          "type": "address"
        },
        {
          "internalType": "string",
          "name": "printerDetails",
          "type": "string"
        },
        {
          "internalType": "address",
          "name": "currentOrderId",
          "type": "address"
        }
      ],
      "stateMutability": "view",
      "type": "function"
    },
    {
      "inputs": [
        {
          "internalType": "address",
          "name": "",
          "type": "address"
        },
        {
          "internalType": "uint256",
          "name": "",
          "type": "uint256"
        }
      ],
      "name": "providerOrders",
      "outputs": [
        {
          "internalType": "address",
          "name": "",
          "type": "address"
        }
      ],
      "stateMutability": "view",
      "type": "function"
    },
    {
      "inputs": [
        {
          "internalType": "address",
          "name": "_orderId",
          "type": "address"
        }
      ],
      "name": "refundOrderRequest",
      "outputs": [],
      "stateMutability": "nonpayable",
      "type": "function"
    },
    {
      "inputs": [
        {
          "internalType": "string",
          "name": "_printerDetails",
          "type": "string"
        }
      ],
      "name": "registerPrinter",
      "outputs": [],
      "stateMutability": "nonpayable",
      "type": "function"
    },
    {
      "inputs": [
        {
          "internalType": "address",
          "name": "_orderId",
          "type": "address"
        }
      ],
      "name": "reportUncompleteOrder",
      "outputs": [],
      "stateMutability": "nonpayable",
      "type": "function"
    },
    {
      "inputs": [
        {
          "internalType": "address",
          "name": "_orderId",
          "type": "address"
        }
      ],
      "name": "signOrder",
      "outputs": [],
      "stateMutability": "nonpayable",
      "type": "function"
    },
    {
      "inputs": [
        {
          "internalType": "address",
          "name": "_orderId",
          "type": "address"
        }
      ],
      "name": "transferFundsProvider",
      "outputs": [],
      "stateMutability": "nonpayable",
      "type": "function"
    }
  ],
  "bytecode": "0x608060405234801561001057600080fd5b50604051615e79380380615e798339818101604052810190610032919061011c565b336000806101000a81548173ffffffffffffffffffffffffffffffffffffffff021916908373ffffffffffffffffffffffffffffffffffffffff16021790555080600160006101000a81548173ffffffffffffffffffffffffffffffffffffffff021916908373ffffffffffffffffffffffffffffffffffffffff16021790555050610149565b600080fd5b600073ffffffffffffffffffffffffffffffffffffffff82169050919050565b60006100e9826100be565b9050919050565b6100f9816100de565b811461010457600080fd5b50565b600081519050610116816100f0565b92915050565b600060208284031215610132576101316100b9565b5b600061014084828501610107565b91505092915050565b615d21806101586000396000f3fe608060405234801561001057600080fd5b506004361061010a5760003560e01c80635fbbd6bf116100a2578063ba0c24c311610071578063ba0c24c31461028f578063c55a5271146102c1578063c8ef627d146102cb578063f40e8471146102e7578063fac4d514146103215761010a565b80635fbbd6bf1461021d5780636a798d80146102395780637ec2b92c146102555780638da5cb5b146102715761010a565b80634dc6d194116100de5780634dc6d194146101975780634e585810146101b5578063518e62db146101e55780635f199a83146102015761010a565b806286e68b1461010f57806306fab27a1461012d57806311174179146101495780633013ce2914610179575b600080fd5b61011761033f565b604051610124919061420f565b60405180910390f35b61014760048036038101906101429190614271565b6108bd565b005b610163600480360381019061015e91906142ca565b610e5a565b6040516101709190614306565b60405180910390f35b610181610e99565b60405161018e9190614380565b60405180910390f35b61019f610ebf565b6040516101ac919061453d565b60405180910390f35b6101cf60048036038101906101ca919061455f565b611127565b6040516101dc9190614306565b60405180910390f35b6101ff60048036038101906101fa919061459f565b611175565b005b61021b60048036038101906102169190614271565b611a57565b005b6102376004803603810190610232919061474f565b611ea2565b005b610253600480360381019061024e9190614271565b612107565b005b61026f600480360381019061026a9190614271565b612591565b005b610279612bfd565b6040516102869190614306565b60405180910390f35b6102a960048036038101906102a49190614271565b612c21565b6040516102b8939291906147e2565b60405180910390f35b6102c9612d13565b005b6102e560048036038101906102e09190614271565b612f02565b005b61030160048036038101906102fc9190614271565b6133b8565b6040516103189b9a9998979695949392919061483e565b60405180910390f35b610329613499565b604051610336919061420f565b60405180910390f35b60606000600560003373ffffffffffffffffffffffffffffffffffffffff1673ffffffffffffffffffffffffffffffffffffffff1681526020019081526020016000209050600080600090505b82805490508110156104dc57600460008483815481106103af576103ae6148e9565b5b9060005260206000200160009054906101000a900473ffffffffffffffffffffffffffffffffffffffff1673ffffffffffffffffffffffffffffffffffffffff1673ffffffffffffffffffffffffffffffffffffffff16815260200190815260200160002060080160009054906101000a900460ff1680156104bb575060046000848381548110610443576104426148e9565b5b9060005260206000200160009054906101000a900473ffffffffffffffffffffffffffffffffffffffff1673ffffffffffffffffffffffffffffffffffffffff1673ffffffffffffffffffffffffffffffffffffffff16815260200190815260200160002060080160019054906101000a900460ff16155b156104cf5781806104cb90614947565b9250505b808060010191505061038c565b5060008167ffffffffffffffff8111156104f9576104f8614624565b5b60405190808252806020026020018201604052801561053257816020015b61051f613f1a565b8152602001906001900390816105175790505b5090506000805b84805490508110156108b2576004600086838154811061055c5761055b6148e9565b5b9060005260206000200160009054906101000a900473ffffffffffffffffffffffffffffffffffffffff1673ffffffffffffffffffffffffffffffffffffffff1673ffffffffffffffffffffffffffffffffffffffff16815260200190815260200160002060080160009054906101000a900460ff1680156106685750600460008683815481106105f0576105ef6148e9565b5b9060005260206000200160009054906101000a900473ffffffffffffffffffffffffffffffffffffffff1673ffffffffffffffffffffffffffffffffffffffff1673ffffffffffffffffffffffffffffffffffffffff16815260200190815260200160002060080160019054906101000a900460ff16155b156108a55760046000868381548110610684576106836148e9565b5b9060005260206000200160009054906101000a900473ffffffffffffffffffffffffffffffffffffffff1673ffffffffffffffffffffffffffffffffffffffff1673ffffffffffffffffffffffffffffffffffffffff168152602001908152602001600020604051806101600160405290816000820160009054906101000a900473ffffffffffffffffffffffffffffffffffffffff1673ffffffffffffffffffffffffffffffffffffffff1673ffffffffffffffffffffffffffffffffffffffff1681526020016001820160009054906101000a900473ffffffffffffffffffffffffffffffffffffffff1673ffffffffffffffffffffffffffffffffffffffff1673ffffffffffffffffffffffffffffffffffffffff1681526020016002820160009054906101000a900473ffffffffffffffffffffffffffffffffffffffff1673ffffffffffffffffffffffffffffffffffffffff1673ffffffffffffffffffffffffffffffffffffffff16815260200160038201548152602001600482015481526020016005820154815260200160068201548152602001600782015481526020016008820160009054906101000a900460ff161515151581526020016008820160019054906101000a900460ff161515151581526020016008820160029054906101000a900460ff16151515158152505083838061088690614947565b945081518110610899576108986148e9565b5b60200260200101819052505b8080600101915050610539565b508194505050505090565b3373ffffffffffffffffffffffffffffffffffffffff16600360003373ffffffffffffffffffffffffffffffffffffffff1673ffffffffffffffffffffffffffffffffffffffff16815260200190815260200160002060000160009054906101000a900473ffffffffffffffffffffffffffffffffffffffff1673ffffffffffffffffffffffffffffffffffffffff161461098d576040517f08c379a000000000000000000000000000000000000000000000000000000000815260040161098490614a01565b60405180910390fd5b8073ffffffffffffffffffffffffffffffffffffffff16600460008373ffffffffffffffffffffffffffffffffffffffff1673ffffffffffffffffffffffffffffffffffffffff16815260200190815260200160002060000160009054906101000a900473ffffffffffffffffffffffffffffffffffffffff1673ffffffffffffffffffffffffffffffffffffffff1614610a5d576040517f08c379a0000000000000000000000000000000000000000000000000000000008152600401610a5490614a6d565b60405180910390fd5b3373ffffffffffffffffffffffffffffffffffffffff16600460008373ffffffffffffffffffffffffffffffffffffffff1673ffffffffffffffffffffffffffffffffffffffff16815260200190815260200160002060010160009054906101000a900473ffffffffffffffffffffffffffffffffffffffff1673ffffffffffffffffffffffffffffffffffffffff1614610b2d576040517f08c379a0000000000000000000000000000000000000000000000000000000008152600401610b2490614aff565b60405180910390fd5b600460008273ffffffffffffffffffffffffffffffffffffffff1673ffffffffffffffffffffffffffffffffffffffff16815260200190815260200160002060080160009054906101000a900460ff16610bbc576040517f08c379a0000000000000000000000000000000000000000000000000000000008152600401610bb390614b6b565b60405180910390fd5b6000600460008373ffffffffffffffffffffffffffffffffffffffff1673ffffffffffffffffffffffffffffffffffffffff1681526020019081526020016000206006015403610c41576040517f08c379a0000000000000000000000000000000000000000000000000000000008152600401610c3890614bd7565b60405180910390fd5b600460008273ffffffffffffffffffffffffffffffffffffffff1673ffffffffffffffffffffffffffffffffffffffff16815260200190815260200160002060080160019054906101000a900460ff1615610cd1576040517f08c379a0000000000000000000000000000000000000000000000000000000008152600401610cc890614c43565b60405180910390fd5b600460008273ffffffffffffffffffffffffffffffffffffffff1673ffffffffffffffffffffffffffffffffffffffff16815260200190815260200160002060050154600460008373ffffffffffffffffffffffffffffffffffffffff1673ffffffffffffffffffffffffffffffffffffffff16815260200190815260200160002060060154610d619190614c63565b4210610da2576040517f08c379a0000000000000000000000000000000000000000000000000000000008152600401610d9990614ce3565b60405180910390fd5b6001600460008373ffffffffffffffffffffffffffffffffffffffff1673ffffffffffffffffffffffffffffffffffffffff16815260200190815260200160002060080160016101000a81548160ff0219169083151502179055503373ffffffffffffffffffffffffffffffffffffffff168173ffffffffffffffffffffffffffffffffffffffff167fe68df90267f7c6aa6a1568f99d08bc248fc2e4933693bde34754ecdacc3068ab60405160405180910390a350565b60028181548110610e6a57600080fd5b906000526020600020016000915054906101000a900473ffffffffffffffffffffffffffffffffffffffff1681565b600160009054906101000a900473ffffffffffffffffffffffffffffffffffffffff1681565b6060600060028054905067ffffffffffffffff811115610ee257610ee1614624565b5b604051908082528060200260200182016040528015610f1b57816020015b610f08613fbc565b815260200190600190039081610f005790505b50905060005b60028054905081101561111f576003600060028381548110610f4657610f456148e9565b5b9060005260206000200160009054906101000a900473ffffffffffffffffffffffffffffffffffffffff1673ffffffffffffffffffffffffffffffffffffffff1673ffffffffffffffffffffffffffffffffffffffff1681526020019081526020016000206040518060600160405290816000820160009054906101000a900473ffffffffffffffffffffffffffffffffffffffff1673ffffffffffffffffffffffffffffffffffffffff1673ffffffffffffffffffffffffffffffffffffffff16815260200160018201805461101c90614d32565b80601f016020809104026020016040519081016040528092919081815260200182805461104890614d32565b80156110955780601f1061106a57610100808354040283529160200191611095565b820191906000526020600020905b81548152906001019060200180831161107857829003601f168201915b505050505081526020016002820160009054906101000a900473ffffffffffffffffffffffffffffffffffffffff1673ffffffffffffffffffffffffffffffffffffffff1673ffffffffffffffffffffffffffffffffffffffff1681525050828281518110611107576111066148e9565b5b60200260200101819052508080600101915050610f21565b508091505090565b6005602052816000526040600020818154811061114357600080fd5b906000526020600020016000915091509054906101000a900473ffffffffffffffffffffffffffffffffffffffff1681565b600073ffffffffffffffffffffffffffffffffffffffff16600460008773ffffffffffffffffffffffffffffffffffffffff1673ffffffffffffffffffffffffffffffffffffffff16815260200190815260200160002060000160009054906101000a900473ffffffffffffffffffffffffffffffffffffffff1673ffffffffffffffffffffffffffffffffffffffff1614611246576040517f08c379a000000000000000000000000000000000000000000000000000000000815260040161123d90614daf565b60405180910390fd5b600073ffffffffffffffffffffffffffffffffffffffff168573ffffffffffffffffffffffffffffffffffffffff16036112b5576040517f08c379a00000000000000000000000000000000000000000000000000000000081526004016112ac90614e1b565b60405180910390fd5b8373ffffffffffffffffffffffffffffffffffffffff16600360008673ffffffffffffffffffffffffffffffffffffffff1673ffffffffffffffffffffffffffffffffffffffff16815260200190815260200160002060000160009054906101000a900473ffffffffffffffffffffffffffffffffffffffff1673ffffffffffffffffffffffffffffffffffffffff1614611385576040517f08c379a000000000000000000000000000000000000000000000000000000000815260040161137c90614e87565b60405180910390fd5b600083116113c8576040517f08c379a00000000000000000000000000000000000000000000000000000000081526004016113bf90614ef3565b60405180910390fd5b8282101561140b576040517f08c379a000000000000000000000000000000000000000000000000000000000815260040161140290614f85565b60405180910390fd5b6000811161144e576040517f08c379a000000000000000000000000000000000000000000000000000000000815260040161144590614ff1565b60405180910390fd5b81600160009054906101000a900473ffffffffffffffffffffffffffffffffffffffff1673ffffffffffffffffffffffffffffffffffffffff166370a08231336040518263ffffffff1660e01b81526004016114aa9190614306565b602060405180830381865afa1580156114c7573d6000803e3d6000fd5b505050506040513d601f19601f820116820180604052508101906114eb9190615026565b101561152c576040517f08c379a00000000000000000000000000000000000000000000000000000000081526004016115239061509f565b60405180910390fd5b81600160009054906101000a900473ffffffffffffffffffffffffffffffffffffffff1673ffffffffffffffffffffffffffffffffffffffff1663dd62ed3e33306040518363ffffffff1660e01b815260040161158a9291906150bf565b602060405180830381865afa1580156115a7573d6000803e3d6000fd5b505050506040513d601f19601f820116820180604052508101906115cb9190615026565b101561160c576040517f08c379a00000000000000000000000000000000000000000000000000000000081526004016116039061515a565b60405180910390fd5b600160009054906101000a900473ffffffffffffffffffffffffffffffffffffffff1673ffffffffffffffffffffffffffffffffffffffff166323b872dd3330856040518463ffffffff1660e01b815260040161166b9392919061517a565b6020604051808303816000875af115801561168a573d6000803e3d6000fd5b505050506040513d601f19601f820116820180604052508101906116ae91906151dd565b6116ed576040517f08c379a00000000000000000000000000000000000000000000000000000000081526004016116e490615256565b60405180910390fd5b6116f684613a71565b6040518061016001604052808673ffffffffffffffffffffffffffffffffffffffff1681526020018573ffffffffffffffffffffffffffffffffffffffff1681526020013373ffffffffffffffffffffffffffffffffffffffff1681526020018481526020018381526020018281526020016000815260200161012c4261177d9190614c63565b815260200160001515815260200160001515815260200160001515815250600460008773ffffffffffffffffffffffffffffffffffffffff1673ffffffffffffffffffffffffffffffffffffffff16815260200190815260200160002060008201518160000160006101000a81548173ffffffffffffffffffffffffffffffffffffffff021916908373ffffffffffffffffffffffffffffffffffffffff16021790555060208201518160010160006101000a81548173ffffffffffffffffffffffffffffffffffffffff021916908373ffffffffffffffffffffffffffffffffffffffff16021790555060408201518160020160006101000a81548173ffffffffffffffffffffffffffffffffffffffff021916908373ffffffffffffffffffffffffffffffffffffffff160217905550606082015181600301556080820151816004015560a0820151816005015560c0820151816006015560e082015181600701556101008201518160080160006101000a81548160ff0219169083151502179055506101208201518160080160016101000a81548160ff0219169083151502179055506101408201518160080160026101000a81548160ff021916908315150217905550905050600560008573ffffffffffffffffffffffffffffffffffffffff1673ffffffffffffffffffffffffffffffffffffffff168152602001908152602001600020859080600181540180825580915050600190039060005260206000200160009091909190916101000a81548173ffffffffffffffffffffffffffffffffffffffff021916908373ffffffffffffffffffffffffffffffffffffffff1602179055508373ffffffffffffffffffffffffffffffffffffffff168573ffffffffffffffffffffffffffffffffffffffff167fe43c7a25359805ec97a99d788eab6bc01d5ead3a30a6d0d4998533e9cc53e230858585604051611a4893929190615276565b60405180910390a35050505050565b3373ffffffffffffffffffffffffffffffffffffffff16600360003373ffffffffffffffffffffffffffffffffffffffff1673ffffffffffffffffffffffffffffffffffffffff16815260200190815260200160002060000160009054906101000a900473ffffffffffffffffffffffffffffffffffffffff1673ffffffffffffffffffffffffffffffffffffffff1614611b27576040517f08c379a0000000000000000000000000000000000000000000000000000000008152600401611b1e90614a01565b60405180910390fd5b8073ffffffffffffffffffffffffffffffffffffffff16600460008373ffffffffffffffffffffffffffffffffffffffff1673ffffffffffffffffffffffffffffffffffffffff16815260200190815260200160002060000160009054906101000a900473ffffffffffffffffffffffffffffffffffffffff1673ffffffffffffffffffffffffffffffffffffffff1614611bf7576040517f08c379a0000000000000000000000000000000000000000000000000000000008152600401611bee90614a6d565b60405180910390fd5b3373ffffffffffffffffffffffffffffffffffffffff16600460008373ffffffffffffffffffffffffffffffffffffffff1673ffffffffffffffffffffffffffffffffffffffff16815260200190815260200160002060010160009054906101000a900473ffffffffffffffffffffffffffffffffffffffff1673ffffffffffffffffffffffffffffffffffffffff1614611cc7576040517f08c379a0000000000000000000000000000000000000000000000000000000008152600401611cbe9061531f565b60405180910390fd5b600460008273ffffffffffffffffffffffffffffffffffffffff1673ffffffffffffffffffffffffffffffffffffffff168152602001908152602001600020600701544210611d4b576040517f08c379a0000000000000000000000000000000000000000000000000000000008152600401611d429061538b565b60405180910390fd5b60001515600460008373ffffffffffffffffffffffffffffffffffffffff1673ffffffffffffffffffffffffffffffffffffffff16815260200190815260200160002060080160009054906101000a900460ff16151514611de1576040517f08c379a0000000000000000000000000000000000000000000000000000000008152600401611dd8906153f7565b60405180910390fd5b611dea33613a71565b6001600460008373ffffffffffffffffffffffffffffffffffffffff1673ffffffffffffffffffffffffffffffffffffffff16815260200190815260200160002060080160006101000a81548160ff0219169083151502179055503373ffffffffffffffffffffffffffffffffffffffff168173ffffffffffffffffffffffffffffffffffffffff167fc7d8e27d120cd1775a95558c92469475da8ab4800ecb1a325ec407b876ad768460405160405180910390a350565b600073ffffffffffffffffffffffffffffffffffffffff16600360003373ffffffffffffffffffffffffffffffffffffffff1673ffffffffffffffffffffffffffffffffffffffff16815260200190815260200160002060000160009054906101000a900473ffffffffffffffffffffffffffffffffffffffff1673ffffffffffffffffffffffffffffffffffffffff1614611f73576040517f08c379a0000000000000000000000000000000000000000000000000000000008152600401611f6a90615463565b60405180910390fd5b60405180606001604052803373ffffffffffffffffffffffffffffffffffffffff168152602001828152602001600073ffffffffffffffffffffffffffffffffffffffff16815250600360003373ffffffffffffffffffffffffffffffffffffffff1673ffffffffffffffffffffffffffffffffffffffff16815260200190815260200160002060008201518160000160006101000a81548173ffffffffffffffffffffffffffffffffffffffff021916908373ffffffffffffffffffffffffffffffffffffffff16021790555060208201518160010190816120569190615625565b5060408201518160020160006101000a81548173ffffffffffffffffffffffffffffffffffffffff021916908373ffffffffffffffffffffffffffffffffffffffff1602179055509050506002339080600181540180825580915050600190039060005260206000200160009091909190916101000a81548173ffffffffffffffffffffffffffffffffffffffff021916908373ffffffffffffffffffffffffffffffffffffffff16021790555050565b8073ffffffffffffffffffffffffffffffffffffffff16600460008373ffffffffffffffffffffffffffffffffffffffff1673ffffffffffffffffffffffffffffffffffffffff16815260200190815260200160002060000160009054906101000a900473ffffffffffffffffffffffffffffffffffffffff1673ffffffffffffffffffffffffffffffffffffffff16146121d7576040517f08c379a00000000000000000000000000000000000000000000000000000000081526004016121ce90614a6d565b60405180910390fd5b3373ffffffffffffffffffffffffffffffffffffffff16600460008373ffffffffffffffffffffffffffffffffffffffff1673ffffffffffffffffffffffffffffffffffffffff16815260200190815260200160002060020160009054906101000a900473ffffffffffffffffffffffffffffffffffffffff1673ffffffffffffffffffffffffffffffffffffffff16146122a7576040517f08c379a000000000000000000000000000000000000000000000000000000000815260040161229e90615743565b60405180910390fd5b600460008273ffffffffffffffffffffffffffffffffffffffff1673ffffffffffffffffffffffffffffffffffffffff16815260200190815260200160002060080160009054906101000a900460ff16612336576040517f08c379a000000000000000000000000000000000000000000000000000000000815260040161232d90614b6b565b60405180910390fd5b600460008273ffffffffffffffffffffffffffffffffffffffff1673ffffffffffffffffffffffffffffffffffffffff16815260200190815260200160002060080160019054906101000a900460ff166123c5576040517f08c379a00000000000000000000000000000000000000000000000000000000081526004016123bc906157af565b60405180910390fd5b600460008273ffffffffffffffffffffffffffffffffffffffff1673ffffffffffffffffffffffffffffffffffffffff16815260200190815260200160002060080160029054906101000a900460ff1615612455576040517f08c379a000000000000000000000000000000000000000000000000000000000815260040161244c90615841565b60405180910390fd5b61012c600460008373ffffffffffffffffffffffffffffffffffffffff1673ffffffffffffffffffffffffffffffffffffffff16815260200190815260200160002060050154600460008473ffffffffffffffffffffffffffffffffffffffff1673ffffffffffffffffffffffffffffffffffffffff168152602001908152602001600020600601546124e89190614c63565b6124f29190614c63565b4210612533576040517f08c379a000000000000000000000000000000000000000000000000000000000815260040161252a906158ad565b60405180910390fd5b6000600460008373ffffffffffffffffffffffffffffffffffffffff1673ffffffffffffffffffffffffffffffffffffffff16815260200190815260200160002060080160026101000a81548160ff02191690831515021790555050565b8073ffffffffffffffffffffffffffffffffffffffff16600460008373ffffffffffffffffffffffffffffffffffffffff1673ffffffffffffffffffffffffffffffffffffffff16815260200190815260200160002060000160009054906101000a900473ffffffffffffffffffffffffffffffffffffffff1673ffffffffffffffffffffffffffffffffffffffff1614612661576040517f08c379a000000000000000000000000000000000000000000000000000000000815260040161265890614a6d565b60405180910390fd5b3373ffffffffffffffffffffffffffffffffffffffff16600460008373ffffffffffffffffffffffffffffffffffffffff1673ffffffffffffffffffffffffffffffffffffffff16815260200190815260200160002060010160009054906101000a900473ffffffffffffffffffffffffffffffffffffffff1673ffffffffffffffffffffffffffffffffffffffff1614612731576040517f08c379a00000000000000000000000000000000000000000000000000000000081526004016127289061593f565b60405180910390fd5b600460008273ffffffffffffffffffffffffffffffffffffffff1673ffffffffffffffffffffffffffffffffffffffff16815260200190815260200160002060080160009054906101000a900460ff166127c0576040517f08c379a00000000000000000000000000000000000000000000000000000000081526004016127b790614b6b565b60405180910390fd5b600460008273ffffffffffffffffffffffffffffffffffffffff1673ffffffffffffffffffffffffffffffffffffffff16815260200190815260200160002060080160019054906101000a900460ff1661284f576040517f08c379a0000000000000000000000000000000000000000000000000000000008152600401612846906157af565b60405180910390fd5b600460008273ffffffffffffffffffffffffffffffffffffffff1673ffffffffffffffffffffffffffffffffffffffff16815260200190815260200160002060080160029054906101000a900460ff16156128df576040517f08c379a00000000000000000000000000000000000000000000000000000000081526004016128d6906159d1565b60405180910390fd5b61012c600460008373ffffffffffffffffffffffffffffffffffffffff1673ffffffffffffffffffffffffffffffffffffffff16815260200190815260200160002060050154600460008473ffffffffffffffffffffffffffffffffffffffff1673ffffffffffffffffffffffffffffffffffffffff168152602001908152602001600020600601546129729190614c63565b61297c9190614c63565b4210156129be576040517f08c379a00000000000000000000000000000000000000000000000000000000081526004016129b590615a3d565b60405180910390fd5b600160009054906101000a900473ffffffffffffffffffffffffffffffffffffffff1673ffffffffffffffffffffffffffffffffffffffff1663a9059cbb33600460008573ffffffffffffffffffffffffffffffffffffffff1673ffffffffffffffffffffffffffffffffffffffff168152602001908152602001600020600401546040518363ffffffff1660e01b8152600401612a5d929190615a5d565b6020604051808303816000875af1158015612a7c573d6000803e3d6000fd5b505050506040513d601f19601f82011682018060405250810190612aa091906151dd565b612adf576040517f08c379a0000000000000000000000000000000000000000000000000000000008152600401612ad690615256565b60405180910390fd5b600460008273ffffffffffffffffffffffffffffffffffffffff1673ffffffffffffffffffffffffffffffffffffffff168152602001908152602001600020600080820160006101000a81549073ffffffffffffffffffffffffffffffffffffffff02191690556001820160006101000a81549073ffffffffffffffffffffffffffffffffffffffff02191690556002820160006101000a81549073ffffffffffffffffffffffffffffffffffffffff0219169055600382016000905560048201600090556005820160009055600682016000905560078201600090556008820160006101000a81549060ff02191690556008820160016101000a81549060ff02191690556008820160026101000a81549060ff0219169055505050565b60008054906101000a900473ffffffffffffffffffffffffffffffffffffffff1681565b60036020528060005260406000206000915090508060000160009054906101000a900473ffffffffffffffffffffffffffffffffffffffff1690806001018054612c6a90614d32565b80601f0160208091040260200160405190810160405280929190818152602001828054612c9690614d32565b8015612ce35780601f10612cb857610100808354040283529160200191612ce3565b820191906000526020600020905b815481529060010190602001808311612cc657829003601f168201915b5050505050908060020160009054906101000a900473ffffffffffffffffffffffffffffffffffffffff16905083565b3373ffffffffffffffffffffffffffffffffffffffff16600360003373ffffffffffffffffffffffffffffffffffffffff1673ffffffffffffffffffffffffffffffffffffffff16815260200190815260200160002060000160009054906101000a900473ffffffffffffffffffffffffffffffffffffffff1673ffffffffffffffffffffffffffffffffffffffff1614612de3576040517f08c379a0000000000000000000000000000000000000000000000000000000008152600401612dda90614a01565b60405180910390fd5b6000612ded613da2565b9050600073ffffffffffffffffffffffffffffffffffffffff168173ffffffffffffffffffffffffffffffffffffffff1603612e5e576040517f08c379a0000000000000000000000000000000000000000000000000000000008152600401612e5590615ad2565b60405180910390fd5b42600460008373ffffffffffffffffffffffffffffffffffffffff1673ffffffffffffffffffffffffffffffffffffffff168152602001908152602001600020600601819055503373ffffffffffffffffffffffffffffffffffffffff168173ffffffffffffffffffffffffffffffffffffffff167ff5a1e36cd5f2e985284ebb45638edb7a4de37bc2001adfae6bdfe4924ad5799560405160405180910390a350565b8073ffffffffffffffffffffffffffffffffffffffff16600460008373ffffffffffffffffffffffffffffffffffffffff1673ffffffffffffffffffffffffffffffffffffffff16815260200190815260200160002060000160009054906101000a900473ffffffffffffffffffffffffffffffffffffffff1673ffffffffffffffffffffffffffffffffffffffff1614612fd2576040517f08c379a0000000000000000000000000000000000000000000000000000000008152600401612fc990614a6d565b60405180910390fd5b3373ffffffffffffffffffffffffffffffffffffffff16600460008373ffffffffffffffffffffffffffffffffffffffff1673ffffffffffffffffffffffffffffffffffffffff16815260200190815260200160002060020160009054906101000a900473ffffffffffffffffffffffffffffffffffffffff1673ffffffffffffffffffffffffffffffffffffffff16146130a2576040517f08c379a000000000000000000000000000000000000000000000000000000000815260040161309990615b64565b60405180910390fd5b600460008273ffffffffffffffffffffffffffffffffffffffff1673ffffffffffffffffffffffffffffffffffffffff16815260200190815260200160002060080160009054906101000a900460ff1615613132576040517f08c379a000000000000000000000000000000000000000000000000000000000815260040161312990615bd0565b60405180910390fd5b600460008273ffffffffffffffffffffffffffffffffffffffff1673ffffffffffffffffffffffffffffffffffffffff168152602001908152602001600020600701544210156131b7576040517f08c379a00000000000000000000000000000000000000000000000000000000081526004016131ae90615c3c565b60405180910390fd5b600160009054906101000a900473ffffffffffffffffffffffffffffffffffffffff1673ffffffffffffffffffffffffffffffffffffffff1663a9059cbb33600460008573ffffffffffffffffffffffffffffffffffffffff1673ffffffffffffffffffffffffffffffffffffffff168152602001908152602001600020600401546040518363ffffffff1660e01b8152600401613256929190615a5d565b6020604051808303816000875af1158015613275573d6000803e3d6000fd5b505050506040513d601f19601f8201168201806040525081019061329991906151dd565b50600460008273ffffffffffffffffffffffffffffffffffffffff1673ffffffffffffffffffffffffffffffffffffffff168152602001908152602001600020600080820160006101000a81549073ffffffffffffffffffffffffffffffffffffffff02191690556001820160006101000a81549073ffffffffffffffffffffffffffffffffffffffff02191690556002820160006101000a81549073ffffffffffffffffffffffffffffffffffffffff0219169055600382016000905560048201600090556005820160009055600682016000905560078201600090556008820160006101000a81549060ff02191690556008820160016101000a81549060ff02191690556008820160026101000a81549060ff0219169055505050565b60046020528060005260406000206000915090508060000160009054906101000a900473ffffffffffffffffffffffffffffffffffffffff16908060010160009054906101000a900473ffffffffffffffffffffffffffffffffffffffff16908060020160009054906101000a900473ffffffffffffffffffffffffffffffffffffffff16908060030154908060040154908060050154908060060154908060070154908060080160009054906101000a900460ff16908060080160019054906101000a900460ff16908060080160029054906101000a900460ff1690508b565b60606000805b60028054905081101561363f576000600282815481106134c2576134c16148e9565b5b9060005260206000200160009054906101000a900473ffffffffffffffffffffffffffffffffffffffff1690506000600560008373ffffffffffffffffffffffffffffffffffffffff1673ffffffffffffffffffffffffffffffffffffffff168152602001908152602001600020905060005b818054905081101561362f573373ffffffffffffffffffffffffffffffffffffffff166004600084848154811061356f5761356e6148e9565b5b9060005260206000200160009054906101000a900473ffffffffffffffffffffffffffffffffffffffff1673ffffffffffffffffffffffffffffffffffffffff1673ffffffffffffffffffffffffffffffffffffffff16815260200190815260200160002060020160009054906101000a900473ffffffffffffffffffffffffffffffffffffffff1673ffffffffffffffffffffffffffffffffffffffff160361362257848061361e90614947565b9550505b8080600101915050613535565b505050808060010191505061349f565b5060008167ffffffffffffffff81111561365c5761365b614624565b5b60405190808252806020026020018201604052801561369557816020015b613682613f1a565b81526020019060019003908161367a5790505b5090506000805b600280549050811015613a67576000600282815481106136bf576136be6148e9565b5b9060005260206000200160009054906101000a900473ffffffffffffffffffffffffffffffffffffffff1690506000600560008373ffffffffffffffffffffffffffffffffffffffff1673ffffffffffffffffffffffffffffffffffffffff168152602001908152602001600020905060005b8180549050811015613a57573373ffffffffffffffffffffffffffffffffffffffff166004600084848154811061376c5761376b6148e9565b5b9060005260206000200160009054906101000a900473ffffffffffffffffffffffffffffffffffffffff1673ffffffffffffffffffffffffffffffffffffffff1673ffffffffffffffffffffffffffffffffffffffff16815260200190815260200160002060020160009054906101000a900473ffffffffffffffffffffffffffffffffffffffff1673ffffffffffffffffffffffffffffffffffffffff1603613a4a5760046000838381548110613827576138266148e9565b5b9060005260206000200160009054906101000a900473ffffffffffffffffffffffffffffffffffffffff1673ffffffffffffffffffffffffffffffffffffffff1673ffffffffffffffffffffffffffffffffffffffff168152602001908152602001600020604051806101600160405290816000820160009054906101000a900473ffffffffffffffffffffffffffffffffffffffff1673ffffffffffffffffffffffffffffffffffffffff1673ffffffffffffffffffffffffffffffffffffffff1681526020016001820160009054906101000a900473ffffffffffffffffffffffffffffffffffffffff1673ffffffffffffffffffffffffffffffffffffffff1673ffffffffffffffffffffffffffffffffffffffff1681526020016002820160009054906101000a900473ffffffffffffffffffffffffffffffffffffffff1673ffffffffffffffffffffffffffffffffffffffff1673ffffffffffffffffffffffffffffffffffffffff16815260200160038201548152602001600482015481526020016005820154815260200160068201548152602001600782015481526020016008820160009054906101000a900460ff161515151581526020016008820160019054906101000a900460ff161515151581526020016008820160029054906101000a900460ff161515151581525050868681518110613a3057613a2f6148e9565b5b60200260200101819052508480613a4690614947565b9550505b8080600101915050613732565b505050808060010191505061369c565b5081935050505090565b6000600560008373ffffffffffffffffffffffffffffffffffffffff1673ffffffffffffffffffffffffffffffffffffffff16815260200190815260200160002090506000818054905090506000805b82811015613d43576000848281548110613ade57613add6148e9565b5b9060005260206000200160009054906101000a900473ffffffffffffffffffffffffffffffffffffffff169050600460008273ffffffffffffffffffffffffffffffffffffffff1673ffffffffffffffffffffffffffffffffffffffff16815260200190815260200160002060080160019054906101000a900460ff1680613ba7575042600460008373ffffffffffffffffffffffffffffffffffffffff1673ffffffffffffffffffffffffffffffffffffffff16815260200190815260200160002060070154105b15613ccc57600460008273ffffffffffffffffffffffffffffffffffffffff1673ffffffffffffffffffffffffffffffffffffffff168152602001908152602001600020600080820160006101000a81549073ffffffffffffffffffffffffffffffffffffffff02191690556001820160006101000a81549073ffffffffffffffffffffffffffffffffffffffff02191690556002820160006101000a81549073ffffffffffffffffffffffffffffffffffffffff0219169055600382016000905560048201600090556005820160009055600682016000905560078201600090556008820160006101000a81549060ff02191690556008820160016101000a81549060ff02191690556008820160026101000a81549060ff02191690555050613d35565b80858480613cd990614947565b955081548110613cec57613ceb6148e9565b5b9060005260206000200160006101000a81548173ffffffffffffffffffffffffffffffffffffffff021916908373ffffffffffffffffffffffffffffffffffffffff1602179055505b508080600101915050613ac1565b505b8083805490501115613d9c5782805480613d6257613d61615c5c565b5b6001900381819060005260206000200160006101000a81549073ffffffffffffffffffffffffffffffffffffffff02191690559055613d45565b50505050565b600080613dad61033f565b90506000815103613dc2576000915050613f17565b6000815167ffffffffffffffff811115613ddf57613dde614624565b5b604051908082528060200260200182016040528015613e0d5781602001602082028036833780820191505090505b50905060005b8251811015613e9057828181518110613e2f57613e2e6148e9565b5b602002602001015160600151838281518110613e4e57613e4d6148e9565b5b602002602001015160800151613e649190615cba565b828281518110613e7757613e766148e9565b5b6020026020010181815250508080600101915050613e13565b5060008060005b8351811015613ef05782848281518110613eb457613eb36148e9565b5b60200260200101511115613ee357838181518110613ed557613ed46148e9565b5b602002602001015192508091505b8080600101915050613e97565b50838181518110613f0457613f036148e9565b5b6020026020010151600001519450505050505b90565b604051806101600160405280600073ffffffffffffffffffffffffffffffffffffffff168152602001600073ffffffffffffffffffffffffffffffffffffffff168152602001600073ffffffffffffffffffffffffffffffffffffffff16815260200160008152602001600081526020016000815260200160008152602001600081526020016000151581526020016000151581526020016000151581525090565b6040518060600160405280600073ffffffffffffffffffffffffffffffffffffffff16815260200160608152602001600073ffffffffffffffffffffffffffffffffffffffff1681525090565b600081519050919050565b600082825260208201905092915050565b6000819050602082019050919050565b600073ffffffffffffffffffffffffffffffffffffffff82169050919050565b600061406082614035565b9050919050565b61407081614055565b82525050565b6000819050919050565b61408981614076565b82525050565b60008115159050919050565b6140a48161408f565b82525050565b610160820160008201516140c16000850182614067565b5060208201516140d46020850182614067565b5060408201516140e76040850182614067565b5060608201516140fa6060850182614080565b50608082015161410d6080850182614080565b5060a082015161412060a0850182614080565b5060c082015161413360c0850182614080565b5060e082015161414660e0850182614080565b5061010082015161415b61010085018261409b565b5061012082015161417061012085018261409b565b5061014082015161418561014085018261409b565b50505050565b600061419783836140aa565b6101608301905092915050565b6000602082019050919050565b60006141bc82614009565b6141c68185614014565b93506141d183614025565b8060005b838110156142025781516141e9888261418b565b97506141f4836141a4565b9250506001810190506141d5565b5085935050505092915050565b6000602082019050818103600083015261422981846141b1565b905092915050565b6000604051905090565b600080fd5b600080fd5b61424e81614055565b811461425957600080fd5b50565b60008135905061426b81614245565b92915050565b6000602082840312156142875761428661423b565b5b60006142958482850161425c565b91505092915050565b6142a781614076565b81146142b257600080fd5b50565b6000813590506142c48161429e565b92915050565b6000602082840312156142e0576142df61423b565b5b60006142ee848285016142b5565b91505092915050565b61430081614055565b82525050565b600060208201905061431b60008301846142f7565b92915050565b6000819050919050565b600061434661434161433c84614035565b614321565b614035565b9050919050565b60006143588261432b565b9050919050565b600061436a8261434d565b9050919050565b61437a8161435f565b82525050565b60006020820190506143956000830184614371565b92915050565b600081519050919050565b600082825260208201905092915050565b6000819050602082019050919050565b600081519050919050565b600082825260208201905092915050565b60005b838110156144015780820151818401526020810190506143e6565b60008484015250505050565b6000601f19601f8301169050919050565b6000614429826143c7565b61443381856143d2565b93506144438185602086016143e3565b61444c8161440d565b840191505092915050565b600060608301600083015161446f6000860182614067565b5060208301518482036020860152614487828261441e565b915050604083015161449c6040860182614067565b508091505092915050565b60006144b38383614457565b905092915050565b6000602082019050919050565b60006144d38261439b565b6144dd81856143a6565b9350836020820285016144ef856143b7565b8060005b8581101561452b578484038952815161450c85826144a7565b9450614517836144bb565b925060208a019950506001810190506144f3565b50829750879550505050505092915050565b6000602082019050818103600083015261455781846144c8565b905092915050565b600080604083850312156145765761457561423b565b5b60006145848582860161425c565b9250506020614595858286016142b5565b9150509250929050565b600080600080600060a086880312156145bb576145ba61423b565b5b60006145c98882890161425c565b95505060206145da8882890161425c565b94505060406145eb888289016142b5565b93505060606145fc888289016142b5565b925050608061460d888289016142b5565b9150509295509295909350565b600080fd5b600080fd5b7f4e487b7100000000000000000000000000000000000000000000000000000000600052604160045260246000fd5b61465c8261440d565b810181811067ffffffffffffffff8211171561467b5761467a614624565b5b80604052505050565b600061468e614231565b905061469a8282614653565b919050565b600067ffffffffffffffff8211156146ba576146b9614624565b5b6146c38261440d565b9050602081019050919050565b82818337600083830152505050565b60006146f26146ed8461469f565b614684565b90508281526020810184848401111561470e5761470d61461f565b5b6147198482856146d0565b509392505050565b600082601f8301126147365761473561461a565b5b81356147468482602086016146df565b91505092915050565b6000602082840312156147655761476461423b565b5b600082013567ffffffffffffffff81111561478357614782614240565b5b61478f84828501614721565b91505092915050565b600082825260208201905092915050565b60006147b4826143c7565b6147be8185614798565b93506147ce8185602086016143e3565b6147d78161440d565b840191505092915050565b60006060820190506147f760008301866142f7565b818103602083015261480981856147a9565b905061481860408301846142f7565b949350505050565b61482981614076565b82525050565b6148388161408f565b82525050565b600061016082019050614854600083018e6142f7565b614861602083018d6142f7565b61486e604083018c6142f7565b61487b606083018b614820565b614888608083018a614820565b61489560a0830189614820565b6148a260c0830188614820565b6148af60e0830187614820565b6148bd61010083018661482f565b6148cb61012083018561482f565b6148d961014083018461482f565b9c9b505050505050505050505050565b7f4e487b7100000000000000000000000000000000000000000000000000000000600052603260045260246000fd5b7f4e487b7100000000000000000000000000000000000000000000000000000000600052601160045260246000fd5b600061495282614076565b91507fffffffffffffffffffffffffffffffffffffffffffffffffffffffffffffffff820361498457614983614918565b5b600182019050919050565b7f4f6e6c79207072696e7465722063616e2063616c6c20746869732066756e637460008201527f696f6e0000000000000000000000000000000000000000000000000000000000602082015250565b60006149eb602383614798565b91506149f68261498f565b604082019050919050565b60006020820190508181036000830152614a1a816149de565b9050919050565b7f4f7264657220646f6573206e6f74206578697374000000000000000000000000600082015250565b6000614a57601483614798565b9150614a6282614a21565b602082019050919050565b60006020820190508181036000830152614a8681614a4a565b9050919050565b7f4f6e6c7920736572766963652070726f76696465722063616e20636f6d706c6560008201527f7465206f72646572000000000000000000000000000000000000000000000000602082015250565b6000614ae9602883614798565b9150614af482614a8d565b604082019050919050565b60006020820190508181036000830152614b1881614adc565b9050919050565b7f4f72646572206e6f74207369676e656400000000000000000000000000000000600082015250565b6000614b55601083614798565b9150614b6082614b1f565b602082019050919050565b60006020820190508181036000830152614b8481614b48565b9050919050565b7f4f72646572206e6f742073746172746564000000000000000000000000000000600082015250565b6000614bc1601183614798565b9150614bcc82614b8b565b602082019050919050565b60006020820190508181036000830152614bf081614bb4565b9050919050565b7f4f7264657220616c726561647920636f6d706c65746564000000000000000000600082015250565b6000614c2d601783614798565b9150614c3882614bf7565b602082019050919050565b60006020820190508181036000830152614c5c81614c20565b9050919050565b6000614c6e82614076565b9150614c7983614076565b9250828201905080821115614c9157614c90614918565b5b92915050565b7f4f72646572206475726174696f6e206578706972656400000000000000000000600082015250565b6000614ccd601683614798565b9150614cd882614c97565b602082019050919050565b60006020820190508181036000830152614cfc81614cc0565b9050919050565b7f4e487b7100000000000000000000000000000000000000000000000000000000600052602260045260246000fd5b60006002820490506001821680614d4a57607f821691505b602082108103614d5d57614d5c614d03565b5b50919050565b7f4f7264657220616c726561647920657869737473000000000000000000000000600082015250565b6000614d99601483614798565b9150614da482614d63565b602082019050919050565b60006020820190508181036000830152614dc881614d8c565b9050919050565b7f496e76616c6964206f7264657220494400000000000000000000000000000000600082015250565b6000614e05601083614798565b9150614e1082614dcf565b602082019050919050565b60006020820190508181036000830152614e3481614df8565b9050919050565b7f5072696e74657220646f6573206e6f7420657869737400000000000000000000600082015250565b6000614e71601683614798565b9150614e7c82614e3b565b602082019050919050565b60006020820190508181036000830152614ea081614e64565b9050919050565b7f5072696365206d7573742062652067726561746572207468616e203000000000600082015250565b6000614edd601c83614798565b9150614ee882614ea7565b602082019050919050565b60006020820190508181036000830152614f0c81614ed0565b9050919050565b7f41637475616c207072696365206d75737420626520677265617465722074686160008201527f6e206f7220657175616c20746f206d696e696d616c2070726963650000000000602082015250565b6000614f6f603b83614798565b9150614f7a82614f13565b604082019050919050565b60006020820190508181036000830152614f9e81614f62565b9050919050565b7f4475726174696f6e206d7573742062652067726561746572207468616e203000600082015250565b6000614fdb601f83614798565b9150614fe682614fa5565b602082019050919050565b6000602082019050818103600083015261500a81614fce565b9050919050565b6000815190506150208161429e565b92915050565b60006020828403121561503c5761503b61423b565b5b600061504a84828501615011565b91505092915050565b7f496e73756666696369656e742062616c616e6365000000000000000000000000600082015250565b6000615089601483614798565b915061509482615053565b602082019050919050565b600060208201905081810360008301526150b88161507c565b9050919050565b60006040820190506150d460008301856142f7565b6150e160208301846142f7565b9392505050565b7f436f6e7472616374206e6f7420617070726f76656420746f207472616e73666560008201527f7220746f6b656e73000000000000000000000000000000000000000000000000602082015250565b6000615144602883614798565b915061514f826150e8565b604082019050919050565b6000602082019050818103600083015261517381615137565b9050919050565b600060608201905061518f60008301866142f7565b61519c60208301856142f7565b6151a96040830184614820565b949350505050565b6151ba8161408f565b81146151c557600080fd5b50565b6000815190506151d7816151b1565b92915050565b6000602082840312156151f3576151f261423b565b5b6000615201848285016151c8565b91505092915050565b7f546f6b656e207472616e73666572206661696c65640000000000000000000000600082015250565b6000615240601583614798565b915061524b8261520a565b602082019050919050565b6000602082019050818103600083015261526f81615233565b9050919050565b600060608201905061528b6000830186614820565b6152986020830185614820565b6152a56040830184614820565b949350505050565b7f4f6e6c7920736572766963652070726f76696465722063616e207369676e206f60008201527f7264657200000000000000000000000000000000000000000000000000000000602082015250565b6000615309602483614798565b9150615314826152ad565b604082019050919050565b60006020820190508181036000830152615338816152fc565b9050919050565b7f4f72646572206578706972656400000000000000000000000000000000000000600082015250565b6000615375600d83614798565b91506153808261533f565b602082019050919050565b600060208201905081810360008301526153a481615368565b9050919050565b7f4f7264657220616c7265616479207369676e6564000000000000000000000000600082015250565b60006153e1601483614798565b91506153ec826153ab565b602082019050919050565b60006020820190508181036000830152615410816153d4565b9050919050565b7f5072696e74657220616c72656164792072656769737465726564000000000000600082015250565b600061544d601a83614798565b915061545882615417565b602082019050919050565b6000602082019050818103600083015261547c81615440565b9050919050565b60008190508160005260206000209050919050565b60006020601f8301049050919050565b600082821b905092915050565b6000600883026154e57fffffffffffffffffffffffffffffffffffffffffffffffffffffffffffffffff826154a8565b6154ef86836154a8565b95508019841693508086168417925050509392505050565b600061552261551d61551884614076565b614321565b614076565b9050919050565b6000819050919050565b61553c83615507565b61555061554882615529565b8484546154b5565b825550505050565b600090565b615565615558565b615570818484615533565b505050565b5b818110156155945761558960008261555d565b600181019050615576565b5050565b601f8211156155d9576155aa81615483565b6155b384615498565b810160208510156155c2578190505b6155d66155ce85615498565b830182615575565b50505b505050565b600082821c905092915050565b60006155fc600019846008026155de565b1980831691505092915050565b600061561583836155eb565b9150826002028217905092915050565b61562e826143c7565b67ffffffffffffffff81111561564757615646614624565b5b6156518254614d32565b61565c828285615598565b600060209050601f83116001811461568f576000841561567d578287015190505b6156878582615609565b8655506156ef565b601f19841661569d86615483565b60005b828110156156c5578489015182556001820191506020850194506020810190506156a0565b868310156156e257848901516156de601f8916826155eb565b8355505b6001600288020188555050505b505050505050565b7f4f6e6c7920637573746f6d65722063616e20636f6e6669726d206f7264657200600082015250565b600061572d601f83614798565b9150615738826156f7565b602082019050919050565b6000602082019050818103600083015261575c81615720565b9050919050565b7f4f72646572206e6f7420636f6d706c657465642062792070726f766964657200600082015250565b6000615799601f83614798565b91506157a482615763565b602082019050919050565b600060208201905081810360008301526157c88161578c565b9050919050565b7f4f7264657220616c7265616479207265706f7274656420617320756e636f6d7060008201527f6c65746520627920637573746f6d657200000000000000000000000000000000602082015250565b600061582b603083614798565b9150615836826157cf565b604082019050919050565b6000602082019050818103600083015261585a8161581e565b9050919050565b7f5265706f72742074696d65206578706972656400000000000000000000000000600082015250565b6000615897601383614798565b91506158a282615861565b602082019050919050565b600060208201905081810360008301526158c68161588a565b9050919050565b7f4f6e6c7920736572766963652070726f76696465722063616e207472616e736660008201527f65722066756e6473000000000000000000000000000000000000000000000000602082015250565b6000615929602883614798565b9150615934826158cd565b604082019050919050565b600060208201905081810360008301526159588161591c565b9050919050565b7f4f72646572207265706f7274656420617320756e636f6d706c6574652062792060008201527f637573746f6d6572000000000000000000000000000000000000000000000000602082015250565b60006159bb602883614798565b91506159c68261595f565b604082019050919050565b600060208201905081810360008301526159ea816159ae565b9050919050565b7f5265706f7274696e672074696d65206e6f742065787069726564207965740000600082015250565b6000615a27601e83614798565b9150615a32826159f1565b602082019050919050565b60006020820190508181036000830152615a5681615a1a565b9050919050565b6000604082019050615a7260008301856142f7565b615a7f6020830184614820565b9392505050565b7f4e6f20616374697665206f726465727320746f20657865637574650000000000600082015250565b6000615abc601b83614798565b9150615ac782615a86565b602082019050919050565b60006020820190508181036000830152615aeb81615aaf565b9050919050565b7f4f6e6c7920637573746f6d65722063616e20726566756e64206f72646572207260008201527f6571756573740000000000000000000000000000000000000000000000000000602082015250565b6000615b4e602683614798565b9150615b5982615af2565b604082019050919050565b60006020820190508181036000830152615b7d81615b41565b9050919050565b7f4f72646572207265717565737420616c7265616479207369676e656400000000600082015250565b6000615bba601c83614798565b9150615bc582615b84565b602082019050919050565b60006020820190508181036000830152615be981615bad565b9050919050565b7f4f726465722072657175657374206973206e6f74206578706972656420796574600082015250565b6000615c26602083614798565b9150615c3182615bf0565b602082019050919050565b60006020820190508181036000830152615c5581615c19565b9050919050565b7f4e487b7100000000000000000000000000000000000000000000000000000000600052603160045260246000fd5b7f4e487b7100000000000000000000000000000000000000000000000000000000600052601260045260246000fd5b6000615cc582614076565b9150615cd083614076565b925082615ce057615cdf615c8b565b5b82820490509291505056fea2646970667358221220b0a38d41ce149125f54af4a705e802541034333dddd5053bcea3702361ee5fea64736f6c634300081c0033",
  "linkReferences": {},
  "deployedLinkReferences": {}
}