{
  "_format": "hh-sol-artifact-1",
  "contractName": "Formicarium",
  "sourceName": "contracts/Formicarium.sol",
  "abi": [
    {
      "inputs": [
        {
          "internalType": "address",
          "name": "_paymentToken",
          "type": "address"
        }
      ],
      "stateMutability": "nonpayable",
      "type": "constructor"
    },
    {
      "anonymous": false,
      "inputs": [
        {
          "indexed": true,
          "internalType": "address",
          "name": "orderId",
          "type": "address"
        },
        {
          "indexed": true,
          "internalType": "address",
          "name": "printerId",
          "type": "address"
        }
      ],
      "name": "OrderCompleted",
      "type": "event"
    },
    {
      "anonymous": false,
      "inputs": [
        {
          "indexed": true,
          "internalType": "address",
          "name": "orderId",
          "type": "address"
        },
        {
          "indexed": true,
          "internalType": "address",
          "name": "printerId",
          "type": "address"
        },
        {
          "indexed": false,
          "internalType": "uint256",
          "name": "minimalPrice",
          "type": "uint256"
        },
        {
          "indexed": false,
          "internalType": "uint256",
          "name": "actualPrice",
          "type": "uint256"
        },
        {
          "indexed": false,
          "internalType": "uint256",
          "name": "duration",
          "type": "uint256"
        }
      ],
      "name": "OrderCreated",
      "type": "event"
    },
    {
      "anonymous": false,
      "inputs": [
        {
          "indexed": true,
          "internalType": "address",
          "name": "orderId",
          "type": "address"
        },
        {
          "indexed": true,
          "internalType": "address",
          "name": "printerId",
          "type": "address"
        }
      ],
      "name": "OrderSigned",
      "type": "event"
    },
    {
      "anonymous": false,
      "inputs": [
        {
          "indexed": true,
          "internalType": "address",
          "name": "orderId",
          "type": "address"
        },
        {
          "indexed": true,
          "internalType": "address",
          "name": "printerId",
          "type": "address"
        }
      ],
      "name": "OrderStarted",
      "type": "event"
    },
    {
      "inputs": [
        {
          "internalType": "address",
          "name": "_orderId",
          "type": "address"
        }
      ],
      "name": "completeOrderProvider",
      "outputs": [],
      "stateMutability": "nonpayable",
      "type": "function"
    },
    {
      "inputs": [
        {
          "internalType": "address",
          "name": "_orderId",
          "type": "address"
        },
        {
          "internalType": "address",
          "name": "_printerId",
          "type": "address"
        },
        {
          "internalType": "uint256",
          "name": "_minimalPrice",
          "type": "uint256"
        },
        {
          "internalType": "uint256",
          "name": "_actualPrice",
          "type": "uint256"
        },
        {
          "internalType": "uint256",
          "name": "_duration",
          "type": "uint256"
        }
      ],
      "name": "createOrder",
      "outputs": [],
      "stateMutability": "nonpayable",
      "type": "function"
    },
    {
      "inputs": [],
      "name": "executeNewOrder",
      "outputs": [],
      "stateMutability": "nonpayable",
      "type": "function"
    },
    {
      "inputs": [],
      "name": "getActiveOrders",
      "outputs": [
        {
          "components": [
            {
              "internalType": "address",
              "name": "ID",
              "type": "address"
            },
            {
              "internalType": "address",
              "name": "printerId",
              "type": "address"
            },
            {
              "internalType": "address",
              "name": "customerId",
              "type": "address"
            },
            {
              "internalType": "uint256",
              "name": "minimalPrice",
              "type": "uint256"
            },
            {
              "internalType": "uint256",
              "name": "actualPrice",
              "type": "uint256"
            },
            {
              "internalType": "uint256",
              "name": "duration",
              "type": "uint256"
            },
            {
              "internalType": "uint256",
              "name": "startTime",
              "type": "uint256"
            },
            {
              "internalType": "uint256",
              "name": "expirationTime",
              "type": "uint256"
            },
            {
              "internalType": "bool",
              "name": "isSigned",
              "type": "bool"
            },
            {
              "internalType": "bool",
              "name": "isCompletedProvider",
              "type": "bool"
            },
            {
              "internalType": "bool",
              "name": "isUncompleteCustomer",
              "type": "bool"
            }
          ],
          "internalType": "struct Formicarium.Order[]",
          "name": "",
          "type": "tuple[]"
        }
      ],
      "stateMutability": "view",
      "type": "function"
    },
    {
      "inputs": [],
      "name": "getAllPrinters",
      "outputs": [
        {
          "components": [
            {
              "internalType": "address",
              "name": "ID",
              "type": "address"
            },
            {
              "internalType": "string",
              "name": "printerDetails",
              "type": "string"
            },
            {
              "internalType": "address",
              "name": "currentOrderId",
              "type": "address"
            }
          ],
          "internalType": "struct Formicarium.Printer[]",
          "name": "",
          "type": "tuple[]"
        }
      ],
      "stateMutability": "view",
      "type": "function"
    },
    {
      "inputs": [],
      "name": "getYourOrders",
      "outputs": [
        {
          "components": [
            {
              "internalType": "address",
              "name": "ID",
              "type": "address"
            },
            {
              "internalType": "address",
              "name": "printerId",
              "type": "address"
            },
            {
              "internalType": "address",
              "name": "customerId",
              "type": "address"
            },
            {
              "internalType": "uint256",
              "name": "minimalPrice",
              "type": "uint256"
            },
            {
              "internalType": "uint256",
              "name": "actualPrice",
              "type": "uint256"
            },
            {
              "internalType": "uint256",
              "name": "duration",
              "type": "uint256"
            },
            {
              "internalType": "uint256",
              "name": "startTime",
              "type": "uint256"
            },
            {
              "internalType": "uint256",
              "name": "expirationTime",
              "type": "uint256"
            },
            {
              "internalType": "bool",
              "name": "isSigned",
              "type": "bool"
            },
            {
              "internalType": "bool",
              "name": "isCompletedProvider",
              "type": "bool"
            },
            {
              "internalType": "bool",
              "name": "isUncompleteCustomer",
              "type": "bool"
            }
          ],
          "internalType": "struct Formicarium.Order[]",
          "name": "",
          "type": "tuple[]"
        }
      ],
      "stateMutability": "view",
      "type": "function"
    },
    {
      "inputs": [
        {
          "internalType": "address",
          "name": "",
          "type": "address"
        }
      ],
      "name": "orders",
      "outputs": [
        {
          "internalType": "address",
          "name": "ID",
          "type": "address"
        },
        {
          "internalType": "address",
          "name": "printerId",
          "type": "address"
        },
        {
          "internalType": "address",
          "name": "customerId",
          "type": "address"
        },
        {
          "internalType": "uint256",
          "name": "minimalPrice",
          "type": "uint256"
        },
        {
          "internalType": "uint256",
          "name": "actualPrice",
          "type": "uint256"
        },
        {
          "internalType": "uint256",
          "name": "duration",
          "type": "uint256"
        },
        {
          "internalType": "uint256",
          "name": "startTime",
          "type": "uint256"
        },
        {
          "internalType": "uint256",
          "name": "expirationTime",
          "type": "uint256"
        },
        {
          "internalType": "bool",
          "name": "isSigned",
          "type": "bool"
        },
        {
          "internalType": "bool",
          "name": "isCompletedProvider",
          "type": "bool"
        },
        {
          "internalType": "bool",
          "name": "isUncompleteCustomer",
          "type": "bool"
        }
      ],
      "stateMutability": "view",
      "type": "function"
    },
    {
      "inputs": [],
      "name": "owner",
      "outputs": [
        {
          "internalType": "address",
          "name": "",
          "type": "address"
        }
      ],
      "stateMutability": "view",
      "type": "function"
    },
    {
      "inputs": [],
      "name": "paymentToken",
      "outputs": [
        {
          "internalType": "contract IERC20",
          "name": "",
          "type": "address"
        }
      ],
      "stateMutability": "view",
      "type": "function"
    },
    {
      "inputs": [
        {
          "internalType": "uint256",
          "name": "",
          "type": "uint256"
        }
      ],
      "name": "printerAddresses",
      "outputs": [
        {
          "internalType": "address",
          "name": "",
          "type": "address"
        }
      ],
      "stateMutability": "view",
      "type": "function"
    },
    {
      "inputs": [
        {
          "internalType": "address",
          "name": "",
          "type": "address"
        }
      ],
      "name": "printers",
      "outputs": [
        {
          "internalType": "address",
          "name": "ID",
          "type": "address"
        },
        {
          "internalType": "string",
          "name": "printerDetails",
          "type": "string"
        },
        {
          "internalType": "address",
          "name": "currentOrderId",
          "type": "address"
        }
      ],
      "stateMutability": "view",
      "type": "function"
    },
    {
      "inputs": [
        {
          "internalType": "address",
          "name": "",
          "type": "address"
        },
        {
          "internalType": "uint256",
          "name": "",
          "type": "uint256"
        }
      ],
      "name": "providerOrders",
      "outputs": [
        {
          "internalType": "address",
          "name": "",
          "type": "address"
        }
      ],
      "stateMutability": "view",
      "type": "function"
    },
    {
      "inputs": [
        {
          "internalType": "address",
          "name": "_orderId",
          "type": "address"
        }
      ],
      "name": "refundOrderRequest",
      "outputs": [],
      "stateMutability": "nonpayable",
      "type": "function"
    },
    {
      "inputs": [
        {
          "internalType": "string",
          "name": "_printerDetails",
          "type": "string"
        }
      ],
      "name": "registerPrinter",
      "outputs": [],
      "stateMutability": "nonpayable",
      "type": "function"
    },
    {
      "inputs": [
        {
          "internalType": "address",
          "name": "_orderId",
          "type": "address"
        }
      ],
      "name": "reportUncompleteOrder",
      "outputs": [],
      "stateMutability": "nonpayable",
      "type": "function"
    },
    {
      "inputs": [
        {
          "internalType": "address",
          "name": "_orderId",
          "type": "address"
        }
      ],
      "name": "signOrder",
      "outputs": [],
      "stateMutability": "nonpayable",
      "type": "function"
    },
    {
      "inputs": [
        {
          "internalType": "address",
          "name": "_orderId",
          "type": "address"
        }
      ],
      "name": "transferFundsProivder",
      "outputs": [],
      "stateMutability": "nonpayable",
      "type": "function"
    }
  ],
  "bytecode": "0x608060405234801561001057600080fd5b50604051615da7380380615da78339818101604052810190610032919061011c565b336000806101000a81548173ffffffffffffffffffffffffffffffffffffffff021916908373ffffffffffffffffffffffffffffffffffffffff16021790555080600160006101000a81548173ffffffffffffffffffffffffffffffffffffffff021916908373ffffffffffffffffffffffffffffffffffffffff16021790555050610149565b600080fd5b600073ffffffffffffffffffffffffffffffffffffffff82169050919050565b60006100e9826100be565b9050919050565b6100f9816100de565b811461010457600080fd5b50565b600081519050610116816100f0565b92915050565b600060208284031215610132576101316100b9565b5b600061014084828501610107565b91505092915050565b615c4f806101586000396000f3fe608060405234801561001057600080fd5b506004361061010a5760003560e01c80635f199a83116100a2578063ba0c24c311610071578063ba0c24c31461028f578063c55a5271146102c1578063c8ef627d146102cb578063f40e8471146102e7578063fac4d514146103215761010a565b80635f199a831461021d5780635fbbd6bf146102395780636a798d80146102555780638da5cb5b146102715761010a565b80633ba34363116100de5780633ba34363146101975780634dc6d194146101b35780634e585810146101d1578063518e62db146102015761010a565b806286e68b1461010f57806306fab27a1461012d57806311174179146101495780633013ce2914610179575b600080fd5b61011761033f565b604051610124919061413d565b60405180910390f35b6101476004803603810190610142919061419f565b6108bd565b005b610163600480360381019061015e91906141f8565b610e5a565b6040516101709190614234565b60405180910390f35b610181610e99565b60405161018e91906142ae565b60405180910390f35b6101b160048036038101906101ac919061419f565b610ebf565b005b6101bb61152b565b6040516101c8919061446b565b60405180910390f35b6101eb60048036038101906101e6919061448d565b611793565b6040516101f89190614234565b60405180910390f35b61021b600480360381019061021691906144cd565b6117e1565b005b6102376004803603810190610232919061419f565b6120c3565b005b610253600480360381019061024e919061467d565b61250e565b005b61026f600480360381019061026a919061419f565b612773565b005b610279612bfd565b6040516102869190614234565b60405180910390f35b6102a960048036038101906102a4919061419f565b612c21565b6040516102b893929190614710565b60405180910390f35b6102c9612d13565b005b6102e560048036038101906102e0919061419f565b612f02565b005b61030160048036038101906102fc919061419f565b6133b8565b6040516103189b9a9998979695949392919061476c565b60405180910390f35b610329613499565b604051610336919061413d565b60405180910390f35b60606000600560003373ffffffffffffffffffffffffffffffffffffffff1673ffffffffffffffffffffffffffffffffffffffff1681526020019081526020016000209050600080600090505b82805490508110156104dc57600460008483815481106103af576103ae614817565b5b9060005260206000200160009054906101000a900473ffffffffffffffffffffffffffffffffffffffff1673ffffffffffffffffffffffffffffffffffffffff1673ffffffffffffffffffffffffffffffffffffffff16815260200190815260200160002060080160009054906101000a900460ff1680156104bb57506004600084838154811061044357610442614817565b5b9060005260206000200160009054906101000a900473ffffffffffffffffffffffffffffffffffffffff1673ffffffffffffffffffffffffffffffffffffffff1673ffffffffffffffffffffffffffffffffffffffff16815260200190815260200160002060080160019054906101000a900460ff16155b156104cf5781806104cb90614875565b9250505b808060010191505061038c565b5060008167ffffffffffffffff8111156104f9576104f8614552565b5b60405190808252806020026020018201604052801561053257816020015b61051f613e48565b8152602001906001900390816105175790505b5090506000805b84805490508110156108b2576004600086838154811061055c5761055b614817565b5b9060005260206000200160009054906101000a900473ffffffffffffffffffffffffffffffffffffffff1673ffffffffffffffffffffffffffffffffffffffff1673ffffffffffffffffffffffffffffffffffffffff16815260200190815260200160002060080160009054906101000a900460ff1680156106685750600460008683815481106105f0576105ef614817565b5b9060005260206000200160009054906101000a900473ffffffffffffffffffffffffffffffffffffffff1673ffffffffffffffffffffffffffffffffffffffff1673ffffffffffffffffffffffffffffffffffffffff16815260200190815260200160002060080160019054906101000a900460ff16155b156108a5576004600086838154811061068457610683614817565b5b9060005260206000200160009054906101000a900473ffffffffffffffffffffffffffffffffffffffff1673ffffffffffffffffffffffffffffffffffffffff1673ffffffffffffffffffffffffffffffffffffffff168152602001908152602001600020604051806101600160405290816000820160009054906101000a900473ffffffffffffffffffffffffffffffffffffffff1673ffffffffffffffffffffffffffffffffffffffff1673ffffffffffffffffffffffffffffffffffffffff1681526020016001820160009054906101000a900473ffffffffffffffffffffffffffffffffffffffff1673ffffffffffffffffffffffffffffffffffffffff1673ffffffffffffffffffffffffffffffffffffffff1681526020016002820160009054906101000a900473ffffffffffffffffffffffffffffffffffffffff1673ffffffffffffffffffffffffffffffffffffffff1673ffffffffffffffffffffffffffffffffffffffff16815260200160038201548152602001600482015481526020016005820154815260200160068201548152602001600782015481526020016008820160009054906101000a900460ff161515151581526020016008820160019054906101000a900460ff161515151581526020016008820160029054906101000a900460ff16151515158152505083838061088690614875565b94508151811061089957610898614817565b5b60200260200101819052505b8080600101915050610539565b508194505050505090565b3373ffffffffffffffffffffffffffffffffffffffff16600360003373ffffffffffffffffffffffffffffffffffffffff1673ffffffffffffffffffffffffffffffffffffffff16815260200190815260200160002060000160009054906101000a900473ffffffffffffffffffffffffffffffffffffffff1673ffffffffffffffffffffffffffffffffffffffff161461098d576040517f08c379a00000000000000000000000000000000000000000000000000000000081526004016109849061492f565b60405180910390fd5b8073ffffffffffffffffffffffffffffffffffffffff16600460008373ffffffffffffffffffffffffffffffffffffffff1673ffffffffffffffffffffffffffffffffffffffff16815260200190815260200160002060000160009054906101000a900473ffffffffffffffffffffffffffffffffffffffff1673ffffffffffffffffffffffffffffffffffffffff1614610a5d576040517f08c379a0000000000000000000000000000000000000000000000000000000008152600401610a549061499b565b60405180910390fd5b3373ffffffffffffffffffffffffffffffffffffffff16600460008373ffffffffffffffffffffffffffffffffffffffff1673ffffffffffffffffffffffffffffffffffffffff16815260200190815260200160002060010160009054906101000a900473ffffffffffffffffffffffffffffffffffffffff1673ffffffffffffffffffffffffffffffffffffffff1614610b2d576040517f08c379a0000000000000000000000000000000000000000000000000000000008152600401610b2490614a2d565b60405180910390fd5b600460008273ffffffffffffffffffffffffffffffffffffffff1673ffffffffffffffffffffffffffffffffffffffff16815260200190815260200160002060080160009054906101000a900460ff16610bbc576040517f08c379a0000000000000000000000000000000000000000000000000000000008152600401610bb390614a99565b60405180910390fd5b6000600460008373ffffffffffffffffffffffffffffffffffffffff1673ffffffffffffffffffffffffffffffffffffffff1681526020019081526020016000206006015403610c41576040517f08c379a0000000000000000000000000000000000000000000000000000000008152600401610c3890614b05565b60405180910390fd5b600460008273ffffffffffffffffffffffffffffffffffffffff1673ffffffffffffffffffffffffffffffffffffffff16815260200190815260200160002060080160019054906101000a900460ff1615610cd1576040517f08c379a0000000000000000000000000000000000000000000000000000000008152600401610cc890614b71565b60405180910390fd5b600460008273ffffffffffffffffffffffffffffffffffffffff1673ffffffffffffffffffffffffffffffffffffffff16815260200190815260200160002060050154600460008373ffffffffffffffffffffffffffffffffffffffff1673ffffffffffffffffffffffffffffffffffffffff16815260200190815260200160002060060154610d619190614b91565b4210610da2576040517f08c379a0000000000000000000000000000000000000000000000000000000008152600401610d9990614c11565b60405180910390fd5b6001600460008373ffffffffffffffffffffffffffffffffffffffff1673ffffffffffffffffffffffffffffffffffffffff16815260200190815260200160002060080160016101000a81548160ff0219169083151502179055503373ffffffffffffffffffffffffffffffffffffffff168173ffffffffffffffffffffffffffffffffffffffff167fe68df90267f7c6aa6a1568f99d08bc248fc2e4933693bde34754ecdacc3068ab60405160405180910390a350565b60028181548110610e6a57600080fd5b906000526020600020016000915054906101000a900473ffffffffffffffffffffffffffffffffffffffff1681565b600160009054906101000a900473ffffffffffffffffffffffffffffffffffffffff1681565b8073ffffffffffffffffffffffffffffffffffffffff16600460008373ffffffffffffffffffffffffffffffffffffffff1673ffffffffffffffffffffffffffffffffffffffff16815260200190815260200160002060000160009054906101000a900473ffffffffffffffffffffffffffffffffffffffff1673ffffffffffffffffffffffffffffffffffffffff1614610f8f576040517f08c379a0000000000000000000000000000000000000000000000000000000008152600401610f869061499b565b60405180910390fd5b3373ffffffffffffffffffffffffffffffffffffffff16600460008373ffffffffffffffffffffffffffffffffffffffff1673ffffffffffffffffffffffffffffffffffffffff16815260200190815260200160002060010160009054906101000a900473ffffffffffffffffffffffffffffffffffffffff1673ffffffffffffffffffffffffffffffffffffffff161461105f576040517f08c379a000000000000000000000000000000000000000000000000000000000815260040161105690614ca3565b60405180910390fd5b600460008273ffffffffffffffffffffffffffffffffffffffff1673ffffffffffffffffffffffffffffffffffffffff16815260200190815260200160002060080160009054906101000a900460ff166110ee576040517f08c379a00000000000000000000000000000000000000000000000000000000081526004016110e590614a99565b60405180910390fd5b600460008273ffffffffffffffffffffffffffffffffffffffff1673ffffffffffffffffffffffffffffffffffffffff16815260200190815260200160002060080160019054906101000a900460ff1661117d576040517f08c379a000000000000000000000000000000000000000000000000000000000815260040161117490614d0f565b60405180910390fd5b600460008273ffffffffffffffffffffffffffffffffffffffff1673ffffffffffffffffffffffffffffffffffffffff16815260200190815260200160002060080160029054906101000a900460ff161561120d576040517f08c379a000000000000000000000000000000000000000000000000000000000815260040161120490614da1565b60405180910390fd5b61012c600460008373ffffffffffffffffffffffffffffffffffffffff1673ffffffffffffffffffffffffffffffffffffffff16815260200190815260200160002060050154600460008473ffffffffffffffffffffffffffffffffffffffff1673ffffffffffffffffffffffffffffffffffffffff168152602001908152602001600020600601546112a09190614b91565b6112aa9190614b91565b4210156112ec576040517f08c379a00000000000000000000000000000000000000000000000000000000081526004016112e390614e0d565b60405180910390fd5b600160009054906101000a900473ffffffffffffffffffffffffffffffffffffffff1673ffffffffffffffffffffffffffffffffffffffff1663a9059cbb33600460008573ffffffffffffffffffffffffffffffffffffffff1673ffffffffffffffffffffffffffffffffffffffff168152602001908152602001600020600401546040518363ffffffff1660e01b815260040161138b929190614e2d565b6020604051808303816000875af11580156113aa573d6000803e3d6000fd5b505050506040513d601f19601f820116820180604052508101906113ce9190614e82565b61140d576040517f08c379a000000000000000000000000000000000000000000000000000000000815260040161140490614efb565b60405180910390fd5b600460008273ffffffffffffffffffffffffffffffffffffffff1673ffffffffffffffffffffffffffffffffffffffff168152602001908152602001600020600080820160006101000a81549073ffffffffffffffffffffffffffffffffffffffff02191690556001820160006101000a81549073ffffffffffffffffffffffffffffffffffffffff02191690556002820160006101000a81549073ffffffffffffffffffffffffffffffffffffffff0219169055600382016000905560048201600090556005820160009055600682016000905560078201600090556008820160006101000a81549060ff02191690556008820160016101000a81549060ff02191690556008820160026101000a81549060ff0219169055505050565b6060600060028054905067ffffffffffffffff81111561154e5761154d614552565b5b60405190808252806020026020018201604052801561158757816020015b611574613eea565b81526020019060019003908161156c5790505b50905060005b60028054905081101561178b5760036000600283815481106115b2576115b1614817565b5b9060005260206000200160009054906101000a900473ffffffffffffffffffffffffffffffffffffffff1673ffffffffffffffffffffffffffffffffffffffff1673ffffffffffffffffffffffffffffffffffffffff1681526020019081526020016000206040518060600160405290816000820160009054906101000a900473ffffffffffffffffffffffffffffffffffffffff1673ffffffffffffffffffffffffffffffffffffffff1673ffffffffffffffffffffffffffffffffffffffff16815260200160018201805461168890614f4a565b80601f01602080910402602001604051908101604052809291908181526020018280546116b490614f4a565b80156117015780601f106116d657610100808354040283529160200191611701565b820191906000526020600020905b8154815290600101906020018083116116e457829003601f168201915b505050505081526020016002820160009054906101000a900473ffffffffffffffffffffffffffffffffffffffff1673ffffffffffffffffffffffffffffffffffffffff1673ffffffffffffffffffffffffffffffffffffffff168152505082828151811061177357611772614817565b5b6020026020010181905250808060010191505061158d565b508091505090565b600560205281600052604060002081815481106117af57600080fd5b906000526020600020016000915091509054906101000a900473ffffffffffffffffffffffffffffffffffffffff1681565b600073ffffffffffffffffffffffffffffffffffffffff16600460008773ffffffffffffffffffffffffffffffffffffffff1673ffffffffffffffffffffffffffffffffffffffff16815260200190815260200160002060000160009054906101000a900473ffffffffffffffffffffffffffffffffffffffff1673ffffffffffffffffffffffffffffffffffffffff16146118b2576040517f08c379a00000000000000000000000000000000000000000000000000000000081526004016118a990614fc7565b60405180910390fd5b600073ffffffffffffffffffffffffffffffffffffffff168573ffffffffffffffffffffffffffffffffffffffff1603611921576040517f08c379a000000000000000000000000000000000000000000000000000000000815260040161191890615033565b60405180910390fd5b8373ffffffffffffffffffffffffffffffffffffffff16600360008673ffffffffffffffffffffffffffffffffffffffff1673ffffffffffffffffffffffffffffffffffffffff16815260200190815260200160002060000160009054906101000a900473ffffffffffffffffffffffffffffffffffffffff1673ffffffffffffffffffffffffffffffffffffffff16146119f1576040517f08c379a00000000000000000000000000000000000000000000000000000000081526004016119e89061509f565b60405180910390fd5b60008311611a34576040517f08c379a0000000000000000000000000000000000000000000000000000000008152600401611a2b9061510b565b60405180910390fd5b82821015611a77576040517f08c379a0000000000000000000000000000000000000000000000000000000008152600401611a6e9061519d565b60405180910390fd5b60008111611aba576040517f08c379a0000000000000000000000000000000000000000000000000000000008152600401611ab190615209565b60405180910390fd5b81600160009054906101000a900473ffffffffffffffffffffffffffffffffffffffff1673ffffffffffffffffffffffffffffffffffffffff166370a08231336040518263ffffffff1660e01b8152600401611b169190614234565b602060405180830381865afa158015611b33573d6000803e3d6000fd5b505050506040513d601f19601f82011682018060405250810190611b57919061523e565b1015611b98576040517f08c379a0000000000000000000000000000000000000000000000000000000008152600401611b8f906152b7565b60405180910390fd5b81600160009054906101000a900473ffffffffffffffffffffffffffffffffffffffff1673ffffffffffffffffffffffffffffffffffffffff1663dd62ed3e33306040518363ffffffff1660e01b8152600401611bf69291906152d7565b602060405180830381865afa158015611c13573d6000803e3d6000fd5b505050506040513d601f19601f82011682018060405250810190611c37919061523e565b1015611c78576040517f08c379a0000000000000000000000000000000000000000000000000000000008152600401611c6f90615372565b60405180910390fd5b600160009054906101000a900473ffffffffffffffffffffffffffffffffffffffff1673ffffffffffffffffffffffffffffffffffffffff166323b872dd3330856040518463ffffffff1660e01b8152600401611cd793929190615392565b6020604051808303816000875af1158015611cf6573d6000803e3d6000fd5b505050506040513d601f19601f82011682018060405250810190611d1a9190614e82565b611d59576040517f08c379a0000000000000000000000000000000000000000000000000000000008152600401611d5090614efb565b60405180910390fd5b611d628461399f565b6040518061016001604052808673ffffffffffffffffffffffffffffffffffffffff1681526020018573ffffffffffffffffffffffffffffffffffffffff1681526020013373ffffffffffffffffffffffffffffffffffffffff1681526020018481526020018381526020018281526020016000815260200161012c42611de99190614b91565b815260200160001515815260200160001515815260200160001515815250600460008773ffffffffffffffffffffffffffffffffffffffff1673ffffffffffffffffffffffffffffffffffffffff16815260200190815260200160002060008201518160000160006101000a81548173ffffffffffffffffffffffffffffffffffffffff021916908373ffffffffffffffffffffffffffffffffffffffff16021790555060208201518160010160006101000a81548173ffffffffffffffffffffffffffffffffffffffff021916908373ffffffffffffffffffffffffffffffffffffffff16021790555060408201518160020160006101000a81548173ffffffffffffffffffffffffffffffffffffffff021916908373ffffffffffffffffffffffffffffffffffffffff160217905550606082015181600301556080820151816004015560a0820151816005015560c0820151816006015560e082015181600701556101008201518160080160006101000a81548160ff0219169083151502179055506101208201518160080160016101000a81548160ff0219169083151502179055506101408201518160080160026101000a81548160ff021916908315150217905550905050600560008573ffffffffffffffffffffffffffffffffffffffff1673ffffffffffffffffffffffffffffffffffffffff168152602001908152602001600020859080600181540180825580915050600190039060005260206000200160009091909190916101000a81548173ffffffffffffffffffffffffffffffffffffffff021916908373ffffffffffffffffffffffffffffffffffffffff1602179055508373ffffffffffffffffffffffffffffffffffffffff168573ffffffffffffffffffffffffffffffffffffffff167fe43c7a25359805ec97a99d788eab6bc01d5ead3a30a6d0d4998533e9cc53e2308585856040516120b4939291906153c9565b60405180910390a35050505050565b3373ffffffffffffffffffffffffffffffffffffffff16600360003373ffffffffffffffffffffffffffffffffffffffff1673ffffffffffffffffffffffffffffffffffffffff16815260200190815260200160002060000160009054906101000a900473ffffffffffffffffffffffffffffffffffffffff1673ffffffffffffffffffffffffffffffffffffffff1614612193576040517f08c379a000000000000000000000000000000000000000000000000000000000815260040161218a9061492f565b60405180910390fd5b8073ffffffffffffffffffffffffffffffffffffffff16600460008373ffffffffffffffffffffffffffffffffffffffff1673ffffffffffffffffffffffffffffffffffffffff16815260200190815260200160002060000160009054906101000a900473ffffffffffffffffffffffffffffffffffffffff1673ffffffffffffffffffffffffffffffffffffffff1614612263576040517f08c379a000000000000000000000000000000000000000000000000000000000815260040161225a9061499b565b60405180910390fd5b3373ffffffffffffffffffffffffffffffffffffffff16600460008373ffffffffffffffffffffffffffffffffffffffff1673ffffffffffffffffffffffffffffffffffffffff16815260200190815260200160002060010160009054906101000a900473ffffffffffffffffffffffffffffffffffffffff1673ffffffffffffffffffffffffffffffffffffffff1614612333576040517f08c379a000000000000000000000000000000000000000000000000000000000815260040161232a90615472565b60405180910390fd5b600460008273ffffffffffffffffffffffffffffffffffffffff1673ffffffffffffffffffffffffffffffffffffffff1681526020019081526020016000206007015442106123b7576040517f08c379a00000000000000000000000000000000000000000000000000000000081526004016123ae906154de565b60405180910390fd5b60001515600460008373ffffffffffffffffffffffffffffffffffffffff1673ffffffffffffffffffffffffffffffffffffffff16815260200190815260200160002060080160009054906101000a900460ff1615151461244d576040517f08c379a00000000000000000000000000000000000000000000000000000000081526004016124449061554a565b60405180910390fd5b6124563361399f565b6001600460008373ffffffffffffffffffffffffffffffffffffffff1673ffffffffffffffffffffffffffffffffffffffff16815260200190815260200160002060080160006101000a81548160ff0219169083151502179055503373ffffffffffffffffffffffffffffffffffffffff168173ffffffffffffffffffffffffffffffffffffffff167fc7d8e27d120cd1775a95558c92469475da8ab4800ecb1a325ec407b876ad768460405160405180910390a350565b600073ffffffffffffffffffffffffffffffffffffffff16600360003373ffffffffffffffffffffffffffffffffffffffff1673ffffffffffffffffffffffffffffffffffffffff16815260200190815260200160002060000160009054906101000a900473ffffffffffffffffffffffffffffffffffffffff1673ffffffffffffffffffffffffffffffffffffffff16146125df576040517f08c379a00000000000000000000000000000000000000000000000000000000081526004016125d6906155b6565b60405180910390fd5b60405180606001604052803373ffffffffffffffffffffffffffffffffffffffff168152602001828152602001600073ffffffffffffffffffffffffffffffffffffffff16815250600360003373ffffffffffffffffffffffffffffffffffffffff1673ffffffffffffffffffffffffffffffffffffffff16815260200190815260200160002060008201518160000160006101000a81548173ffffffffffffffffffffffffffffffffffffffff021916908373ffffffffffffffffffffffffffffffffffffffff16021790555060208201518160010190816126c29190615778565b5060408201518160020160006101000a81548173ffffffffffffffffffffffffffffffffffffffff021916908373ffffffffffffffffffffffffffffffffffffffff1602179055509050506002339080600181540180825580915050600190039060005260206000200160009091909190916101000a81548173ffffffffffffffffffffffffffffffffffffffff021916908373ffffffffffffffffffffffffffffffffffffffff16021790555050565b8073ffffffffffffffffffffffffffffffffffffffff16600460008373ffffffffffffffffffffffffffffffffffffffff1673ffffffffffffffffffffffffffffffffffffffff16815260200190815260200160002060000160009054906101000a900473ffffffffffffffffffffffffffffffffffffffff1673ffffffffffffffffffffffffffffffffffffffff1614612843576040517f08c379a000000000000000000000000000000000000000000000000000000000815260040161283a9061499b565b60405180910390fd5b3373ffffffffffffffffffffffffffffffffffffffff16600460008373ffffffffffffffffffffffffffffffffffffffff1673ffffffffffffffffffffffffffffffffffffffff16815260200190815260200160002060020160009054906101000a900473ffffffffffffffffffffffffffffffffffffffff1673ffffffffffffffffffffffffffffffffffffffff1614612913576040517f08c379a000000000000000000000000000000000000000000000000000000000815260040161290a90615896565b60405180910390fd5b600460008273ffffffffffffffffffffffffffffffffffffffff1673ffffffffffffffffffffffffffffffffffffffff16815260200190815260200160002060080160009054906101000a900460ff166129a2576040517f08c379a000000000000000000000000000000000000000000000000000000000815260040161299990614a99565b60405180910390fd5b600460008273ffffffffffffffffffffffffffffffffffffffff1673ffffffffffffffffffffffffffffffffffffffff16815260200190815260200160002060080160019054906101000a900460ff16612a31576040517f08c379a0000000000000000000000000000000000000000000000000000000008152600401612a2890614d0f565b60405180910390fd5b600460008273ffffffffffffffffffffffffffffffffffffffff1673ffffffffffffffffffffffffffffffffffffffff16815260200190815260200160002060080160029054906101000a900460ff1615612ac1576040517f08c379a0000000000000000000000000000000000000000000000000000000008152600401612ab890615928565b60405180910390fd5b61012c600460008373ffffffffffffffffffffffffffffffffffffffff1673ffffffffffffffffffffffffffffffffffffffff16815260200190815260200160002060050154600460008473ffffffffffffffffffffffffffffffffffffffff1673ffffffffffffffffffffffffffffffffffffffff16815260200190815260200160002060060154612b549190614b91565b612b5e9190614b91565b4210612b9f576040517f08c379a0000000000000000000000000000000000000000000000000000000008152600401612b9690615994565b60405180910390fd5b6000600460008373ffffffffffffffffffffffffffffffffffffffff1673ffffffffffffffffffffffffffffffffffffffff16815260200190815260200160002060080160026101000a81548160ff02191690831515021790555050565b60008054906101000a900473ffffffffffffffffffffffffffffffffffffffff1681565b60036020528060005260406000206000915090508060000160009054906101000a900473ffffffffffffffffffffffffffffffffffffffff1690806001018054612c6a90614f4a565b80601f0160208091040260200160405190810160405280929190818152602001828054612c9690614f4a565b8015612ce35780601f10612cb857610100808354040283529160200191612ce3565b820191906000526020600020905b815481529060010190602001808311612cc657829003601f168201915b5050505050908060020160009054906101000a900473ffffffffffffffffffffffffffffffffffffffff16905083565b3373ffffffffffffffffffffffffffffffffffffffff16600360003373ffffffffffffffffffffffffffffffffffffffff1673ffffffffffffffffffffffffffffffffffffffff16815260200190815260200160002060000160009054906101000a900473ffffffffffffffffffffffffffffffffffffffff1673ffffffffffffffffffffffffffffffffffffffff1614612de3576040517f08c379a0000000000000000000000000000000000000000000000000000000008152600401612dda9061492f565b60405180910390fd5b6000612ded613cd0565b9050600073ffffffffffffffffffffffffffffffffffffffff168173ffffffffffffffffffffffffffffffffffffffff1603612e5e576040517f08c379a0000000000000000000000000000000000000000000000000000000008152600401612e5590615a00565b60405180910390fd5b42600460008373ffffffffffffffffffffffffffffffffffffffff1673ffffffffffffffffffffffffffffffffffffffff168152602001908152602001600020600601819055503373ffffffffffffffffffffffffffffffffffffffff168173ffffffffffffffffffffffffffffffffffffffff167ff5a1e36cd5f2e985284ebb45638edb7a4de37bc2001adfae6bdfe4924ad5799560405160405180910390a350565b8073ffffffffffffffffffffffffffffffffffffffff16600460008373ffffffffffffffffffffffffffffffffffffffff1673ffffffffffffffffffffffffffffffffffffffff16815260200190815260200160002060000160009054906101000a900473ffffffffffffffffffffffffffffffffffffffff1673ffffffffffffffffffffffffffffffffffffffff1614612fd2576040517f08c379a0000000000000000000000000000000000000000000000000000000008152600401612fc99061499b565b60405180910390fd5b3373ffffffffffffffffffffffffffffffffffffffff16600460008373ffffffffffffffffffffffffffffffffffffffff1673ffffffffffffffffffffffffffffffffffffffff16815260200190815260200160002060020160009054906101000a900473ffffffffffffffffffffffffffffffffffffffff1673ffffffffffffffffffffffffffffffffffffffff16146130a2576040517f08c379a000000000000000000000000000000000000000000000000000000000815260040161309990615a92565b60405180910390fd5b600460008273ffffffffffffffffffffffffffffffffffffffff1673ffffffffffffffffffffffffffffffffffffffff16815260200190815260200160002060080160009054906101000a900460ff1615613132576040517f08c379a000000000000000000000000000000000000000000000000000000000815260040161312990615afe565b60405180910390fd5b600460008273ffffffffffffffffffffffffffffffffffffffff1673ffffffffffffffffffffffffffffffffffffffff168152602001908152602001600020600701544210156131b7576040517f08c379a00000000000000000000000000000000000000000000000000000000081526004016131ae90615b6a565b60405180910390fd5b600160009054906101000a900473ffffffffffffffffffffffffffffffffffffffff1673ffffffffffffffffffffffffffffffffffffffff1663a9059cbb33600460008573ffffffffffffffffffffffffffffffffffffffff1673ffffffffffffffffffffffffffffffffffffffff168152602001908152602001600020600401546040518363ffffffff1660e01b8152600401613256929190614e2d565b6020604051808303816000875af1158015613275573d6000803e3d6000fd5b505050506040513d601f19601f820116820180604052508101906132999190614e82565b50600460008273ffffffffffffffffffffffffffffffffffffffff1673ffffffffffffffffffffffffffffffffffffffff168152602001908152602001600020600080820160006101000a81549073ffffffffffffffffffffffffffffffffffffffff02191690556001820160006101000a81549073ffffffffffffffffffffffffffffffffffffffff02191690556002820160006101000a81549073ffffffffffffffffffffffffffffffffffffffff0219169055600382016000905560048201600090556005820160009055600682016000905560078201600090556008820160006101000a81549060ff02191690556008820160016101000a81549060ff02191690556008820160026101000a81549060ff0219169055505050565b60046020528060005260406000206000915090508060000160009054906101000a900473ffffffffffffffffffffffffffffffffffffffff16908060010160009054906101000a900473ffffffffffffffffffffffffffffffffffffffff16908060020160009054906101000a900473ffffffffffffffffffffffffffffffffffffffff16908060030154908060040154908060050154908060060154908060070154908060080160009054906101000a900460ff16908060080160019054906101000a900460ff16908060080160029054906101000a900460ff1690508b565b606060008060028054905067ffffffffffffffff8111156134bd576134bc614552565b5b6040519080825280602002602001820160405280156134eb5781602001602082028036833780820191505090505b50905060005b60028054905081101561371c5760006002828154811061351457613513614817565b5b9060005260206000200160009054906101000a900473ffffffffffffffffffffffffffffffffffffffff1690506000600560008373ffffffffffffffffffffffffffffffffffffffff1673ffffffffffffffffffffffffffffffffffffffff168152602001908152602001600020905060005b818054905081101561370c573373ffffffffffffffffffffffffffffffffffffffff16600460008484815481106135c1576135c0614817565b5b9060005260206000200160009054906101000a900473ffffffffffffffffffffffffffffffffffffffff1673ffffffffffffffffffffffffffffffffffffffff1673ffffffffffffffffffffffffffffffffffffffff16815260200190815260200160002060020160009054906101000a900473ffffffffffffffffffffffffffffffffffffffff1673ffffffffffffffffffffffffffffffffffffffff16036136ff5781818154811061367857613677614817565b5b9060005260206000200160009054906101000a900473ffffffffffffffffffffffffffffffffffffffff168587815181106136b6576136b5614817565b5b602002602001019073ffffffffffffffffffffffffffffffffffffffff16908173ffffffffffffffffffffffffffffffffffffffff168152505085806136fb90614875565b9650505b8080600101915050613587565b50505080806001019150506134f1565b5060008267ffffffffffffffff81111561373957613738614552565b5b60405190808252806020026020018201604052801561377257816020015b61375f613e48565b8152602001906001900390816137575790505b50905060005b83811015613995576004600084838151811061379757613796614817565b5b602002602001015173ffffffffffffffffffffffffffffffffffffffff1673ffffffffffffffffffffffffffffffffffffffff168152602001908152602001600020604051806101600160405290816000820160009054906101000a900473ffffffffffffffffffffffffffffffffffffffff1673ffffffffffffffffffffffffffffffffffffffff1673ffffffffffffffffffffffffffffffffffffffff1681526020016001820160009054906101000a900473ffffffffffffffffffffffffffffffffffffffff1673ffffffffffffffffffffffffffffffffffffffff1673ffffffffffffffffffffffffffffffffffffffff1681526020016002820160009054906101000a900473ffffffffffffffffffffffffffffffffffffffff1673ffffffffffffffffffffffffffffffffffffffff1673ffffffffffffffffffffffffffffffffffffffff16815260200160038201548152602001600482015481526020016005820154815260200160068201548152602001600782015481526020016008820160009054906101000a900460ff161515151581526020016008820160019054906101000a900460ff161515151581526020016008820160029054906101000a900460ff16151515158152505082828151811061397d5761397c614817565b5b60200260200101819052508080600101915050613778565b5080935050505090565b6000600560008373ffffffffffffffffffffffffffffffffffffffff1673ffffffffffffffffffffffffffffffffffffffff16815260200190815260200160002090506000818054905090506000805b82811015613c71576000848281548110613a0c57613a0b614817565b5b9060005260206000200160009054906101000a900473ffffffffffffffffffffffffffffffffffffffff169050600460008273ffffffffffffffffffffffffffffffffffffffff1673ffffffffffffffffffffffffffffffffffffffff16815260200190815260200160002060080160019054906101000a900460ff1680613ad5575042600460008373ffffffffffffffffffffffffffffffffffffffff1673ffffffffffffffffffffffffffffffffffffffff16815260200190815260200160002060070154105b15613bfa57600460008273ffffffffffffffffffffffffffffffffffffffff1673ffffffffffffffffffffffffffffffffffffffff168152602001908152602001600020600080820160006101000a81549073ffffffffffffffffffffffffffffffffffffffff02191690556001820160006101000a81549073ffffffffffffffffffffffffffffffffffffffff02191690556002820160006101000a81549073ffffffffffffffffffffffffffffffffffffffff0219169055600382016000905560048201600090556005820160009055600682016000905560078201600090556008820160006101000a81549060ff02191690556008820160016101000a81549060ff02191690556008820160026101000a81549060ff02191690555050613c63565b80858480613c0790614875565b955081548110613c1a57613c19614817565b5b9060005260206000200160006101000a81548173ffffffffffffffffffffffffffffffffffffffff021916908373ffffffffffffffffffffffffffffffffffffffff1602179055505b5080806001019150506139ef565b505b8083805490501115613cca5782805480613c9057613c8f615b8a565b5b6001900381819060005260206000200160006101000a81549073ffffffffffffffffffffffffffffffffffffffff02191690559055613c73565b50505050565b600080613cdb61033f565b90506000815103613cf0576000915050613e45565b6000815167ffffffffffffffff811115613d0d57613d0c614552565b5b604051908082528060200260200182016040528015613d3b5781602001602082028036833780820191505090505b50905060005b8251811015613dbe57828181518110613d5d57613d5c614817565b5b602002602001015160600151838281518110613d7c57613d7b614817565b5b602002602001015160800151613d929190615be8565b828281518110613da557613da4614817565b5b6020026020010181815250508080600101915050613d41565b5060008060005b8351811015613e1e5782848281518110613de257613de1614817565b5b60200260200101511115613e1157838181518110613e0357613e02614817565b5b602002602001015192508091505b8080600101915050613dc5565b50838181518110613e3257613e31614817565b5b6020026020010151600001519450505050505b90565b604051806101600160405280600073ffffffffffffffffffffffffffffffffffffffff168152602001600073ffffffffffffffffffffffffffffffffffffffff168152602001600073ffffffffffffffffffffffffffffffffffffffff16815260200160008152602001600081526020016000815260200160008152602001600081526020016000151581526020016000151581526020016000151581525090565b6040518060600160405280600073ffffffffffffffffffffffffffffffffffffffff16815260200160608152602001600073ffffffffffffffffffffffffffffffffffffffff1681525090565b600081519050919050565b600082825260208201905092915050565b6000819050602082019050919050565b600073ffffffffffffffffffffffffffffffffffffffff82169050919050565b6000613f8e82613f63565b9050919050565b613f9e81613f83565b82525050565b6000819050919050565b613fb781613fa4565b82525050565b60008115159050919050565b613fd281613fbd565b82525050565b61016082016000820151613fef6000850182613f95565b5060208201516140026020850182613f95565b5060408201516140156040850182613f95565b5060608201516140286060850182613fae565b50608082015161403b6080850182613fae565b5060a082015161404e60a0850182613fae565b5060c082015161406160c0850182613fae565b5060e082015161407460e0850182613fae565b50610100820151614089610100850182613fc9565b5061012082015161409e610120850182613fc9565b506101408201516140b3610140850182613fc9565b50505050565b60006140c58383613fd8565b6101608301905092915050565b6000602082019050919050565b60006140ea82613f37565b6140f48185613f42565b93506140ff83613f53565b8060005b8381101561413057815161411788826140b9565b9750614122836140d2565b925050600181019050614103565b5085935050505092915050565b6000602082019050818103600083015261415781846140df565b905092915050565b6000604051905090565b600080fd5b600080fd5b61417c81613f83565b811461418757600080fd5b50565b60008135905061419981614173565b92915050565b6000602082840312156141b5576141b4614169565b5b60006141c38482850161418a565b91505092915050565b6141d581613fa4565b81146141e057600080fd5b50565b6000813590506141f2816141cc565b92915050565b60006020828403121561420e5761420d614169565b5b600061421c848285016141e3565b91505092915050565b61422e81613f83565b82525050565b60006020820190506142496000830184614225565b92915050565b6000819050919050565b600061427461426f61426a84613f63565b61424f565b613f63565b9050919050565b600061428682614259565b9050919050565b60006142988261427b565b9050919050565b6142a88161428d565b82525050565b60006020820190506142c3600083018461429f565b92915050565b600081519050919050565b600082825260208201905092915050565b6000819050602082019050919050565b600081519050919050565b600082825260208201905092915050565b60005b8381101561432f578082015181840152602081019050614314565b60008484015250505050565b6000601f19601f8301169050919050565b6000614357826142f5565b6143618185614300565b9350614371818560208601614311565b61437a8161433b565b840191505092915050565b600060608301600083015161439d6000860182613f95565b50602083015184820360208601526143b5828261434c565b91505060408301516143ca6040860182613f95565b508091505092915050565b60006143e18383614385565b905092915050565b6000602082019050919050565b6000614401826142c9565b61440b81856142d4565b93508360208202850161441d856142e5565b8060005b85811015614459578484038952815161443a85826143d5565b9450614445836143e9565b925060208a01995050600181019050614421565b50829750879550505050505092915050565b6000602082019050818103600083015261448581846143f6565b905092915050565b600080604083850312156144a4576144a3614169565b5b60006144b28582860161418a565b92505060206144c3858286016141e3565b9150509250929050565b600080600080600060a086880312156144e9576144e8614169565b5b60006144f78882890161418a565b95505060206145088882890161418a565b9450506040614519888289016141e3565b935050606061452a888289016141e3565b925050608061453b888289016141e3565b9150509295509295909350565b600080fd5b600080fd5b7f4e487b7100000000000000000000000000000000000000000000000000000000600052604160045260246000fd5b61458a8261433b565b810181811067ffffffffffffffff821117156145a9576145a8614552565b5b80604052505050565b60006145bc61415f565b90506145c88282614581565b919050565b600067ffffffffffffffff8211156145e8576145e7614552565b5b6145f18261433b565b9050602081019050919050565b82818337600083830152505050565b600061462061461b846145cd565b6145b2565b90508281526020810184848401111561463c5761463b61454d565b5b6146478482856145fe565b509392505050565b600082601f83011261466457614663614548565b5b813561467484826020860161460d565b91505092915050565b60006020828403121561469357614692614169565b5b600082013567ffffffffffffffff8111156146b1576146b061416e565b5b6146bd8482850161464f565b91505092915050565b600082825260208201905092915050565b60006146e2826142f5565b6146ec81856146c6565b93506146fc818560208601614311565b6147058161433b565b840191505092915050565b60006060820190506147256000830186614225565b818103602083015261473781856146d7565b90506147466040830184614225565b949350505050565b61475781613fa4565b82525050565b61476681613fbd565b82525050565b600061016082019050614782600083018e614225565b61478f602083018d614225565b61479c604083018c614225565b6147a9606083018b61474e565b6147b6608083018a61474e565b6147c360a083018961474e565b6147d060c083018861474e565b6147dd60e083018761474e565b6147eb61010083018661475d565b6147f961012083018561475d565b61480761014083018461475d565b9c9b505050505050505050505050565b7f4e487b7100000000000000000000000000000000000000000000000000000000600052603260045260246000fd5b7f4e487b7100000000000000000000000000000000000000000000000000000000600052601160045260246000fd5b600061488082613fa4565b91507fffffffffffffffffffffffffffffffffffffffffffffffffffffffffffffffff82036148b2576148b1614846565b5b600182019050919050565b7f4f6e6c79207072696e7465722063616e2063616c6c20746869732066756e637460008201527f696f6e0000000000000000000000000000000000000000000000000000000000602082015250565b60006149196023836146c6565b9150614924826148bd565b604082019050919050565b600060208201905081810360008301526149488161490c565b9050919050565b7f4f7264657220646f6573206e6f74206578697374000000000000000000000000600082015250565b60006149856014836146c6565b91506149908261494f565b602082019050919050565b600060208201905081810360008301526149b481614978565b9050919050565b7f4f6e6c7920736572766963652070726f76696465722063616e20636f6d706c6560008201527f7465206f72646572000000000000000000000000000000000000000000000000602082015250565b6000614a176028836146c6565b9150614a22826149bb565b604082019050919050565b60006020820190508181036000830152614a4681614a0a565b9050919050565b7f4f72646572206e6f74207369676e656400000000000000000000000000000000600082015250565b6000614a836010836146c6565b9150614a8e82614a4d565b602082019050919050565b60006020820190508181036000830152614ab281614a76565b9050919050565b7f4f72646572206e6f742073746172746564000000000000000000000000000000600082015250565b6000614aef6011836146c6565b9150614afa82614ab9565b602082019050919050565b60006020820190508181036000830152614b1e81614ae2565b9050919050565b7f4f7264657220616c726561647920636f6d706c65746564000000000000000000600082015250565b6000614b5b6017836146c6565b9150614b6682614b25565b602082019050919050565b60006020820190508181036000830152614b8a81614b4e565b9050919050565b6000614b9c82613fa4565b9150614ba783613fa4565b9250828201905080821115614bbf57614bbe614846565b5b92915050565b7f4f72646572206475726174696f6e206578706972656400000000000000000000600082015250565b6000614bfb6016836146c6565b9150614c0682614bc5565b602082019050919050565b60006020820190508181036000830152614c2a81614bee565b9050919050565b7f4f6e6c7920736572766963652070726f76696465722063616e207472616e736660008201527f65722066756e6473000000000000000000000000000000000000000000000000602082015250565b6000614c8d6028836146c6565b9150614c9882614c31565b604082019050919050565b60006020820190508181036000830152614cbc81614c80565b9050919050565b7f4f72646572206e6f7420636f6d706c657465642062792070726f766964657200600082015250565b6000614cf9601f836146c6565b9150614d0482614cc3565b602082019050919050565b60006020820190508181036000830152614d2881614cec565b9050919050565b7f4f72646572207265706f7274656420617320756e636f6d706c6574652062792060008201527f637573746f6d6572000000000000000000000000000000000000000000000000602082015250565b6000614d8b6028836146c6565b9150614d9682614d2f565b604082019050919050565b60006020820190508181036000830152614dba81614d7e565b9050919050565b7f5265706f7274696e672074696d65206e6f742065787069726564207965740000600082015250565b6000614df7601e836146c6565b9150614e0282614dc1565b602082019050919050565b60006020820190508181036000830152614e2681614dea565b9050919050565b6000604082019050614e426000830185614225565b614e4f602083018461474e565b9392505050565b614e5f81613fbd565b8114614e6a57600080fd5b50565b600081519050614e7c81614e56565b92915050565b600060208284031215614e9857614e97614169565b5b6000614ea684828501614e6d565b91505092915050565b7f546f6b656e207472616e73666572206661696c65640000000000000000000000600082015250565b6000614ee56015836146c6565b9150614ef082614eaf565b602082019050919050565b60006020820190508181036000830152614f1481614ed8565b9050919050565b7f4e487b7100000000000000000000000000000000000000000000000000000000600052602260045260246000fd5b60006002820490506001821680614f6257607f821691505b602082108103614f7557614f74614f1b565b5b50919050565b7f4f7264657220616c726561647920657869737473000000000000000000000000600082015250565b6000614fb16014836146c6565b9150614fbc82614f7b565b602082019050919050565b60006020820190508181036000830152614fe081614fa4565b9050919050565b7f496e76616c6964206f7264657220494400000000000000000000000000000000600082015250565b600061501d6010836146c6565b915061502882614fe7565b602082019050919050565b6000602082019050818103600083015261504c81615010565b9050919050565b7f5072696e74657220646f6573206e6f7420657869737400000000000000000000600082015250565b60006150896016836146c6565b915061509482615053565b602082019050919050565b600060208201905081810360008301526150b88161507c565b9050919050565b7f5072696365206d7573742062652067726561746572207468616e203000000000600082015250565b60006150f5601c836146c6565b9150615100826150bf565b602082019050919050565b60006020820190508181036000830152615124816150e8565b9050919050565b7f41637475616c207072696365206d75737420626520677265617465722074686160008201527f6e206f7220657175616c20746f206d696e696d616c2070726963650000000000602082015250565b6000615187603b836146c6565b91506151928261512b565b604082019050919050565b600060208201905081810360008301526151b68161517a565b9050919050565b7f4475726174696f6e206d7573742062652067726561746572207468616e203000600082015250565b60006151f3601f836146c6565b91506151fe826151bd565b602082019050919050565b60006020820190508181036000830152615222816151e6565b9050919050565b600081519050615238816141cc565b92915050565b60006020828403121561525457615253614169565b5b600061526284828501615229565b91505092915050565b7f496e73756666696369656e742062616c616e6365000000000000000000000000600082015250565b60006152a16014836146c6565b91506152ac8261526b565b602082019050919050565b600060208201905081810360008301526152d081615294565b9050919050565b60006040820190506152ec6000830185614225565b6152f96020830184614225565b9392505050565b7f436f6e7472616374206e6f7420617070726f76656420746f207472616e73666560008201527f7220746f6b656e73000000000000000000000000000000000000000000000000602082015250565b600061535c6028836146c6565b915061536782615300565b604082019050919050565b6000602082019050818103600083015261538b8161534f565b9050919050565b60006060820190506153a76000830186614225565b6153b46020830185614225565b6153c1604083018461474e565b949350505050565b60006060820190506153de600083018661474e565b6153eb602083018561474e565b6153f8604083018461474e565b949350505050565b7f4f6e6c7920736572766963652070726f76696465722063616e207369676e206f60008201527f7264657200000000000000000000000000000000000000000000000000000000602082015250565b600061545c6024836146c6565b915061546782615400565b604082019050919050565b6000602082019050818103600083015261548b8161544f565b9050919050565b7f4f72646572206578706972656400000000000000000000000000000000000000600082015250565b60006154c8600d836146c6565b91506154d382615492565b602082019050919050565b600060208201905081810360008301526154f7816154bb565b9050919050565b7f4f7264657220616c7265616479207369676e6564000000000000000000000000600082015250565b60006155346014836146c6565b915061553f826154fe565b602082019050919050565b6000602082019050818103600083015261556381615527565b9050919050565b7f5072696e74657220616c72656164792072656769737465726564000000000000600082015250565b60006155a0601a836146c6565b91506155ab8261556a565b602082019050919050565b600060208201905081810360008301526155cf81615593565b9050919050565b60008190508160005260206000209050919050565b60006020601f8301049050919050565b600082821b905092915050565b6000600883026156387fffffffffffffffffffffffffffffffffffffffffffffffffffffffffffffffff826155fb565b61564286836155fb565b95508019841693508086168417925050509392505050565b600061567561567061566b84613fa4565b61424f565b613fa4565b9050919050565b6000819050919050565b61568f8361565a565b6156a361569b8261567c565b848454615608565b825550505050565b600090565b6156b86156ab565b6156c3818484615686565b505050565b5b818110156156e7576156dc6000826156b0565b6001810190506156c9565b5050565b601f82111561572c576156fd816155d6565b615706846155eb565b81016020851015615715578190505b615729615721856155eb565b8301826156c8565b50505b505050565b600082821c905092915050565b600061574f60001984600802615731565b1980831691505092915050565b6000615768838361573e565b9150826002028217905092915050565b615781826142f5565b67ffffffffffffffff81111561579a57615799614552565b5b6157a48254614f4a565b6157af8282856156eb565b600060209050601f8311600181146157e257600084156157d0578287015190505b6157da858261575c565b865550615842565b601f1984166157f0866155d6565b60005b82811015615818578489015182556001820191506020850194506020810190506157f3565b868310156158355784890151615831601f89168261573e565b8355505b6001600288020188555050505b505050505050565b7f4f6e6c7920637573746f6d65722063616e20636f6e6669726d206f7264657200600082015250565b6000615880601f836146c6565b915061588b8261584a565b602082019050919050565b600060208201905081810360008301526158af81615873565b9050919050565b7f4f7264657220616c7265616479207265706f7274656420617320756e636f6d7060008201527f6c65746520627920637573746f6d657200000000000000000000000000000000602082015250565b60006159126030836146c6565b915061591d826158b6565b604082019050919050565b6000602082019050818103600083015261594181615905565b9050919050565b7f5265706f72742074696d65206578706972656400000000000000000000000000600082015250565b600061597e6013836146c6565b915061598982615948565b602082019050919050565b600060208201905081810360008301526159ad81615971565b9050919050565b7f4e6f20616374697665206f726465727320746f20657865637574650000000000600082015250565b60006159ea601b836146c6565b91506159f5826159b4565b602082019050919050565b60006020820190508181036000830152615a19816159dd565b9050919050565b7f4f6e6c7920637573746f6d65722063616e20726566756e64206f72646572207260008201527f6571756573740000000000000000000000000000000000000000000000000000602082015250565b6000615a7c6026836146c6565b9150615a8782615a20565b604082019050919050565b60006020820190508181036000830152615aab81615a6f565b9050919050565b7f4f72646572207265717565737420616c7265616479207369676e656400000000600082015250565b6000615ae8601c836146c6565b9150615af382615ab2565b602082019050919050565b60006020820190508181036000830152615b1781615adb565b9050919050565b7f4f726465722072657175657374206973206e6f74206578706972656420796574600082015250565b6000615b546020836146c6565b9150615b5f82615b1e565b602082019050919050565b60006020820190508181036000830152615b8381615b47565b9050919050565b7f4e487b7100000000000000000000000000000000000000000000000000000000600052603160045260246000fd5b7f4e487b7100000000000000000000000000000000000000000000000000000000600052601260045260246000fd5b6000615bf382613fa4565b9150615bfe83613fa4565b925082615c0e57615c0d615bb9565b5b82820490509291505056fea264697066735822122052cf55c36b95f20b5f525d5ad93c6855bc9c1691bd5bcaefa9546405e3eb4ec964736f6c634300081c0033",
  "linkReferences": {},
  "deployedLinkReferences": {}
}