{
  "_format": "hh-sol-artifact-1",
  "contractName": "Formicarium",
  "sourceName": "contracts/Formicarium.sol",
  "abi": [
    {
      "inputs": [
        {
          "internalType": "address",
          "name": "_paymentToken",
          "type": "address"
        }
      ],
      "stateMutability": "nonpayable",
      "type": "constructor"
    },
    {
      "anonymous": false,
      "inputs": [
        {
          "indexed": true,
          "internalType": "address",
          "name": "orderId",
          "type": "address"
        },
        {
          "indexed": true,
          "internalType": "address",
          "name": "printerId",
          "type": "address"
        }
      ],
      "name": "OrderCompleted",
      "type": "event"
    },
    {
      "anonymous": false,
      "inputs": [
        {
          "indexed": true,
          "internalType": "address",
          "name": "orderId",
          "type": "address"
        },
        {
          "indexed": true,
          "internalType": "address",
          "name": "printerId",
          "type": "address"
        },
        {
          "indexed": false,
          "internalType": "uint256",
          "name": "minimalPrice",
          "type": "uint256"
        },
        {
          "indexed": false,
          "internalType": "uint256",
          "name": "actualPrice",
          "type": "uint256"
        },
        {
          "indexed": false,
          "internalType": "uint256",
          "name": "duration",
          "type": "uint256"
        }
      ],
      "name": "OrderCreated",
      "type": "event"
    },
    {
      "anonymous": false,
      "inputs": [
        {
          "indexed": true,
          "internalType": "address",
          "name": "orderId",
          "type": "address"
        },
        {
          "indexed": true,
          "internalType": "address",
          "name": "printerId",
          "type": "address"
        }
      ],
      "name": "OrderSigned",
      "type": "event"
    },
    {
      "anonymous": false,
      "inputs": [
        {
          "indexed": true,
          "internalType": "address",
          "name": "orderId",
          "type": "address"
        },
        {
          "indexed": true,
          "internalType": "address",
          "name": "printerId",
          "type": "address"
        }
      ],
      "name": "OrderStarted",
      "type": "event"
    },
    {
      "inputs": [
        {
          "internalType": "address",
          "name": "_orderId",
          "type": "address"
        }
      ],
      "name": "completeOrderProvider",
      "outputs": [],
      "stateMutability": "nonpayable",
      "type": "function"
    },
    {
      "inputs": [
        {
          "internalType": "address",
          "name": "_orderId",
          "type": "address"
        },
        {
          "internalType": "address",
          "name": "_printerId",
          "type": "address"
        },
        {
          "internalType": "uint256",
          "name": "_minimalPrice",
          "type": "uint256"
        },
        {
          "internalType": "uint256",
          "name": "_actualPrice",
          "type": "uint256"
        },
        {
          "internalType": "uint256",
          "name": "_duration",
          "type": "uint256"
        }
      ],
      "name": "createOrder",
      "outputs": [],
      "stateMutability": "nonpayable",
      "type": "function"
    },
    {
      "inputs": [],
      "name": "executeNewOrder",
      "outputs": [],
      "stateMutability": "nonpayable",
      "type": "function"
    },
    {
      "inputs": [],
      "name": "getActiveOrders",
      "outputs": [
        {
          "components": [
            {
              "internalType": "address",
              "name": "ID",
              "type": "address"
            },
            {
              "internalType": "address",
              "name": "printerId",
              "type": "address"
            },
            {
              "internalType": "address",
              "name": "customerId",
              "type": "address"
            },
            {
              "internalType": "uint256",
              "name": "minimalPrice",
              "type": "uint256"
            },
            {
              "internalType": "uint256",
              "name": "actualPrice",
              "type": "uint256"
            },
            {
              "internalType": "uint256",
              "name": "duration",
              "type": "uint256"
            },
            {
              "internalType": "uint256",
              "name": "startTime",
              "type": "uint256"
            },
            {
              "internalType": "uint256",
              "name": "expirationTime",
              "type": "uint256"
            },
            {
              "internalType": "bool",
              "name": "isSigned",
              "type": "bool"
            },
            {
              "internalType": "bool",
              "name": "isCompletedProvider",
              "type": "bool"
            },
            {
              "internalType": "bool",
              "name": "isUncompleteCustomer",
              "type": "bool"
            }
          ],
          "internalType": "struct Formicarium.Order[]",
          "name": "",
          "type": "tuple[]"
        }
      ],
      "stateMutability": "view",
      "type": "function"
    },
    {
      "inputs": [],
      "name": "getAllPrinters",
      "outputs": [
        {
          "components": [
            {
              "internalType": "address",
              "name": "ID",
              "type": "address"
            },
            {
              "internalType": "string",
              "name": "printerDetails",
              "type": "string"
            }
          ],
          "internalType": "struct Formicarium.Printer[]",
          "name": "",
          "type": "tuple[]"
        }
      ],
      "stateMutability": "view",
      "type": "function"
    },
    {
      "inputs": [
        {
          "internalType": "address",
          "name": "_printerId",
          "type": "address"
        }
      ],
      "name": "getProviderOrders",
      "outputs": [
        {
          "internalType": "address[]",
          "name": "",
          "type": "address[]"
        }
      ],
      "stateMutability": "view",
      "type": "function"
    },
    {
      "inputs": [],
      "name": "getYourOrders",
      "outputs": [
        {
          "components": [
            {
              "internalType": "address",
              "name": "ID",
              "type": "address"
            },
            {
              "internalType": "address",
              "name": "printerId",
              "type": "address"
            },
            {
              "internalType": "address",
              "name": "customerId",
              "type": "address"
            },
            {
              "internalType": "uint256",
              "name": "minimalPrice",
              "type": "uint256"
            },
            {
              "internalType": "uint256",
              "name": "actualPrice",
              "type": "uint256"
            },
            {
              "internalType": "uint256",
              "name": "duration",
              "type": "uint256"
            },
            {
              "internalType": "uint256",
              "name": "startTime",
              "type": "uint256"
            },
            {
              "internalType": "uint256",
              "name": "expirationTime",
              "type": "uint256"
            },
            {
              "internalType": "bool",
              "name": "isSigned",
              "type": "bool"
            },
            {
              "internalType": "bool",
              "name": "isCompletedProvider",
              "type": "bool"
            },
            {
              "internalType": "bool",
              "name": "isUncompleteCustomer",
              "type": "bool"
            }
          ],
          "internalType": "struct Formicarium.Order[]",
          "name": "",
          "type": "tuple[]"
        }
      ],
      "stateMutability": "view",
      "type": "function"
    },
    {
      "inputs": [
        {
          "internalType": "address",
          "name": "",
          "type": "address"
        }
      ],
      "name": "orders",
      "outputs": [
        {
          "internalType": "address",
          "name": "ID",
          "type": "address"
        },
        {
          "internalType": "address",
          "name": "printerId",
          "type": "address"
        },
        {
          "internalType": "address",
          "name": "customerId",
          "type": "address"
        },
        {
          "internalType": "uint256",
          "name": "minimalPrice",
          "type": "uint256"
        },
        {
          "internalType": "uint256",
          "name": "actualPrice",
          "type": "uint256"
        },
        {
          "internalType": "uint256",
          "name": "duration",
          "type": "uint256"
        },
        {
          "internalType": "uint256",
          "name": "startTime",
          "type": "uint256"
        },
        {
          "internalType": "uint256",
          "name": "expirationTime",
          "type": "uint256"
        },
        {
          "internalType": "bool",
          "name": "isSigned",
          "type": "bool"
        },
        {
          "internalType": "bool",
          "name": "isCompletedProvider",
          "type": "bool"
        },
        {
          "internalType": "bool",
          "name": "isUncompleteCustomer",
          "type": "bool"
        }
      ],
      "stateMutability": "view",
      "type": "function"
    },
    {
      "inputs": [],
      "name": "owner",
      "outputs": [
        {
          "internalType": "address",
          "name": "",
          "type": "address"
        }
      ],
      "stateMutability": "view",
      "type": "function"
    },
    {
      "inputs": [],
      "name": "paymentToken",
      "outputs": [
        {
          "internalType": "contract IERC20",
          "name": "",
          "type": "address"
        }
      ],
      "stateMutability": "view",
      "type": "function"
    },
    {
      "inputs": [
        {
          "internalType": "uint256",
          "name": "",
          "type": "uint256"
        }
      ],
      "name": "printerAddresses",
      "outputs": [
        {
          "internalType": "address",
          "name": "",
          "type": "address"
        }
      ],
      "stateMutability": "view",
      "type": "function"
    },
    {
      "inputs": [
        {
          "internalType": "address",
          "name": "",
          "type": "address"
        }
      ],
      "name": "printers",
      "outputs": [
        {
          "internalType": "address",
          "name": "ID",
          "type": "address"
        },
        {
          "internalType": "string",
          "name": "printerDetails",
          "type": "string"
        }
      ],
      "stateMutability": "view",
      "type": "function"
    },
    {
      "inputs": [
        {
          "internalType": "address",
          "name": "",
          "type": "address"
        },
        {
          "internalType": "uint256",
          "name": "",
          "type": "uint256"
        }
      ],
      "name": "providerOrders",
      "outputs": [
        {
          "internalType": "address",
          "name": "",
          "type": "address"
        }
      ],
      "stateMutability": "view",
      "type": "function"
    },
    {
      "inputs": [
        {
          "internalType": "address",
          "name": "_orderId",
          "type": "address"
        }
      ],
      "name": "refundOrderRequest",
      "outputs": [],
      "stateMutability": "nonpayable",
      "type": "function"
    },
    {
      "inputs": [
        {
          "internalType": "string",
          "name": "_printerDetails",
          "type": "string"
        }
      ],
      "name": "registerPrinter",
      "outputs": [],
      "stateMutability": "nonpayable",
      "type": "function"
    },
    {
      "inputs": [
        {
          "internalType": "address",
          "name": "_orderId",
          "type": "address"
        }
      ],
      "name": "reportUncompleteOrder",
      "outputs": [],
      "stateMutability": "nonpayable",
      "type": "function"
    },
    {
      "inputs": [
        {
          "internalType": "address",
          "name": "_orderId",
          "type": "address"
        }
      ],
      "name": "signOrder",
      "outputs": [],
      "stateMutability": "nonpayable",
      "type": "function"
    },
    {
      "inputs": [
        {
          "internalType": "address",
          "name": "_orderId",
          "type": "address"
        }
      ],
      "name": "transferFundsProvider",
      "outputs": [],
      "stateMutability": "nonpayable",
      "type": "function"
    }
  ],
  "bytecode": "0x608060405234801561001057600080fd5b506040516160493803806160498339818101604052810190610032919061011c565b336000806101000a81548173ffffffffffffffffffffffffffffffffffffffff021916908373ffffffffffffffffffffffffffffffffffffffff16021790555080600160006101000a81548173ffffffffffffffffffffffffffffffffffffffff021916908373ffffffffffffffffffffffffffffffffffffffff16021790555050610149565b600080fd5b600073ffffffffffffffffffffffffffffffffffffffff82169050919050565b60006100e9826100be565b9050919050565b6100f9816100de565b811461010457600080fd5b50565b600081519050610116816100f0565b92915050565b600060208284031215610132576101316100b9565b5b600061014084828501610107565b91505092915050565b615ef1806101586000396000f3fe608060405234801561001057600080fd5b50600436106101155760003560e01c80635fbbd6bf116100a2578063ba0c24c311610071578063ba0c24c3146102ca578063c55a5271146102fb578063c8ef627d14610305578063f40e847114610321578063fac4d5141461035b57610115565b80635fbbd6bf146102585780636a798d80146102745780637ec2b92c146102905780638da5cb5b146102ac57610115565b80633013ce29116100e95780633013ce29146101b45780634dc6d194146101d25780634e585810146101f0578063518e62db146102205780635f199a831461023c57610115565b806286e68b1461011a57806306fab27a1461013857806311174179146101545780632615457b14610184575b600080fd5b610122610379565b60405161012f919061432f565b60405180910390f35b610152600480360381019061014d9190614391565b610a0d565b005b61016e600480360381019061016991906143ea565b610faa565b60405161017b9190614426565b60405180910390f35b61019e60048036038101906101999190614391565b610fe9565b6040516101ab91906144f0565b60405180910390f35b6101bc6110b6565b6040516101c99190614571565b60405180910390f35b6101da6110dc565b6040516101e7919061471b565b60405180910390f35b61020a6004803603810190610205919061473d565b6112ee565b6040516102179190614426565b60405180910390f35b61023a6004803603810190610235919061477d565b61133c565b005b61025660048036038101906102519190614391565b611c1e565b005b610272600480360381019061026d919061492d565b612069565b005b61028e60048036038101906102899190614391565b61226a565b005b6102aa60048036038101906102a59190614391565b6126f4565b005b6102b4612d60565b6040516102c19190614426565b60405180910390f35b6102e460048036038101906102df9190614391565b612d84565b6040516102f29291906149c0565b60405180910390f35b610303612e50565b005b61031f600480360381019061031a9190614391565b61303f565b005b61033b60048036038101906103369190614391565b6134f5565b6040516103529b9a99989796959493929190614a0e565b60405180910390f35b6103636135d6565b604051610370919061432f565b60405180910390f35b60606000600560003373ffffffffffffffffffffffffffffffffffffffff1673ffffffffffffffffffffffffffffffffffffffff1681526020019081526020016000209050600080600090505b82805490508110156105a157600460008483815481106103e9576103e8614ab9565b5b9060005260206000200160009054906101000a900473ffffffffffffffffffffffffffffffffffffffff1673ffffffffffffffffffffffffffffffffffffffff1673ffffffffffffffffffffffffffffffffffffffff16815260200190815260200160002060080160009054906101000a900460ff1680156104f557506004600084838154811061047d5761047c614ab9565b5b9060005260206000200160009054906101000a900473ffffffffffffffffffffffffffffffffffffffff1673ffffffffffffffffffffffffffffffffffffffff1673ffffffffffffffffffffffffffffffffffffffff16815260200190815260200160002060080160019054906101000a900460ff16155b8015610580575060006004600085848154811061051557610514614ab9565b5b9060005260206000200160009054906101000a900473ffffffffffffffffffffffffffffffffffffffff1673ffffffffffffffffffffffffffffffffffffffff1673ffffffffffffffffffffffffffffffffffffffff16815260200190815260200160002060060154145b1561059457818061059090614b17565b9250505b80806001019150506103c6565b5060008167ffffffffffffffff8111156105be576105bd614802565b5b6040519080825280602002602001820160405280156105f757816020015b6105e4614057565b8152602001906001900390816105dc5790505b5090506000805b8480549050811015610a02576004600086838154811061062157610620614ab9565b5b9060005260206000200160009054906101000a900473ffffffffffffffffffffffffffffffffffffffff1673ffffffffffffffffffffffffffffffffffffffff1673ffffffffffffffffffffffffffffffffffffffff16815260200190815260200160002060080160009054906101000a900460ff16801561072d5750600460008683815481106106b5576106b4614ab9565b5b9060005260206000200160009054906101000a900473ffffffffffffffffffffffffffffffffffffffff1673ffffffffffffffffffffffffffffffffffffffff1673ffffffffffffffffffffffffffffffffffffffff16815260200190815260200160002060080160019054906101000a900460ff16155b80156107b8575060006004600087848154811061074d5761074c614ab9565b5b9060005260206000200160009054906101000a900473ffffffffffffffffffffffffffffffffffffffff1673ffffffffffffffffffffffffffffffffffffffff1673ffffffffffffffffffffffffffffffffffffffff16815260200190815260200160002060060154145b156109f557600460008683815481106107d4576107d3614ab9565b5b9060005260206000200160009054906101000a900473ffffffffffffffffffffffffffffffffffffffff1673ffffffffffffffffffffffffffffffffffffffff1673ffffffffffffffffffffffffffffffffffffffff168152602001908152602001600020604051806101600160405290816000820160009054906101000a900473ffffffffffffffffffffffffffffffffffffffff1673ffffffffffffffffffffffffffffffffffffffff1673ffffffffffffffffffffffffffffffffffffffff1681526020016001820160009054906101000a900473ffffffffffffffffffffffffffffffffffffffff1673ffffffffffffffffffffffffffffffffffffffff1673ffffffffffffffffffffffffffffffffffffffff1681526020016002820160009054906101000a900473ffffffffffffffffffffffffffffffffffffffff1673ffffffffffffffffffffffffffffffffffffffff1673ffffffffffffffffffffffffffffffffffffffff16815260200160038201548152602001600482015481526020016005820154815260200160068201548152602001600782015481526020016008820160009054906101000a900460ff161515151581526020016008820160019054906101000a900460ff161515151581526020016008820160029054906101000a900460ff1615151515815250508383806109d690614b17565b9450815181106109e9576109e8614ab9565b5b60200260200101819052505b80806001019150506105fe565b508194505050505090565b3373ffffffffffffffffffffffffffffffffffffffff16600360003373ffffffffffffffffffffffffffffffffffffffff1673ffffffffffffffffffffffffffffffffffffffff16815260200190815260200160002060000160009054906101000a900473ffffffffffffffffffffffffffffffffffffffff1673ffffffffffffffffffffffffffffffffffffffff1614610add576040517f08c379a0000000000000000000000000000000000000000000000000000000008152600401610ad490614bd1565b60405180910390fd5b8073ffffffffffffffffffffffffffffffffffffffff16600460008373ffffffffffffffffffffffffffffffffffffffff1673ffffffffffffffffffffffffffffffffffffffff16815260200190815260200160002060000160009054906101000a900473ffffffffffffffffffffffffffffffffffffffff1673ffffffffffffffffffffffffffffffffffffffff1614610bad576040517f08c379a0000000000000000000000000000000000000000000000000000000008152600401610ba490614c3d565b60405180910390fd5b3373ffffffffffffffffffffffffffffffffffffffff16600460008373ffffffffffffffffffffffffffffffffffffffff1673ffffffffffffffffffffffffffffffffffffffff16815260200190815260200160002060010160009054906101000a900473ffffffffffffffffffffffffffffffffffffffff1673ffffffffffffffffffffffffffffffffffffffff1614610c7d576040517f08c379a0000000000000000000000000000000000000000000000000000000008152600401610c7490614ccf565b60405180910390fd5b600460008273ffffffffffffffffffffffffffffffffffffffff1673ffffffffffffffffffffffffffffffffffffffff16815260200190815260200160002060080160009054906101000a900460ff16610d0c576040517f08c379a0000000000000000000000000000000000000000000000000000000008152600401610d0390614d3b565b60405180910390fd5b6000600460008373ffffffffffffffffffffffffffffffffffffffff1673ffffffffffffffffffffffffffffffffffffffff1681526020019081526020016000206006015403610d91576040517f08c379a0000000000000000000000000000000000000000000000000000000008152600401610d8890614da7565b60405180910390fd5b600460008273ffffffffffffffffffffffffffffffffffffffff1673ffffffffffffffffffffffffffffffffffffffff16815260200190815260200160002060080160019054906101000a900460ff1615610e21576040517f08c379a0000000000000000000000000000000000000000000000000000000008152600401610e1890614e13565b60405180910390fd5b600460008273ffffffffffffffffffffffffffffffffffffffff1673ffffffffffffffffffffffffffffffffffffffff16815260200190815260200160002060050154600460008373ffffffffffffffffffffffffffffffffffffffff1673ffffffffffffffffffffffffffffffffffffffff16815260200190815260200160002060060154610eb19190614e33565b4210610ef2576040517f08c379a0000000000000000000000000000000000000000000000000000000008152600401610ee990614eb3565b60405180910390fd5b6001600460008373ffffffffffffffffffffffffffffffffffffffff1673ffffffffffffffffffffffffffffffffffffffff16815260200190815260200160002060080160016101000a81548160ff0219169083151502179055503373ffffffffffffffffffffffffffffffffffffffff168173ffffffffffffffffffffffffffffffffffffffff167fe68df90267f7c6aa6a1568f99d08bc248fc2e4933693bde34754ecdacc3068ab60405160405180910390a350565b60028181548110610fba57600080fd5b906000526020600020016000915054906101000a900473ffffffffffffffffffffffffffffffffffffffff1681565b6060600560008373ffffffffffffffffffffffffffffffffffffffff1673ffffffffffffffffffffffffffffffffffffffff1681526020019081526020016000208054806020026020016040519081016040528092919081815260200182805480156110aa57602002820191906000526020600020905b8160009054906101000a900473ffffffffffffffffffffffffffffffffffffffff1673ffffffffffffffffffffffffffffffffffffffff1681526020019060010190808311611060575b50505050509050919050565b600160009054906101000a900473ffffffffffffffffffffffffffffffffffffffff1681565b6060600060028054905067ffffffffffffffff8111156110ff576110fe614802565b5b60405190808252806020026020018201604052801561113857816020015b6111256140f9565b81526020019060019003908161111d5790505b50905060005b6002805490508110156112e657600360006002838154811061116357611162614ab9565b5b9060005260206000200160009054906101000a900473ffffffffffffffffffffffffffffffffffffffff1673ffffffffffffffffffffffffffffffffffffffff1673ffffffffffffffffffffffffffffffffffffffff1681526020019081526020016000206040518060400160405290816000820160009054906101000a900473ffffffffffffffffffffffffffffffffffffffff1673ffffffffffffffffffffffffffffffffffffffff1673ffffffffffffffffffffffffffffffffffffffff16815260200160018201805461123990614f02565b80601f016020809104026020016040519081016040528092919081815260200182805461126590614f02565b80156112b25780601f10611287576101008083540402835291602001916112b2565b820191906000526020600020905b81548152906001019060200180831161129557829003601f168201915b5050505050815250508282815181106112ce576112cd614ab9565b5b6020026020010181905250808060010191505061113e565b508091505090565b6005602052816000526040600020818154811061130a57600080fd5b906000526020600020016000915091509054906101000a900473ffffffffffffffffffffffffffffffffffffffff1681565b600073ffffffffffffffffffffffffffffffffffffffff16600460008773ffffffffffffffffffffffffffffffffffffffff1673ffffffffffffffffffffffffffffffffffffffff16815260200190815260200160002060000160009054906101000a900473ffffffffffffffffffffffffffffffffffffffff1673ffffffffffffffffffffffffffffffffffffffff161461140d576040517f08c379a000000000000000000000000000000000000000000000000000000000815260040161140490614f7f565b60405180910390fd5b600073ffffffffffffffffffffffffffffffffffffffff168573ffffffffffffffffffffffffffffffffffffffff160361147c576040517f08c379a000000000000000000000000000000000000000000000000000000000815260040161147390614feb565b60405180910390fd5b8373ffffffffffffffffffffffffffffffffffffffff16600360008673ffffffffffffffffffffffffffffffffffffffff1673ffffffffffffffffffffffffffffffffffffffff16815260200190815260200160002060000160009054906101000a900473ffffffffffffffffffffffffffffffffffffffff1673ffffffffffffffffffffffffffffffffffffffff161461154c576040517f08c379a000000000000000000000000000000000000000000000000000000000815260040161154390615057565b60405180910390fd5b6000831161158f576040517f08c379a0000000000000000000000000000000000000000000000000000000008152600401611586906150c3565b60405180910390fd5b828210156115d2576040517f08c379a00000000000000000000000000000000000000000000000000000000081526004016115c990615155565b60405180910390fd5b60008111611615576040517f08c379a000000000000000000000000000000000000000000000000000000000815260040161160c906151c1565b60405180910390fd5b81600160009054906101000a900473ffffffffffffffffffffffffffffffffffffffff1673ffffffffffffffffffffffffffffffffffffffff166370a08231336040518263ffffffff1660e01b81526004016116719190614426565b602060405180830381865afa15801561168e573d6000803e3d6000fd5b505050506040513d601f19601f820116820180604052508101906116b291906151f6565b10156116f3576040517f08c379a00000000000000000000000000000000000000000000000000000000081526004016116ea9061526f565b60405180910390fd5b81600160009054906101000a900473ffffffffffffffffffffffffffffffffffffffff1673ffffffffffffffffffffffffffffffffffffffff1663dd62ed3e33306040518363ffffffff1660e01b815260040161175192919061528f565b602060405180830381865afa15801561176e573d6000803e3d6000fd5b505050506040513d601f19601f8201168201806040525081019061179291906151f6565b10156117d3576040517f08c379a00000000000000000000000000000000000000000000000000000000081526004016117ca9061532a565b60405180910390fd5b600160009054906101000a900473ffffffffffffffffffffffffffffffffffffffff1673ffffffffffffffffffffffffffffffffffffffff166323b872dd3330856040518463ffffffff1660e01b81526004016118329392919061534a565b6020604051808303816000875af1158015611851573d6000803e3d6000fd5b505050506040513d601f19601f8201168201806040525081019061187591906153ad565b6118b4576040517f08c379a00000000000000000000000000000000000000000000000000000000081526004016118ab90615426565b60405180910390fd5b6118bd84613bae565b6040518061016001604052808673ffffffffffffffffffffffffffffffffffffffff1681526020018573ffffffffffffffffffffffffffffffffffffffff1681526020013373ffffffffffffffffffffffffffffffffffffffff1681526020018481526020018381526020018281526020016000815260200161012c426119449190614e33565b815260200160001515815260200160001515815260200160001515815250600460008773ffffffffffffffffffffffffffffffffffffffff1673ffffffffffffffffffffffffffffffffffffffff16815260200190815260200160002060008201518160000160006101000a81548173ffffffffffffffffffffffffffffffffffffffff021916908373ffffffffffffffffffffffffffffffffffffffff16021790555060208201518160010160006101000a81548173ffffffffffffffffffffffffffffffffffffffff021916908373ffffffffffffffffffffffffffffffffffffffff16021790555060408201518160020160006101000a81548173ffffffffffffffffffffffffffffffffffffffff021916908373ffffffffffffffffffffffffffffffffffffffff160217905550606082015181600301556080820151816004015560a0820151816005015560c0820151816006015560e082015181600701556101008201518160080160006101000a81548160ff0219169083151502179055506101208201518160080160016101000a81548160ff0219169083151502179055506101408201518160080160026101000a81548160ff021916908315150217905550905050600560008573ffffffffffffffffffffffffffffffffffffffff1673ffffffffffffffffffffffffffffffffffffffff168152602001908152602001600020859080600181540180825580915050600190039060005260206000200160009091909190916101000a81548173ffffffffffffffffffffffffffffffffffffffff021916908373ffffffffffffffffffffffffffffffffffffffff1602179055508373ffffffffffffffffffffffffffffffffffffffff168573ffffffffffffffffffffffffffffffffffffffff167fe43c7a25359805ec97a99d788eab6bc01d5ead3a30a6d0d4998533e9cc53e230858585604051611c0f93929190615446565b60405180910390a35050505050565b3373ffffffffffffffffffffffffffffffffffffffff16600360003373ffffffffffffffffffffffffffffffffffffffff1673ffffffffffffffffffffffffffffffffffffffff16815260200190815260200160002060000160009054906101000a900473ffffffffffffffffffffffffffffffffffffffff1673ffffffffffffffffffffffffffffffffffffffff1614611cee576040517f08c379a0000000000000000000000000000000000000000000000000000000008152600401611ce590614bd1565b60405180910390fd5b8073ffffffffffffffffffffffffffffffffffffffff16600460008373ffffffffffffffffffffffffffffffffffffffff1673ffffffffffffffffffffffffffffffffffffffff16815260200190815260200160002060000160009054906101000a900473ffffffffffffffffffffffffffffffffffffffff1673ffffffffffffffffffffffffffffffffffffffff1614611dbe576040517f08c379a0000000000000000000000000000000000000000000000000000000008152600401611db590614c3d565b60405180910390fd5b3373ffffffffffffffffffffffffffffffffffffffff16600460008373ffffffffffffffffffffffffffffffffffffffff1673ffffffffffffffffffffffffffffffffffffffff16815260200190815260200160002060010160009054906101000a900473ffffffffffffffffffffffffffffffffffffffff1673ffffffffffffffffffffffffffffffffffffffff1614611e8e576040517f08c379a0000000000000000000000000000000000000000000000000000000008152600401611e85906154ef565b60405180910390fd5b600460008273ffffffffffffffffffffffffffffffffffffffff1673ffffffffffffffffffffffffffffffffffffffff168152602001908152602001600020600701544210611f12576040517f08c379a0000000000000000000000000000000000000000000000000000000008152600401611f099061555b565b60405180910390fd5b60001515600460008373ffffffffffffffffffffffffffffffffffffffff1673ffffffffffffffffffffffffffffffffffffffff16815260200190815260200160002060080160009054906101000a900460ff16151514611fa8576040517f08c379a0000000000000000000000000000000000000000000000000000000008152600401611f9f906155c7565b60405180910390fd5b611fb133613bae565b6001600460008373ffffffffffffffffffffffffffffffffffffffff1673ffffffffffffffffffffffffffffffffffffffff16815260200190815260200160002060080160006101000a81548160ff0219169083151502179055503373ffffffffffffffffffffffffffffffffffffffff168173ffffffffffffffffffffffffffffffffffffffff167fc7d8e27d120cd1775a95558c92469475da8ab4800ecb1a325ec407b876ad768460405160405180910390a350565b600073ffffffffffffffffffffffffffffffffffffffff16600360003373ffffffffffffffffffffffffffffffffffffffff1673ffffffffffffffffffffffffffffffffffffffff16815260200190815260200160002060000160009054906101000a900473ffffffffffffffffffffffffffffffffffffffff1673ffffffffffffffffffffffffffffffffffffffff161461213a576040517f08c379a000000000000000000000000000000000000000000000000000000000815260040161213190615633565b60405180910390fd5b60405180604001604052803373ffffffffffffffffffffffffffffffffffffffff16815260200182815250600360003373ffffffffffffffffffffffffffffffffffffffff1673ffffffffffffffffffffffffffffffffffffffff16815260200190815260200160002060008201518160000160006101000a81548173ffffffffffffffffffffffffffffffffffffffff021916908373ffffffffffffffffffffffffffffffffffffffff160217905550602082015181600101908161220091906157f5565b509050506002339080600181540180825580915050600190039060005260206000200160009091909190916101000a81548173ffffffffffffffffffffffffffffffffffffffff021916908373ffffffffffffffffffffffffffffffffffffffff16021790555050565b8073ffffffffffffffffffffffffffffffffffffffff16600460008373ffffffffffffffffffffffffffffffffffffffff1673ffffffffffffffffffffffffffffffffffffffff16815260200190815260200160002060000160009054906101000a900473ffffffffffffffffffffffffffffffffffffffff1673ffffffffffffffffffffffffffffffffffffffff161461233a576040517f08c379a000000000000000000000000000000000000000000000000000000000815260040161233190614c3d565b60405180910390fd5b3373ffffffffffffffffffffffffffffffffffffffff16600460008373ffffffffffffffffffffffffffffffffffffffff1673ffffffffffffffffffffffffffffffffffffffff16815260200190815260200160002060020160009054906101000a900473ffffffffffffffffffffffffffffffffffffffff1673ffffffffffffffffffffffffffffffffffffffff161461240a576040517f08c379a000000000000000000000000000000000000000000000000000000000815260040161240190615913565b60405180910390fd5b600460008273ffffffffffffffffffffffffffffffffffffffff1673ffffffffffffffffffffffffffffffffffffffff16815260200190815260200160002060080160009054906101000a900460ff16612499576040517f08c379a000000000000000000000000000000000000000000000000000000000815260040161249090614d3b565b60405180910390fd5b600460008273ffffffffffffffffffffffffffffffffffffffff1673ffffffffffffffffffffffffffffffffffffffff16815260200190815260200160002060080160019054906101000a900460ff16612528576040517f08c379a000000000000000000000000000000000000000000000000000000000815260040161251f9061597f565b60405180910390fd5b600460008273ffffffffffffffffffffffffffffffffffffffff1673ffffffffffffffffffffffffffffffffffffffff16815260200190815260200160002060080160029054906101000a900460ff16156125b8576040517f08c379a00000000000000000000000000000000000000000000000000000000081526004016125af90615a11565b60405180910390fd5b61012c600460008373ffffffffffffffffffffffffffffffffffffffff1673ffffffffffffffffffffffffffffffffffffffff16815260200190815260200160002060050154600460008473ffffffffffffffffffffffffffffffffffffffff1673ffffffffffffffffffffffffffffffffffffffff1681526020019081526020016000206006015461264b9190614e33565b6126559190614e33565b4210612696576040517f08c379a000000000000000000000000000000000000000000000000000000000815260040161268d90615a7d565b60405180910390fd5b6000600460008373ffffffffffffffffffffffffffffffffffffffff1673ffffffffffffffffffffffffffffffffffffffff16815260200190815260200160002060080160026101000a81548160ff02191690831515021790555050565b8073ffffffffffffffffffffffffffffffffffffffff16600460008373ffffffffffffffffffffffffffffffffffffffff1673ffffffffffffffffffffffffffffffffffffffff16815260200190815260200160002060000160009054906101000a900473ffffffffffffffffffffffffffffffffffffffff1673ffffffffffffffffffffffffffffffffffffffff16146127c4576040517f08c379a00000000000000000000000000000000000000000000000000000000081526004016127bb90614c3d565b60405180910390fd5b3373ffffffffffffffffffffffffffffffffffffffff16600460008373ffffffffffffffffffffffffffffffffffffffff1673ffffffffffffffffffffffffffffffffffffffff16815260200190815260200160002060010160009054906101000a900473ffffffffffffffffffffffffffffffffffffffff1673ffffffffffffffffffffffffffffffffffffffff1614612894576040517f08c379a000000000000000000000000000000000000000000000000000000000815260040161288b90615b0f565b60405180910390fd5b600460008273ffffffffffffffffffffffffffffffffffffffff1673ffffffffffffffffffffffffffffffffffffffff16815260200190815260200160002060080160009054906101000a900460ff16612923576040517f08c379a000000000000000000000000000000000000000000000000000000000815260040161291a90614d3b565b60405180910390fd5b600460008273ffffffffffffffffffffffffffffffffffffffff1673ffffffffffffffffffffffffffffffffffffffff16815260200190815260200160002060080160019054906101000a900460ff166129b2576040517f08c379a00000000000000000000000000000000000000000000000000000000081526004016129a99061597f565b60405180910390fd5b600460008273ffffffffffffffffffffffffffffffffffffffff1673ffffffffffffffffffffffffffffffffffffffff16815260200190815260200160002060080160029054906101000a900460ff1615612a42576040517f08c379a0000000000000000000000000000000000000000000000000000000008152600401612a3990615ba1565b60405180910390fd5b61012c600460008373ffffffffffffffffffffffffffffffffffffffff1673ffffffffffffffffffffffffffffffffffffffff16815260200190815260200160002060050154600460008473ffffffffffffffffffffffffffffffffffffffff1673ffffffffffffffffffffffffffffffffffffffff16815260200190815260200160002060060154612ad59190614e33565b612adf9190614e33565b421015612b21576040517f08c379a0000000000000000000000000000000000000000000000000000000008152600401612b1890615c0d565b60405180910390fd5b600160009054906101000a900473ffffffffffffffffffffffffffffffffffffffff1673ffffffffffffffffffffffffffffffffffffffff1663a9059cbb33600460008573ffffffffffffffffffffffffffffffffffffffff1673ffffffffffffffffffffffffffffffffffffffff168152602001908152602001600020600401546040518363ffffffff1660e01b8152600401612bc0929190615c2d565b6020604051808303816000875af1158015612bdf573d6000803e3d6000fd5b505050506040513d601f19601f82011682018060405250810190612c0391906153ad565b612c42576040517f08c379a0000000000000000000000000000000000000000000000000000000008152600401612c3990615426565b60405180910390fd5b600460008273ffffffffffffffffffffffffffffffffffffffff1673ffffffffffffffffffffffffffffffffffffffff168152602001908152602001600020600080820160006101000a81549073ffffffffffffffffffffffffffffffffffffffff02191690556001820160006101000a81549073ffffffffffffffffffffffffffffffffffffffff02191690556002820160006101000a81549073ffffffffffffffffffffffffffffffffffffffff0219169055600382016000905560048201600090556005820160009055600682016000905560078201600090556008820160006101000a81549060ff02191690556008820160016101000a81549060ff02191690556008820160026101000a81549060ff0219169055505050565b60008054906101000a900473ffffffffffffffffffffffffffffffffffffffff1681565b60036020528060005260406000206000915090508060000160009054906101000a900473ffffffffffffffffffffffffffffffffffffffff1690806001018054612dcd90614f02565b80601f0160208091040260200160405190810160405280929190818152602001828054612df990614f02565b8015612e465780601f10612e1b57610100808354040283529160200191612e46565b820191906000526020600020905b815481529060010190602001808311612e2957829003601f168201915b5050505050905082565b3373ffffffffffffffffffffffffffffffffffffffff16600360003373ffffffffffffffffffffffffffffffffffffffff1673ffffffffffffffffffffffffffffffffffffffff16815260200190815260200160002060000160009054906101000a900473ffffffffffffffffffffffffffffffffffffffff1673ffffffffffffffffffffffffffffffffffffffff1614612f20576040517f08c379a0000000000000000000000000000000000000000000000000000000008152600401612f1790614bd1565b60405180910390fd5b6000612f2a613edf565b9050600073ffffffffffffffffffffffffffffffffffffffff168173ffffffffffffffffffffffffffffffffffffffff1603612f9b576040517f08c379a0000000000000000000000000000000000000000000000000000000008152600401612f9290615ca2565b60405180910390fd5b42600460008373ffffffffffffffffffffffffffffffffffffffff1673ffffffffffffffffffffffffffffffffffffffff168152602001908152602001600020600601819055503373ffffffffffffffffffffffffffffffffffffffff168173ffffffffffffffffffffffffffffffffffffffff167ff5a1e36cd5f2e985284ebb45638edb7a4de37bc2001adfae6bdfe4924ad5799560405160405180910390a350565b8073ffffffffffffffffffffffffffffffffffffffff16600460008373ffffffffffffffffffffffffffffffffffffffff1673ffffffffffffffffffffffffffffffffffffffff16815260200190815260200160002060000160009054906101000a900473ffffffffffffffffffffffffffffffffffffffff1673ffffffffffffffffffffffffffffffffffffffff161461310f576040517f08c379a000000000000000000000000000000000000000000000000000000000815260040161310690614c3d565b60405180910390fd5b3373ffffffffffffffffffffffffffffffffffffffff16600460008373ffffffffffffffffffffffffffffffffffffffff1673ffffffffffffffffffffffffffffffffffffffff16815260200190815260200160002060020160009054906101000a900473ffffffffffffffffffffffffffffffffffffffff1673ffffffffffffffffffffffffffffffffffffffff16146131df576040517f08c379a00000000000000000000000000000000000000000000000000000000081526004016131d690615d34565b60405180910390fd5b600460008273ffffffffffffffffffffffffffffffffffffffff1673ffffffffffffffffffffffffffffffffffffffff16815260200190815260200160002060080160009054906101000a900460ff161561326f576040517f08c379a000000000000000000000000000000000000000000000000000000000815260040161326690615da0565b60405180910390fd5b600460008273ffffffffffffffffffffffffffffffffffffffff1673ffffffffffffffffffffffffffffffffffffffff168152602001908152602001600020600701544210156132f4576040517f08c379a00000000000000000000000000000000000000000000000000000000081526004016132eb90615e0c565b60405180910390fd5b600160009054906101000a900473ffffffffffffffffffffffffffffffffffffffff1673ffffffffffffffffffffffffffffffffffffffff1663a9059cbb33600460008573ffffffffffffffffffffffffffffffffffffffff1673ffffffffffffffffffffffffffffffffffffffff168152602001908152602001600020600401546040518363ffffffff1660e01b8152600401613393929190615c2d565b6020604051808303816000875af11580156133b2573d6000803e3d6000fd5b505050506040513d601f19601f820116820180604052508101906133d691906153ad565b50600460008273ffffffffffffffffffffffffffffffffffffffff1673ffffffffffffffffffffffffffffffffffffffff168152602001908152602001600020600080820160006101000a81549073ffffffffffffffffffffffffffffffffffffffff02191690556001820160006101000a81549073ffffffffffffffffffffffffffffffffffffffff02191690556002820160006101000a81549073ffffffffffffffffffffffffffffffffffffffff0219169055600382016000905560048201600090556005820160009055600682016000905560078201600090556008820160006101000a81549060ff02191690556008820160016101000a81549060ff02191690556008820160026101000a81549060ff0219169055505050565b60046020528060005260406000206000915090508060000160009054906101000a900473ffffffffffffffffffffffffffffffffffffffff16908060010160009054906101000a900473ffffffffffffffffffffffffffffffffffffffff16908060020160009054906101000a900473ffffffffffffffffffffffffffffffffffffffff16908060030154908060040154908060050154908060060154908060070154908060080160009054906101000a900460ff16908060080160019054906101000a900460ff16908060080160029054906101000a900460ff1690508b565b60606000805b60028054905081101561377c576000600282815481106135ff576135fe614ab9565b5b9060005260206000200160009054906101000a900473ffffffffffffffffffffffffffffffffffffffff1690506000600560008373ffffffffffffffffffffffffffffffffffffffff1673ffffffffffffffffffffffffffffffffffffffff168152602001908152602001600020905060005b818054905081101561376c573373ffffffffffffffffffffffffffffffffffffffff16600460008484815481106136ac576136ab614ab9565b5b9060005260206000200160009054906101000a900473ffffffffffffffffffffffffffffffffffffffff1673ffffffffffffffffffffffffffffffffffffffff1673ffffffffffffffffffffffffffffffffffffffff16815260200190815260200160002060020160009054906101000a900473ffffffffffffffffffffffffffffffffffffffff1673ffffffffffffffffffffffffffffffffffffffff160361375f57848061375b90614b17565b9550505b8080600101915050613672565b50505080806001019150506135dc565b5060008167ffffffffffffffff81111561379957613798614802565b5b6040519080825280602002602001820160405280156137d257816020015b6137bf614057565b8152602001906001900390816137b75790505b5090506000805b600280549050811015613ba4576000600282815481106137fc576137fb614ab9565b5b9060005260206000200160009054906101000a900473ffffffffffffffffffffffffffffffffffffffff1690506000600560008373ffffffffffffffffffffffffffffffffffffffff1673ffffffffffffffffffffffffffffffffffffffff168152602001908152602001600020905060005b8180549050811015613b94573373ffffffffffffffffffffffffffffffffffffffff16600460008484815481106138a9576138a8614ab9565b5b9060005260206000200160009054906101000a900473ffffffffffffffffffffffffffffffffffffffff1673ffffffffffffffffffffffffffffffffffffffff1673ffffffffffffffffffffffffffffffffffffffff16815260200190815260200160002060020160009054906101000a900473ffffffffffffffffffffffffffffffffffffffff1673ffffffffffffffffffffffffffffffffffffffff1603613b87576004600083838154811061396457613963614ab9565b5b9060005260206000200160009054906101000a900473ffffffffffffffffffffffffffffffffffffffff1673ffffffffffffffffffffffffffffffffffffffff1673ffffffffffffffffffffffffffffffffffffffff168152602001908152602001600020604051806101600160405290816000820160009054906101000a900473ffffffffffffffffffffffffffffffffffffffff1673ffffffffffffffffffffffffffffffffffffffff1673ffffffffffffffffffffffffffffffffffffffff1681526020016001820160009054906101000a900473ffffffffffffffffffffffffffffffffffffffff1673ffffffffffffffffffffffffffffffffffffffff1673ffffffffffffffffffffffffffffffffffffffff1681526020016002820160009054906101000a900473ffffffffffffffffffffffffffffffffffffffff1673ffffffffffffffffffffffffffffffffffffffff1673ffffffffffffffffffffffffffffffffffffffff16815260200160038201548152602001600482015481526020016005820154815260200160068201548152602001600782015481526020016008820160009054906101000a900460ff161515151581526020016008820160019054906101000a900460ff161515151581526020016008820160029054906101000a900460ff161515151581525050868681518110613b6d57613b6c614ab9565b5b60200260200101819052508480613b8390614b17565b9550505b808060010191505061386f565b50505080806001019150506137d9565b5081935050505090565b6000600560008373ffffffffffffffffffffffffffffffffffffffff1673ffffffffffffffffffffffffffffffffffffffff16815260200190815260200160002090506000818054905090506000805b82811015613e80576000848281548110613c1b57613c1a614ab9565b5b9060005260206000200160009054906101000a900473ffffffffffffffffffffffffffffffffffffffff169050600460008273ffffffffffffffffffffffffffffffffffffffff1673ffffffffffffffffffffffffffffffffffffffff16815260200190815260200160002060080160019054906101000a900460ff1680613ce4575042600460008373ffffffffffffffffffffffffffffffffffffffff1673ffffffffffffffffffffffffffffffffffffffff16815260200190815260200160002060070154105b15613e0957600460008273ffffffffffffffffffffffffffffffffffffffff1673ffffffffffffffffffffffffffffffffffffffff168152602001908152602001600020600080820160006101000a81549073ffffffffffffffffffffffffffffffffffffffff02191690556001820160006101000a81549073ffffffffffffffffffffffffffffffffffffffff02191690556002820160006101000a81549073ffffffffffffffffffffffffffffffffffffffff0219169055600382016000905560048201600090556005820160009055600682016000905560078201600090556008820160006101000a81549060ff02191690556008820160016101000a81549060ff02191690556008820160026101000a81549060ff02191690555050613e72565b80858480613e1690614b17565b955081548110613e2957613e28614ab9565b5b9060005260206000200160006101000a81548173ffffffffffffffffffffffffffffffffffffffff021916908373ffffffffffffffffffffffffffffffffffffffff1602179055505b508080600101915050613bfe565b505b8083805490501115613ed95782805480613e9f57613e9e615e2c565b5b6001900381819060005260206000200160006101000a81549073ffffffffffffffffffffffffffffffffffffffff02191690559055613e82565b50505050565b600080613eea610379565b90506000815103613eff576000915050614054565b6000815167ffffffffffffffff811115613f1c57613f1b614802565b5b604051908082528060200260200182016040528015613f4a5781602001602082028036833780820191505090505b50905060005b8251811015613fcd57828181518110613f6c57613f6b614ab9565b5b602002602001015160600151838281518110613f8b57613f8a614ab9565b5b602002602001015160800151613fa19190615e8a565b828281518110613fb457613fb3614ab9565b5b6020026020010181815250508080600101915050613f50565b5060008060005b835181101561402d5782848281518110613ff157613ff0614ab9565b5b602002602001015111156140205783818151811061401257614011614ab9565b5b602002602001015192508091505b8080600101915050613fd4565b5083818151811061404157614040614ab9565b5b6020026020010151600001519450505050505b90565b604051806101600160405280600073ffffffffffffffffffffffffffffffffffffffff168152602001600073ffffffffffffffffffffffffffffffffffffffff168152602001600073ffffffffffffffffffffffffffffffffffffffff16815260200160008152602001600081526020016000815260200160008152602001600081526020016000151581526020016000151581526020016000151581525090565b6040518060400160405280600073ffffffffffffffffffffffffffffffffffffffff168152602001606081525090565b600081519050919050565b600082825260208201905092915050565b6000819050602082019050919050565b600073ffffffffffffffffffffffffffffffffffffffff82169050919050565b600061418082614155565b9050919050565b61419081614175565b82525050565b6000819050919050565b6141a981614196565b82525050565b60008115159050919050565b6141c4816141af565b82525050565b610160820160008201516141e16000850182614187565b5060208201516141f46020850182614187565b5060408201516142076040850182614187565b50606082015161421a60608501826141a0565b50608082015161422d60808501826141a0565b5060a082015161424060a08501826141a0565b5060c082015161425360c08501826141a0565b5060e082015161426660e08501826141a0565b5061010082015161427b6101008501826141bb565b506101208201516142906101208501826141bb565b506101408201516142a56101408501826141bb565b50505050565b60006142b783836141ca565b6101608301905092915050565b6000602082019050919050565b60006142dc82614129565b6142e68185614134565b93506142f183614145565b8060005b8381101561432257815161430988826142ab565b9750614314836142c4565b9250506001810190506142f5565b5085935050505092915050565b6000602082019050818103600083015261434981846142d1565b905092915050565b6000604051905090565b600080fd5b600080fd5b61436e81614175565b811461437957600080fd5b50565b60008135905061438b81614365565b92915050565b6000602082840312156143a7576143a661435b565b5b60006143b58482850161437c565b91505092915050565b6143c781614196565b81146143d257600080fd5b50565b6000813590506143e4816143be565b92915050565b600060208284031215614400576143ff61435b565b5b600061440e848285016143d5565b91505092915050565b61442081614175565b82525050565b600060208201905061443b6000830184614417565b92915050565b600081519050919050565b600082825260208201905092915050565b6000819050602082019050919050565b60006144798383614187565b60208301905092915050565b6000602082019050919050565b600061449d82614441565b6144a7818561444c565b93506144b28361445d565b8060005b838110156144e35781516144ca888261446d565b97506144d583614485565b9250506001810190506144b6565b5085935050505092915050565b6000602082019050818103600083015261450a8184614492565b905092915050565b6000819050919050565b600061453761453261452d84614155565b614512565b614155565b9050919050565b60006145498261451c565b9050919050565b600061455b8261453e565b9050919050565b61456b81614550565b82525050565b60006020820190506145866000830184614562565b92915050565b600081519050919050565b600082825260208201905092915050565b6000819050602082019050919050565b600081519050919050565b600082825260208201905092915050565b60005b838110156145f25780820151818401526020810190506145d7565b60008484015250505050565b6000601f19601f8301169050919050565b600061461a826145b8565b61462481856145c3565b93506146348185602086016145d4565b61463d816145fe565b840191505092915050565b60006040830160008301516146606000860182614187565b5060208301518482036020860152614678828261460f565b9150508091505092915050565b60006146918383614648565b905092915050565b6000602082019050919050565b60006146b18261458c565b6146bb8185614597565b9350836020820285016146cd856145a8565b8060005b8581101561470957848403895281516146ea8582614685565b94506146f583614699565b925060208a019950506001810190506146d1565b50829750879550505050505092915050565b6000602082019050818103600083015261473581846146a6565b905092915050565b600080604083850312156147545761475361435b565b5b60006147628582860161437c565b9250506020614773858286016143d5565b9150509250929050565b600080600080600060a086880312156147995761479861435b565b5b60006147a78882890161437c565b95505060206147b88882890161437c565b94505060406147c9888289016143d5565b93505060606147da888289016143d5565b92505060806147eb888289016143d5565b9150509295509295909350565b600080fd5b600080fd5b7f4e487b7100000000000000000000000000000000000000000000000000000000600052604160045260246000fd5b61483a826145fe565b810181811067ffffffffffffffff8211171561485957614858614802565b5b80604052505050565b600061486c614351565b90506148788282614831565b919050565b600067ffffffffffffffff82111561489857614897614802565b5b6148a1826145fe565b9050602081019050919050565b82818337600083830152505050565b60006148d06148cb8461487d565b614862565b9050828152602081018484840111156148ec576148eb6147fd565b5b6148f78482856148ae565b509392505050565b600082601f830112614914576149136147f8565b5b81356149248482602086016148bd565b91505092915050565b6000602082840312156149435761494261435b565b5b600082013567ffffffffffffffff81111561496157614960614360565b5b61496d848285016148ff565b91505092915050565b600082825260208201905092915050565b6000614992826145b8565b61499c8185614976565b93506149ac8185602086016145d4565b6149b5816145fe565b840191505092915050565b60006040820190506149d56000830185614417565b81810360208301526149e78184614987565b90509392505050565b6149f981614196565b82525050565b614a08816141af565b82525050565b600061016082019050614a24600083018e614417565b614a31602083018d614417565b614a3e604083018c614417565b614a4b606083018b6149f0565b614a58608083018a6149f0565b614a6560a08301896149f0565b614a7260c08301886149f0565b614a7f60e08301876149f0565b614a8d6101008301866149ff565b614a9b6101208301856149ff565b614aa96101408301846149ff565b9c9b505050505050505050505050565b7f4e487b7100000000000000000000000000000000000000000000000000000000600052603260045260246000fd5b7f4e487b7100000000000000000000000000000000000000000000000000000000600052601160045260246000fd5b6000614b2282614196565b91507fffffffffffffffffffffffffffffffffffffffffffffffffffffffffffffffff8203614b5457614b53614ae8565b5b600182019050919050565b7f4f6e6c79207072696e7465722063616e2063616c6c20746869732066756e637460008201527f696f6e0000000000000000000000000000000000000000000000000000000000602082015250565b6000614bbb602383614976565b9150614bc682614b5f565b604082019050919050565b60006020820190508181036000830152614bea81614bae565b9050919050565b7f4f7264657220646f6573206e6f74206578697374000000000000000000000000600082015250565b6000614c27601483614976565b9150614c3282614bf1565b602082019050919050565b60006020820190508181036000830152614c5681614c1a565b9050919050565b7f4f6e6c7920736572766963652070726f76696465722063616e20636f6d706c6560008201527f7465206f72646572000000000000000000000000000000000000000000000000602082015250565b6000614cb9602883614976565b9150614cc482614c5d565b604082019050919050565b60006020820190508181036000830152614ce881614cac565b9050919050565b7f4f72646572206e6f74207369676e656400000000000000000000000000000000600082015250565b6000614d25601083614976565b9150614d3082614cef565b602082019050919050565b60006020820190508181036000830152614d5481614d18565b9050919050565b7f4f72646572206e6f742073746172746564000000000000000000000000000000600082015250565b6000614d91601183614976565b9150614d9c82614d5b565b602082019050919050565b60006020820190508181036000830152614dc081614d84565b9050919050565b7f4f7264657220616c726561647920636f6d706c65746564000000000000000000600082015250565b6000614dfd601783614976565b9150614e0882614dc7565b602082019050919050565b60006020820190508181036000830152614e2c81614df0565b9050919050565b6000614e3e82614196565b9150614e4983614196565b9250828201905080821115614e6157614e60614ae8565b5b92915050565b7f4f72646572206475726174696f6e206578706972656400000000000000000000600082015250565b6000614e9d601683614976565b9150614ea882614e67565b602082019050919050565b60006020820190508181036000830152614ecc81614e90565b9050919050565b7f4e487b7100000000000000000000000000000000000000000000000000000000600052602260045260246000fd5b60006002820490506001821680614f1a57607f821691505b602082108103614f2d57614f2c614ed3565b5b50919050565b7f4f7264657220616c726561647920657869737473000000000000000000000000600082015250565b6000614f69601483614976565b9150614f7482614f33565b602082019050919050565b60006020820190508181036000830152614f9881614f5c565b9050919050565b7f496e76616c6964206f7264657220494400000000000000000000000000000000600082015250565b6000614fd5601083614976565b9150614fe082614f9f565b602082019050919050565b6000602082019050818103600083015261500481614fc8565b9050919050565b7f5072696e74657220646f6573206e6f7420657869737400000000000000000000600082015250565b6000615041601683614976565b915061504c8261500b565b602082019050919050565b6000602082019050818103600083015261507081615034565b9050919050565b7f5072696365206d7573742062652067726561746572207468616e203000000000600082015250565b60006150ad601c83614976565b91506150b882615077565b602082019050919050565b600060208201905081810360008301526150dc816150a0565b9050919050565b7f41637475616c207072696365206d75737420626520677265617465722074686160008201527f6e206f7220657175616c20746f206d696e696d616c2070726963650000000000602082015250565b600061513f603b83614976565b915061514a826150e3565b604082019050919050565b6000602082019050818103600083015261516e81615132565b9050919050565b7f4475726174696f6e206d7573742062652067726561746572207468616e203000600082015250565b60006151ab601f83614976565b91506151b682615175565b602082019050919050565b600060208201905081810360008301526151da8161519e565b9050919050565b6000815190506151f0816143be565b92915050565b60006020828403121561520c5761520b61435b565b5b600061521a848285016151e1565b91505092915050565b7f496e73756666696369656e742062616c616e6365000000000000000000000000600082015250565b6000615259601483614976565b915061526482615223565b602082019050919050565b600060208201905081810360008301526152888161524c565b9050919050565b60006040820190506152a46000830185614417565b6152b16020830184614417565b9392505050565b7f436f6e7472616374206e6f7420617070726f76656420746f207472616e73666560008201527f7220746f6b656e73000000000000000000000000000000000000000000000000602082015250565b6000615314602883614976565b915061531f826152b8565b604082019050919050565b6000602082019050818103600083015261534381615307565b9050919050565b600060608201905061535f6000830186614417565b61536c6020830185614417565b61537960408301846149f0565b949350505050565b61538a816141af565b811461539557600080fd5b50565b6000815190506153a781615381565b92915050565b6000602082840312156153c3576153c261435b565b5b60006153d184828501615398565b91505092915050565b7f546f6b656e207472616e73666572206661696c65640000000000000000000000600082015250565b6000615410601583614976565b915061541b826153da565b602082019050919050565b6000602082019050818103600083015261543f81615403565b9050919050565b600060608201905061545b60008301866149f0565b61546860208301856149f0565b61547560408301846149f0565b949350505050565b7f4f6e6c7920736572766963652070726f76696465722063616e207369676e206f60008201527f7264657200000000000000000000000000000000000000000000000000000000602082015250565b60006154d9602483614976565b91506154e48261547d565b604082019050919050565b60006020820190508181036000830152615508816154cc565b9050919050565b7f4f72646572206578706972656400000000000000000000000000000000000000600082015250565b6000615545600d83614976565b91506155508261550f565b602082019050919050565b6000602082019050818103600083015261557481615538565b9050919050565b7f4f7264657220616c7265616479207369676e6564000000000000000000000000600082015250565b60006155b1601483614976565b91506155bc8261557b565b602082019050919050565b600060208201905081810360008301526155e0816155a4565b9050919050565b7f5072696e74657220616c72656164792072656769737465726564000000000000600082015250565b600061561d601a83614976565b9150615628826155e7565b602082019050919050565b6000602082019050818103600083015261564c81615610565b9050919050565b60008190508160005260206000209050919050565b60006020601f8301049050919050565b600082821b905092915050565b6000600883026156b57fffffffffffffffffffffffffffffffffffffffffffffffffffffffffffffffff82615678565b6156bf8683615678565b95508019841693508086168417925050509392505050565b60006156f26156ed6156e884614196565b614512565b614196565b9050919050565b6000819050919050565b61570c836156d7565b615720615718826156f9565b848454615685565b825550505050565b600090565b615735615728565b615740818484615703565b505050565b5b818110156157645761575960008261572d565b600181019050615746565b5050565b601f8211156157a95761577a81615653565b61578384615668565b81016020851015615792578190505b6157a661579e85615668565b830182615745565b50505b505050565b600082821c905092915050565b60006157cc600019846008026157ae565b1980831691505092915050565b60006157e583836157bb565b9150826002028217905092915050565b6157fe826145b8565b67ffffffffffffffff81111561581757615816614802565b5b6158218254614f02565b61582c828285615768565b600060209050601f83116001811461585f576000841561584d578287015190505b61585785826157d9565b8655506158bf565b601f19841661586d86615653565b60005b8281101561589557848901518255600182019150602085019450602081019050615870565b868310156158b257848901516158ae601f8916826157bb565b8355505b6001600288020188555050505b505050505050565b7f4f6e6c7920637573746f6d65722063616e20636f6e6669726d206f7264657200600082015250565b60006158fd601f83614976565b9150615908826158c7565b602082019050919050565b6000602082019050818103600083015261592c816158f0565b9050919050565b7f4f72646572206e6f7420636f6d706c657465642062792070726f766964657200600082015250565b6000615969601f83614976565b915061597482615933565b602082019050919050565b600060208201905081810360008301526159988161595c565b9050919050565b7f4f7264657220616c7265616479207265706f7274656420617320756e636f6d7060008201527f6c65746520627920637573746f6d657200000000000000000000000000000000602082015250565b60006159fb603083614976565b9150615a068261599f565b604082019050919050565b60006020820190508181036000830152615a2a816159ee565b9050919050565b7f5265706f72742074696d65206578706972656400000000000000000000000000600082015250565b6000615a67601383614976565b9150615a7282615a31565b602082019050919050565b60006020820190508181036000830152615a9681615a5a565b9050919050565b7f4f6e6c7920736572766963652070726f76696465722063616e207472616e736660008201527f65722066756e6473000000000000000000000000000000000000000000000000602082015250565b6000615af9602883614976565b9150615b0482615a9d565b604082019050919050565b60006020820190508181036000830152615b2881615aec565b9050919050565b7f4f72646572207265706f7274656420617320756e636f6d706c6574652062792060008201527f637573746f6d6572000000000000000000000000000000000000000000000000602082015250565b6000615b8b602883614976565b9150615b9682615b2f565b604082019050919050565b60006020820190508181036000830152615bba81615b7e565b9050919050565b7f5265706f7274696e672074696d65206e6f742065787069726564207965740000600082015250565b6000615bf7601e83614976565b9150615c0282615bc1565b602082019050919050565b60006020820190508181036000830152615c2681615bea565b9050919050565b6000604082019050615c426000830185614417565b615c4f60208301846149f0565b9392505050565b7f4e6f20616374697665206f726465727320746f20657865637574650000000000600082015250565b6000615c8c601b83614976565b9150615c9782615c56565b602082019050919050565b60006020820190508181036000830152615cbb81615c7f565b9050919050565b7f4f6e6c7920637573746f6d65722063616e20726566756e64206f72646572207260008201527f6571756573740000000000000000000000000000000000000000000000000000602082015250565b6000615d1e602683614976565b9150615d2982615cc2565b604082019050919050565b60006020820190508181036000830152615d4d81615d11565b9050919050565b7f4f72646572207265717565737420616c7265616479207369676e656400000000600082015250565b6000615d8a601c83614976565b9150615d9582615d54565b602082019050919050565b60006020820190508181036000830152615db981615d7d565b9050919050565b7f4f726465722072657175657374206973206e6f74206578706972656420796574600082015250565b6000615df6602083614976565b9150615e0182615dc0565b602082019050919050565b60006020820190508181036000830152615e2581615de9565b9050919050565b7f4e487b7100000000000000000000000000000000000000000000000000000000600052603160045260246000fd5b7f4e487b7100000000000000000000000000000000000000000000000000000000600052601260045260246000fd5b6000615e9582614196565b9150615ea083614196565b925082615eb057615eaf615e5b565b5b82820490509291505056fea26469706673582212203a021077a0e7dabfc91cb3531a6fc1f629bbd9ee413f9e9cc6248a5776ac9daf64736f6c634300081c0033",
  "linkReferences": {},
  "deployedLinkReferences": {}
}